:020000040800F2
:10000000C8070020310500080503000807030008A1
:100010000B0300080F030008130300080000000092
:1000200000000000000000000000000017030008AE
:1000300019030008000000001B0300081D0300084E
:100040004B0500084B0500084B0500084B05000850
:100050004B0500084B0500084B0500084B05000840
:100060004B0500084B0500084B0500084B05000830
:100070004B0500084B0500084B0500084B05000820
:100080004B0500084B0500084B0500084B05000810
:10009000573000084B0500084B0500084B050008C9
:1000A0004B0500084B0500084B0500084B050008F0
:1000B0004B0500084B0500084B0500084B050008E0
:1000C0004B0500084B0500084B0500084B050008D0
:1000D0004B0500084B0500084B0500084B050008C0
:1000E0004B0500084B0500084B0500084B050008B0
:1000F0004B0500084B0500084B0500084B050008A0
:100100004B0500084B0500084B0500084B0500088F
:100110004B0500084B0500084B0500084B0500087F
:100120004B0500084B0500084B0500084B0500086F
:100130004B0500084B0500084B0500084B0500085F
:100140004B050008733000084B0500084B050008FC
:100150004B0500084B0500084B0500084B0500083F
:100160004B0500084B0500084B0500084B0500082F
:100170004B0500084B0500084B0500084B0500081F
:100180004B0500084B05000800F002F800F061F88C
:100190000AA090E8000C82448344AAF10107DA45E2
:1001A00001D100F056F8AFF2090EBAE80F0013F0D3
:1001B000010F18BFFB1A43F001031847485600000F
:1001C000685600000A444FF0000C10F8013B13F091
:1001D000070408BF10F8014B1D1108BF10F8015BA0
:1001E000641E05D010F8016B641E01F8016BF9D193
:1001F00013F0080F1EBF10F8014BAD1C0C1B09D1EA
:100200006D1E58BF01F801CBFAD505E014F8016B5B
:1002100001F8016B6D1EF9D59142D6D370470000ED
:100220000023002400250026103A28BF78C1FBD8FF
:10023000520728BF30C148BF0B607047642904F0E3
:100240008781002070471FB505F01BFA1FBD10B550
:1002500010BD04F057FA1146FFF7F5FF00F008F85B
:1002600004F075FA03B4FFF7F2FF03BC02F05EFC82
:1002700088B002F0D0FE002400BF38E04FF4FA70DE
:100280001B49086000201B4908601B4908601B4887
:1002900041426422CDE90412CDE90610CDE90012F5
:1002A00043004A00CDE90210C821104604F0DFF8EF
:1002B00004F091F804F0ABF804F0C5F803F066FE22
:1002C000642C04DA01210E4800F0BEFF0BE0642C20
:1002D00006DBC82C04DA0121094800F0B3FF02E074
:1002E000C82C00DB0024641C052002F0FFFBC5E7DE
:1002F000680000206C000020700000200CFEFFFF52
:1003000000080240704700BFFEE700BFFEE700BFE5
:10031000FEE700BFFEE77047704770477047000078
:100320000CB50020019000907648006840F48030C1
:100330007449086000BF7348006800F40030009002
:100340000198401C0190009818B90198B0F5A04F91
:10035000F1D16C48006800F4003010B10120009029
:1003600001E0002000900098012846D16548403007
:10037000006840F08050634940310860624800687E
:1003800040F44040604908605E48083000685D49BC
:10039000083108600846006840F4004008600846DC
:1003A000006840F4A05008605848091F0860081F02
:1003B000006840F08070091F086000BF5148006865
:1003C00000F000700028F9D040F205705049086034
:1003D0004C480830006820F003004A4908310860A2
:1003E0000846006840F00200086000BF4548083039
:1003F000006800F00C000828F8D10CBD10B5454885
:10040000006840F47000434908603E48006840F0CE
:1004100001003C49086000203A4908310860394829
:1004200000683D490840374908603C48091D08609C
:10043000081F006820F48020091F0860002031494F
:100440000C310860FFF76CFF4FF0006031498039D4
:10045000086010BD70B50020002202230024022194
:10046000284D08352D6805F00C0020B1042806D071
:10047000082834D107E02A4D2A4E356033E02A4D52
:10048000284E35602FE01F4D2D1D2D68C5F380547B
:100490001C4D2D1D2D6805F03F0154B1224DB5FBBB
:1004A000F1F5184E361D3668C6F3881605FB06F2C0
:1004B00009E01B4DB5FBF1F5124E361D3668C6F34B
:1004C000881605FB06F20F4D2D1D2D68C5F301455D
:1004D0006D1C6B00B2FBF3F5124E356003E0104D5E
:1004E000104E356000BF00BF064D08352D68C5F3BE
:1004F00003150E4E705D0B4D2D68C540094E3560DD
:1005000070BD0000003802400070004008544007F1
:10051000003C024088ED00E0FFFFF6FE10300024B2
:100520000024F4000000002000127A0004000020E3
:100530000948804709480047FEE7FEE7FEE7FEE777
:10054000FEE7FEE7FEE7FEE7FEE7FEE704480549B3
:10055000054A064B70470000FD03000889010008AA
:10056000C8010020C8070020C8030020C8030020DD
:1005700032490143324A1160704770B500210023AF
:100580000F22C4781CB32E4C246804F4E064C4F534
:10059000E064C4F30721C1F10404E3B20A414478E2
:1005A0009C40E1B28478144021430C07210E254C75
:1005B00005786155047804F01F050124AC400578E6
:1005C0006D11AD0005F1E025C5F8004109E00478A2
:1005D00004F01F050124AC401B4D0678761145F848
:1005E000264070BD194A0A400243154B1B1F1A6072
:1005F000704739B1124A121D12680243104B1B1D7D
:100600001A6006E00E4A121D126882430C4B1B1D35
:100610001A607047042808D14FF0E021096941F0C1
:1006200004014FF0E022116107E04FF0E021096979
:1006300021F004014FF0E022116170470000FA053B
:100640000CED00E000E400E080E100E080FFFF1F2F
:1006500010B50446FE48844209D10121480601F044
:10066000B1F800214FF0007001F0ACF808E0012172
:10067000880601F0A7F800214FF0806001F0A2F891
:1006800010BD30B5024600200023146824F0020497
:100690001460146844F00104146000E05B1C5468AA
:1006A00004F001041CB94FF6FF74A342F6D154685C
:1006B00004F001040CB900206CE08C79012C04D109
:1006C000146844F08004146003E0146824F080048B
:1006D0001460CC79012C04D1146844F040041460F7
:1006E00003E0146824F0400414600C7A012C04D157
:1006F000146844F02004146003E0146824F020041B
:1007000014604C7A012C04D1146844F01004146075
:1007100003E0146824F0100414608C7A012C04D1D6
:10072000146844F00804146003E0146824F008041A
:100730001460CC7A012C04D1146844F004041460D1
:1007400003E0146824F0040414608C78A407CD78C6
:1007500044EA05640D7944EA05444D7944EA0554B8
:100760000D886D1E2C43D461146824F001041460BC
:10077000002300E05B1C546804F001041CB14FF638
:10078000FF74A342F6D1546804F001040CB10020B8
:1007900000E0012030BD10B50021837A012202FA69
:1007A00003F1AC4A126842F00102AA4B1A60A94A4E
:1007B0001C3212688A43A74B1C331A60027BCAB9E9
:1007C000A44A0C3212688A43A24B0C331A60428846
:1007D000C38842EA03439F4A4032847A42F8343065
:1007E0000288838842EA03439A4A4032847A02EBC1
:1007F000C4025360027B012A19D1964A0C32126856
:100800000A43944B0C331A604288038842EA03433C
:10081000904A4032847A42F83430C288838842EA6F
:1008200003438C4A4032847A02EBC4025360C27A9A
:100830003AB9884A121D12688A43864B1B1D1A60FA
:1008400006E0844A121D12680A43824B1B1D1A607F
:10085000028932B97F4A143212688A437D4B1433BD
:100860001A600289012A06D17A4A143212680A43B0
:10087000784B14331A60427B012A06D1754A1C3228
:1008800012680A43734B1C331A60724A126822F0D2
:100890000102704B1A6010BD00218171C17101729B
:1008A00041728172C1728170C17003210171022194
:1008B00041710121018070476649096841F00101D9
:1008C000644A11601146096843F60E729143614A09
:1008D00011601146096841EA00211160114609685A
:1008E00021F001011160704721B1026842F48032A9
:1008F000026003E0026822F4803202607047E1B1D6
:10090000026842F0800202604FF4C272125842F450
:1009100080734FF4C27213504FF4CA72125842F4EB
:1009200080734FF4CA7213504FF4D272125842F4CB
:1009300080734FF4D27213501BE0026822F08002E1
:1009400002604FF4C272125822F480734FF4C272E4
:1009500013504FF4CA72125822F480734FF4CA72C3
:1009600013504FF4D272125822F480734FF4D272A3
:100970001350704710B502460020936803F080635F
:10098000B3F1806F00D110E0936803F00063B3F11E
:10099000006F01D1012008E0936803F08053B3F1A8
:1009A000805F01D1022000E00420042879D002F504
:1009B000C07303EB00131B6803F0010402F5C0735E
:1009C00003EB00131C600B7A7BB94B7A0C8843EA6B
:1009D000445302F5C07404EB00142468234302F569
:1009E000C07404EB0014236010E00B7A4C6843EAF7
:1009F000C4034C7A234302F5C07404EB001424684A
:100A0000234302F5C07404EB001423608B7A03F0D7
:100A10000F038B7202F5C07303EB00135B6823F0C6
:100A20000F0402F5C07303EB00135C6002F5C073A2
:100A300003EB00135B688C7A234302F5C07404EB6C
:100A4000001463608B7B1C064B7B44EA034403E089
:100A500000640040006600400B7B44EA0323CC7A2C
:100A6000234302F5C07404EB0014A3608B7C1C06C6
:100A70004B7C44EA03440B7C44EA0323CC7B2343B2
:100A800002F5C07404EB0014E36002F5C07303EBDD
:100A900000131B6843F0010402F5C07303EB00135D
:100AA0001C6010BD10B50246002321B1012907D0FA
:100AB00002290FD109E09068F94C00EA04030BE029
:100AC0009068F84C00EA040306E09068F64C00EAEF
:100AD000040301E0002300BF00BFF44C181BA34235
:100AE00016D007DC83B16FF08060184470B1022823
:100AF00018D111E0B0F5007F10D0ED4C204448B182
:100B0000B0F5003F0ED10BE002230DE000230BE017
:100B1000002309E0002307E0012305E0012303E0AF
:100B2000012301E0002300BF00BFD8B210BD21B1F6
:100B3000012907D002290FD109E0826842F0800222
:100B400082600AE0826842F40042826005E08268C6
:100B500042F40002826000E000BF00BF704710B5A1
:100B600000F5D87303EB01131B6803F00403137241
:100B7000137A53B900F5D87303EB01131B6840F2E5
:100B8000FF7404EA5353136009E000F5D87303EBD4
:100B900001131B686FF0604404EAD303536000F54F
:100BA000D87303EB01131B6803F00203537200F5C3
:100BB000D87303EB01135B6803F00F03937200F526
:100BC000D87303EB01135B681B0AD37400F5D87369
:100BD00003EB01139B68D37200F5D87303EB011389
:100BE0009B681C0A147300F5D87303EB01139B6810
:100BF0001C0C547300F5D87303EB01139B681B0E98
:100C0000937300F5D87303EB0113DB68D37300F51E
:100C1000D87303EB0113DB681C0A147400F5D87356
:100C200003EB0113DB681C0C547400F5D87303EB61
:100C30000113DB681B0E937421B9C36843F02003D2
:100C4000C36003E0036943F02003036110BD21B9D1
:100C5000C26842F02002C26003E0026942F0200252
:100C6000026170470246002019B9D36803F00300FF
:100C700006E0012903D1136903F0030000E000201E
:100C8000704710B502460B4600204FF6FF71BBB906
:100C9000146824F0020444F00104146000E0491ECA
:100CA000546804F00304012C01D00029F7D15468E2
:100CB00004F00304012C01D0002032E0012030E0D8
:100CC000012B13D1146824F00304146000E0491EC2
:100CD000546804F003040CB10029F8D1546804F0FE
:100CE00003040CB100201CE001201AE0022B17D1F4
:100CF000146824F0010444F00204146000E0491E6A
:100D0000546804F00304022C01D00029F7D1546880
:100D100004F00304022C01D0002002E0012000E0D6
:100D2000002010BD014600200A6822F0010242F0B6
:100D300002020A604A6802F00302022A00D101207E
:100D4000704701464FF6FF7200200B6823F0020344
:100D50000B6000E0521E4B6803F00203022B01D12E
:100D6000002AF7D14B6803F00203022B00D00120C8
:100D70007047014600208A6902F070007047014602
:100D800000208A69100E7047014600208A69C2F36C
:100D9000074070471AB143690B43436102E043695E
:100DA0008B434361704710B50246002001F4700385
:100DB00043B19369C1F3130423400BB101202DE02B
:100DC00000202BE001F0807343B15368C1F313049A
:100DD00023400BB1012021E000201FE001F000635F
:100DE00043B19368C1F3130423400BB1012015E014
:100DF000002013E001F0007343B1D368C1F3130482
:100E000023400BB1012009E0002007E01369C1F382
:100E1000130423400BB1012000E0002010BD00228C
:100E2000244B994202D10023836111E0C1F31302E4
:100E300001F000730BB1C2600AE001F080630BB1F6
:100E4000026105E001F000630BB1826000E04260E6
:100E500070470246002002EA01030BB1012000E0C6
:100E60000020704770B504460D4600266069284092
:100E7000002872D0B5F5807F69D01DDC082D42D0E6
:100E800006DC012D2DD0022D31D0042D7FD134E090
:100E9000102D3ED0202D42D0402D78D145E00000CD
:100EA0000300000400030008000003100001000814
:100EB0000001FFF77000F030B5F5004F61D009DC9C
:100EC000B5F5007F4AD0B5F5806F4DD0B5F5006F10
:100ED0005DD150E0B5F5803F2DD0B5F5003F56D13E
:100EE0002FE0A0685549FFF7B4FF064651E0E068DF
:100EF0000321FFF7AEFF06464BE0E0680821FFF74D
:100F0000A8FF064645E0E0681021FFF7A2FF06466D
:100F10003FE020690321FFF79CFF064639E0206986
:100F20000821FFF796FF064633E020691021FFF7FE
:100F300090FF06462DE060680821FFF78AFF06460D
:100F400027E060681021FFF784FF064621E0A069D2
:100F50000121FFF77EFF06461BE01BE0A06902218E
:100F6000FFF777FF064614E0A0690421FFF771FF41
:100F700006460EE00BE0A0697021FFF76AFF064607
:100F800007E060680421FFF764FF064601E00026E1
:100F900000BF00E00026304670BDB1F5007F3AD0BA
:100FA0000FDC202928D006DC01291CD004291DD003
:100FB000082940D11DE0402921D0B1F5807F3AD1E8
:100FC00026E0B1F5004F31D006DCB1F5806F25D0B9
:100FD000B1F5006F2FD124E0B1F5803F12D0B1F50B
:100FE000003F28D111E0154A826025E00822C26046
:100FF00022E01022C2601FE0082202611CE01022E1
:10100000026119E00822426016E01022426013E0FB
:101010000422426010E0042242600DE0042242609B
:101020000AE0002282610422426005E0002282611F
:101030000422426000E000BF00BF704701010100D0
:1010400010B504469848844208D10121084600F0B2
:1010500086FB0021012000F082FB76E09348844269
:1010600008D10121022000F07AFB0021022000F0CB
:1010700076FB6AE08E48844208D10121042000F00A
:101080006EFB0021042000F06AFB5EE08948844288
:1010900008D10121082000F062FB0021082000F0A7
:1010A0005EFB52E08448844208D10121102000F008
:1010B00056FB0021102000F052FB46E07F4884429E
:1010C00008D10121202000F04AFB0021202000F05F
:1010D00046FB3AE07A48844208D10121402000F0E2
:1010E0003EFB0021402000F03AFB2EE07548844290
:1010F00008D10121802000F032FB0021802000F087
:101100002EFB22E07048844208D10121801500F0B6
:1011100026FB0021A01500F022FB16E06B4884425C
:1011200008D10121401500F01AFB0021601500F0E4
:1011300016FB0AE06648844207D10121001500F041
:101140000EFB0021201500F00AFB10BDF0B50A4689
:1011500000210023002400BF3DE0012505FA01F332
:10116000156805EA03049C4234D105684F00032644
:10117000BE40B543056015794E00B540066835435D
:1011800005601579012D02D01579022D16D18568DB
:101190004F000326BE40B543856055794E00B540EB
:1011A000866835438560456801268E40B5434560B5
:1011B000456896798E40B6B235434560C5684F00A4
:1011C0000326BE40B543C560D5794E00B540C6681C
:1011D0003543C560491C1029BFD3F0BD4FF6FF71E0
:1011E00001600021017141718171C171704708B5C1
:1011F0004FF480320092009A0A430092009AC26132
:10120000C161009AC261C2690092C269009208BDC0
:101210000246002013690B400BB1012000E00020C2
:1012200070470146086980B2704702460020536942
:101230000B400BB1012000E00020704701464869D7
:1012400080B2704701837047418370470AB10183C0
:1012500000E0418370474161704742694A40426102
:101260007047F0B5002300244D07ED0E02FA05F398
:10127000CE1000F1200555F826504E07F70E0F2628
:10128000BE40B543CF1000F1200646F82750CE10DF
:1012900000F1200555F8265045EA0304CE1000F170
:1012A000200545F82640F0BD000002400004024041
:1012B00000080240000C02400010024000140240EE
:1012C00000180240001C024000200240002402409E
:1012D00000280240F948006840F00100F749086022
:1012E0000020F64908310860F4480068F4490840D5
:1012F000F2490860F348091D0860F348EF4984315A
:101300000860F0481038091D0860EC48006820F4B7
:101310008020EA4908600020E8490C310860E7496C
:101320008C31086070470021E44A921C117011460C
:101330000870704710B501460022002300204A11B2
:10134000012A02D1DD4C236808E0022A03D1DB4CDC
:101350007034236802E0D94C7434236801F01F0212
:10136000012494401C400CB1012000E0002010BD7D
:1013700038B5002000900024002500BF3120FFF781
:10138000D9FF05460098401C00900098B0F5A04F8A
:1013900001D0002DF2D03120FFF7CCFF08B101249D
:1013A00000E00024204638BD01460020C34A1068F2
:1013B00020F0F80040EAC10010607047C34908609F
:1013C00070470021BD4A703211701170012802D09F
:1013D00004280AD104E00121B84A7032117005E0F6
:1013E0000521B64A7032117000E000BF00BF70479F
:1013F000B7490860704770B5049C41EA8215012620
:10140000C6EB530645EA0645054345EA0465AB4E7F
:10141000361D356070BDAD4908667047820142EAED
:101420000172A64B84331A607047A84988667047DA
:1014300010B5830143EA016343EA02739F4C883489
:10144000236010BDA14908677047A049C864704770
:1014500002460020994B0833186820F0EC6042EAFD
:1014600001031843954B083318607047024600206B
:10147000924B0833186820F0784042EA0103184381
:101480008E4B083318607047014600208B4A0832A3
:10149000106820F003000843106070478748083048
:1014A000006800F00C00704701460020834A0832B3
:1014B000106820F0F00008431060704701460020DB
:1014C0007E4A0832106820F4E050084310607047EC
:1014D00001460020794A0832106820F4604040EA52
:1014E000C10010607047F0B50021002200240225E1
:1014F00000260223714F08373F6807F00C0121B125
:10150000042905D0082937D105E0724F076036E07D
:10151000714F076033E0694F3F1D3F68C7F3805646
:10152000664F3F1D3F6807F03F036EB16A4FB7FB40
:10153000F3F7DFF888C10CF1040CDCF800C0CCF341
:10154000881C07FB0CF40CE0624FB7FBF3F7DFF8E5
:101550006CC10CF1040CDCF800C0CCF3881C07FB58
:101560000CF4564F3F1D3F68C7F301477F1C7D00B9
:10157000B4FBF5F7076002E0564F076000BF00BFFD
:101580004E4F08373F6807F0F0010909534F7A5C66
:101590000768D7404760494F08373F6807F4E05174
:1015A000890A4E4F7A5C4768D7408760434F0837B7
:1015B0003F6807F46041490B484F7A5C4768D74061
:1015C000C760F0BD002100F44072B2F5407F0AD13F
:1015D0003A4A0832116821F4F811414A0240114395
:1015E000364A08321160354A70321268C0F30B0374
:1015F0001A43324B70331A607047354944390860DA
:101600007047334940390860704736490860704771
:1016100001460020294A8C32106820F01F004A1E23
:101620001043264A8C321060704701460020234A3E
:101630008C32106820F4F8504A1E40EA02201F4AFB
:101640008C3210607047014600201C4A8C321068B2
:1016500020F4401008431060704701460020174AEC
:101660008C32106820F44000084310607047014637
:101670000020124A8C32106820F440300843106079
:10168000704719490860704739B10C4A3032126806
:1016900002430A4B30331A6006E0084A30321268BF
:1016A0008243064B30331A607047F9B1034A343233
:1016B00012680243014B34331A601CE000380240C8
:1016C000FFFFF6EA103000240030002000004742FF
:1016D000800E47420024F40000127A00140000201B
:1016E000FFFCFF0F5C014742E01147428F4A12683E
:1016F00082438E4B1A60704739B18C4A121D1268B2
:1017000002438A4B1B1D1A6006E0884A121D1268AC
:101710008243864B1B1D1A60704739B1834A0C32D5
:1017200012680243814B0C331A6006E07F4A0C3288
:10173000126882437D4B0C331A60704739B17B4A83
:10174000103212680243794B10331A6006E0774A70
:10175000103212688243754B10331A60704739B1EA
:10176000724A243A12680243704B243B1A6006E026
:101770006E4A243A126882436C4B243B1A607047CD
:1017800039B16A4A203A12680243684B203B1A601A
:1017900006E0664A203A12688243644B203B1A6096
:1017A000704739B1614A1C3A126802435F4B1C3BD7
:1017B0001A6006E05D4A1C3A126882435B4B1C3B90
:1017C0001A60704739B1594A143A12680243574BAC
:1017D000143B1A6006E0554A143A12688243534B90
:1017E000143B1A60704739B1504A103A12680243EC
:1017F0004E4B103B1A6006E04C4A103A1268824386
:101800004A4B103B1A60704739B1484A1C32126883
:101810000243464B1C331A6006E0444A1C321268ED
:101820008243424B1C331A60704739B13F4A203221
:10183000126802433D4B20331A6006E03B4A2032D7
:1018400012688243394B20331A60704739B1374AE6
:10185000243212680243354B24331A6006E0334ABF
:10186000243212688243314B24331A60704739B1F5
:101870002E4A2C32126802432C4B2C331A6006E09D
:101880002A4A2C3212688243284B2C331A60704744
:1018900039B1264A303212680243244B30331A6081
:1018A00006E0224A303212688243204B30331A60FD
:1018B0007047012808D11D493C31096841F00801F1
:1018C0001A4A3C32116007E018493C31096821F09E
:1018D0000801164A3C321160704739B1134A273A61
:1018E00012780243114B273B1A7006E00F4A273A41
:1018F000127882430D4B273B1A7070470B484030DB
:10190000006840F080700949403108607047014626
:101910000020064A283A12680A400AB1012000E075
:10192000002070470149263908707047343802405A
:1019300010B50446FE48844208D101210846FFF74D
:1019400052FF00210120FFF74EFF9DE0B4F1804FD0
:1019500008D101210846FFF735FF00210120FFF7DC
:1019600031FF91E0F348844208D101210220FFF7C2
:1019700029FF00210220FFF725FF85E0EE48844281
:1019800008D101210420FFF71DFF00210420FFF7EB
:1019900019FF79E0E948844208D101210820FFF7C6
:1019A00011FF00210820FFF70DFF6DE0E44884429D
:1019B00008D101211020FFF705FF00211020FFF7BB
:1019C00001FF61E0DF48844208D101212020FFF7B8
:1019D000F9FE00212020FFF7F5FE55E0DA488442A9
:1019E00008D101210220FFF7FEFE00210220FFF7AF
:1019F000FAFE49E0D548844209D101210804FFF7E5
:101A0000F2FE00214FF48030FFF7EDFE3CE0D048BD
:101A1000844209D101214804FFF7E5FE00214FF47B
:101A20000030FFF7E0FE2FE0CA48844209D10121CF
:101A30008804FFF7D8FE00214FF48020FFF7D3FE83
:101A400022E0C548844208D101214020FFF7BAFEB8
:101A500000214020FFF7B6FE16E0C048844208D1BE
:101A600001218020FFF7AEFE00218020FFF7AAFEB3
:101A70000AE0BB48844207D101218015FFF7A2FE8E
:101A80000021A015FFF79EFE10BD00220288A84B82
:101A900098420ED0AC4B98420BD0B0F1804F08D09A
:101AA000A44B984205D0A44B984202D0A34B984235
:101AB00004D14FF68F731A404B881A43A04B9842BB
:101AC00007D0A04B984204D04FF6FF431A400B8931
:101AD0001A4302804B68C3620B880385944B98427B
:101AE00002D0994B984201D18B7A038601238382DD
:101AF00070474FF0FF31416000210180018141803A
:101B0000817270470185828270470A4600210188F0
:101B10004FF68F731940114301807047416270473F
:101B2000C16270470146486A70470146088D704798
:101B300021B1028842F00202028004E002884FF6DE
:101B4000FD731A400280704721B1028842F00402FE
:101B5000028004E002884FF6FB731A40028070474F
:101B600021B1028842F08002028004E002884FF630
:101B70007F731A400280704702884FF6F7731A404D
:101B8000028002880A430280704702884FF6FF43B2
:101B90001A40028002880A430280704721B10288FD
:101BA00042F00102028004E002884FF6FE731A4000
:101BB0000280704770B5002400220023058C4FF688
:101BC000FE7635400584028C8388048B4FF68F7532
:101BD0002C40B51E2C400D882C43751E2A408D8943
:101BE0002A434D882A43524DA84202D0564DA8425E
:101BF00013D14FF6F7752A40CD892A434FF6FB756E
:101C00002A408D882A434FF6FF652B404FF6FF553B
:101C10002B400D8A2B434D8A2B43838004838D6890
:101C20004563028470BD70B5002400220023058C3A
:101C30004FF6EF7635400584028C8388048B48F696
:101C4000FF752C404FF6FF452C400D884FF6FF7670
:101C500006EA05252C434FF6DF752A408D8906EAF2
:101C600005152A434D8806EA05152A43304DA8423A
:101C700002D0354DA8421DD14FF67F752A40CD893F
:101C80004FF6FF7606EA05152A434FF6BF752A4040
:101C90008D8806EA05152A434FF6FF352B404FF293
:101CA000FF752B400D8A06EA85052B434D8A06EA0F
:101CB00085052B43838004838D688563028470BD12
:101CC00070B5002400220023058C4FF6FF663540D6
:101CD0000584028C8388848B4FF68F752C404FF6D9
:101CE000FC752C400D882C434FF6FF552A408D89FA
:101CF0004FF6FF7606EA05252A434D8806EA0525B4
:101D00002A430B4DA84202D00F4DA84238D14FF2C2
:101D1000FF752A40CD894FF6FF7606EA05252A434E
:101D20004FF6FF352A408D8806EA05252A4319E03B
:101D3000000001400004004000080040000C00408A
:101D40000010004000140040000401400040014029
:101D5000004401400048014000180040001C0040C1
:101D6000002000404EF6FF752B404DF6FF752B40CE
:101D70000D8A06EA05152B434D8A06EA05152B4305
:101D8000838084838D68C563028470BD70B5002232
:101D900000230024058C4EF6FF7635400584038C25
:101DA0008488828B48F6FF752A404FF6FF452A400B
:101DB0000D884FF6FF7606EA05252A434DF6FF7596
:101DC0002B408D8906EA05352B434D8806EA0535FB
:101DD0002B43FE4DA84202D0FD4DA84208D14BF640
:101DE000FF752C400D8A4FF6FF7606EA85152C43C9
:101DF000848082838D680564038470BD0021018026
:101E00004180818081608181C181018241827047EE
:101E100070B50346002000241846183001258D4077
:101E2000ACB21D8CA5431D8409B108290AD100EB71
:101E3000610005684FF68F763540056005681543EB
:101E400005600FE00D1FC5F34E052844056848F6F0
:101E5000FF763540056005684FF6FF7606EA0226F4
:101E60003543056070BD4163704781637047C1634E
:101E70007047016470470A460021018B4FF68F734B
:101E800019401143018370470A460021018B48F62F
:101E9000FF7319404FF6FF7303EA022319430183CE
:101EA00070470A460021818B4FF68F73194011430A
:101EB000818370470A460021818B48F6FF731940E1
:101EC0004FF6FF7303EA02231943818370470A46E2
:101ED0000021018B4FF6F7731940114301837047BE
:101EE0000A460021018B4FF2FF7319404FF6FF7332
:101EF00003EA02231943018370470A460021818BBC
:101F00004FF6F77319401143818370470A46002149
:101F1000818B4FF2FF7319404FF6FF7303EA0223E0
:101F20001943818370470A460021018B4FF6FB73EA
:101F300019401143018370470A460021018B4FF677
:101F4000FF3319404FF6FF7303EA0223194301835D
:101F500070470A460021818B4FF6FB7319401143ED
:101F6000818370470A460021818B4FF6FF33194069
:101F70004FF6FF7303EA02231943818370470A4631
:101F80000021018B4FF67F73194011430183704785
:101F90000A460021018BC1F30E014FF6FF7303EADD
:101FA00002231943018370470A460021818B4FF6B3
:101FB0007F7319401143818370470A460021818B4A
:101FC000C1F30E014FF6FF7303EA02231943818325
:101FD00070470A460021018C4FF6FD7319401143EA
:101FE000018470470A460021018C4FF6F7731940AF
:101FF0001143018470470A460021018C4FF6DF73BC
:1020000019404FF6FF7303EA021319430184704726
:102010000A460021018C4FF67F7319404FF6FF737B
:1020200003EA02131943018470470A460021018C18
:102030004FF6FF5319404FF6FF7303EA022319438B
:10204000018470470A460021018C4FF2FF7319404A
:102050004FF6FF7303EA02231943018470470A46CF
:102060000021018C4DF6FF7319404FF6FF7303EA10
:10207000023319430184704730B5002301248C409A
:10208000A3B2048C9C430484048C02FA01F5ADB223
:102090002C43048430BD30B5002304248C40A3B20B
:1020A000048C9C430484048C02FA01F5ADB22C43E9
:1020B000048430BD828B4FF2FF331A408283828BBF
:1020C0004FF6FF7303EA01231A4382837047F0B58A
:1020D0000C461546002100220026078C4EF6FF7C98
:1020E00007EA0C070784818B028C4FF6FF7707EA1B
:1020F000043640F6FF4739404FF6FF7707EA0527D9
:1021000039434FF6FF7707EA0337394345F6FF7740
:102110003A4046F480573A4381830284F0BD828B73
:102120004FF6F3731A408283828B0A43828370478F
:10213000F0B50C461546002100220026078C4FF60C
:10214000FF6C07EA0C070784818B028C4FF6FF7740
:1021500007EA04264FF60C7739404FF6FF7707EA77
:1021600003172F4339434FF2FF573A4046F4807725
:102170003A4381830284F0BD028B4FF2FF331A4051
:102180000283028B4FF6FF7303EA01231A43028393
:102190007047F0B50C461546002100220026078C3A
:1021A0004FF6EF7C07EA0C070784018B028C4FF691
:1021B000FF7707EA041640F6FF4739404FF6FF77EE
:1021C00007EA033739434FF6FF7703E00000014089
:1021D0000004014007EA052739434FF65F773A408C
:1021E00046F010073A4301830284F0BD028B4FF69C
:1021F000F3731A400283028B0A4302837047F0B5DF
:102200000C46154600210022068C4FF6FE773E4014
:102210000684018B028C4FF60C7631407E1C06EA58
:1022200003162E4331434FF6F576324044F0010653
:10223000324301830284F0BD70B505460C46208808
:1022400050B92389A28861882846FFF7D8FFE18822
:102250002846FFF7CBFF25E0208804280AD12389F0
:10226000A28861882846FFF794FFE1882846FFF797
:1022700083FF17E0208808280AD12389A288618873
:102280002846FFF755FFE1882846FFF748FF09E099
:102290002389A28861882846FFF719FFE18828462C
:1022A000FFF708FF70BD002101804180012181807E
:1022B0000021C180018170472DE9F04105460C469F
:1022C00000260127608808B9022600E00026A088C1
:1022D000012801D1022700E001272088A0B9238925
:1022E000A28861882846FFF78AFFE1882846FFF721
:1022F0007DFF23893A4631462846FFF74AFFE188A9
:102300002846FFF739FF13E02389A2886188284611
:10231000FFF73FFFE1882846FFF72EFF23893A4663
:1023200031462846FFF76BFFE1882846FFF75EFF3E
:10233000BDE8F0810146486B70470146886B7047E5
:102340000146C86B70470146086C70470A884B8885
:102350001A438B881A43CB881A430B891A434B893B
:102360001A438B891A43A0F844207047002101804A
:1023700041808180C180018141818181704731B17B
:10238000B0F8442042F40042A0F8442005E0B0F840
:102390004420C2F30E02A0F84420704721B1828885
:1023A00042F00402828004E082884FF6FB731A40F8
:1023B0008280704721B1828842F00102828004E06D
:1023C00082884FF6FE731A40828070471AB1838963
:1023D0000B43838102E083898B4383817047818231
:1023E000704702460020138A0B400BB1012000E029
:1023F00000207047CA430282704730B50246002071
:1024000000230024158A05EA0103958905EA0104E1
:1024100013B10CB1012000E0002030BDCA4302829C
:10242000704741EA0203A0F8483070471AB1838927
:102430000B43838102E083898B438381704721B101
:10244000828842F00802828004E082884FF6F773A7
:102450001A408280704701894FF6F872114001815D
:1024600070470A46002101894FF68F7319401143C6
:102470000181704730B504460D4629462046FFF7D6
:10248000F0FF208940F00700208130BD2DE9F041A8
:1024900004460D4616461F46602D06D13B460122D6
:1024A00031462046FFF775FE05E03B4601223146E6
:1024B0002046FFF7A4FE29462046FFF7D2FF2089D9
:1024C00040F007002081BDE8F08130B50C460021C6
:1024D0000189C9B24FF6FF7505EA03251543254367
:1024E0002943018130BD2DE9F04105460E461746CE
:1024F0009846002443463A4631462846FFF7E5FF12
:102500002C894FF6F870044044F007044FF68F70A2
:10251000044044F070042C81BDE8F081F0B504461D
:102520000D4616461F463B46324629462046FFF7D3
:10253000CCFF208940F480402081F0BD82884FF696
:102540008F731A40828082880A4382807047028992
:102550004FF6F8731A40028102890A4302817047DC
:1025600002894FF67F731A40028102890A43028171
:102570007047F0B50C4615461E4600210022002388
:102580000189028B038C4FF6F877394021434FF6CF
:10259000FC473A4040F201173A434FF6DD773B40A3
:1025A0004FF6FF7707EA06172F433B43018102836B
:1025B0000384F0BD21B1828842F08002828004E071
:1025C00082884FF67F731A4082807047A0F85010BF
:1025D0007047000010B50446FA48844208D1012132
:1025E0001020FFF700F900211020FFF7FCF857E05A
:1025F000F548844209D101214804FFF7E3F800219E
:102600004FF40030FFF7DEF84AE0F048844209D189
:1026100001218804FFF7D6F800214FF48020FFF74E
:10262000D1F83DE0EA48844209D10121C804FFF70E
:10263000C9F800214FF40020FFF7C4F830E0E54866
:10264000844209D101210805FFF7BCF800214FF4AD
:102650008010FFF7B7F823E0DF48844208D101215A
:102660002020FFF7C0F800212020FFF7BCF817E07A
:10267000DA48844209D101218807FFF7A3F8002135
:102680004FF08040FFF79EF80AE0D548844207D11A
:1026900001214005FFF796F800216005FFF792F849
:1026A00010BD2DE9FF4705460E460024A14600BF98
:1026B000A046B08900B100BF2C8A24F44054F088B1
:1026C00004432C82AC8941F20C608443B088318988
:1026D0000843718908430443AC81AC8A24F44074F4
:1026E000B0890443AC826846FEF7FDFEB5488542DA
:1026F00002D0B948854202D1DDF80C9001E0DDF846
:102700000890A88900F4004040B109EBC90000EB33
:10271000091031684900B0FBF1F707E009EBC90087
:1027200000EB091031688900B0FBF1F76420B7FBBA
:10273000F0F004012009642101FB1078A88900F45D
:10274000004040B1322000EBC800B0FBF1F000F0D7
:102750000700044308E0322000EB08106421B0FBBE
:10276000F1F000F00F0004432C81BDE8FF874FF427
:102770001651016000218180C18001810C214181BD
:1027800000218181704710B502460020108A20F494
:1027900070600B884C8823438C882343CC88234368
:1027A0001843108210BD0021018041808180C180CA
:1027B000704721B1828942F40052828104E082890B
:1027C0004DF6FF731A4082817047028B02F47F42FC
:1027D0000283028B0A430283704721B1828942F44B
:1027E0000042828103E08289C2F30E028281704737
:1027F00021B1828A42F40062828204E0828A4FF22E
:10280000FF731A4082827047C1F3080282807047CA
:1028100001468888C0F308007047028A4FF6F073BB
:102820001A400282028A0A430282704721B18289D9
:1028300042F00202828104E082894FF6FD731A4061
:102840008281704782894FF2FF731A4082818289A8
:102850000A4382817047028A4FF6DF731A40028270
:10286000028A0A430282704721B1028A42F48042FE
:10287000028204E0028A4BF6FF731A40028270471C
:10288000818941F001018181704721B1828A42F042
:102890000802828204E0828A4FF6F7731A4082822D
:1028A0007047028BD2B20283028B42EA012202837A
:1028B000704721B1828A42F02002828204E0828A3B
:1028C0004FF6DF731A408282704721B1828A42F04C
:1028D0001002828204E0828A4FF6EF731A408282ED
:1028E0007047828A4FF6FB731A408282828A0A43BB
:1028F0008282704721B1828A42F00202828204E021
:10290000828A4FF6FD731A40828270471AB1838A19
:102910000B43838202E0838A8B4383827047F0B546
:102920000346002400260025002040F66A17B9421D
:1029300000D100BF1846C1F3421401F01F06012761
:1029400007FA06F5012C01D10C3004E0022C01D16C
:10295000103000E014301AB107682F43076002E01E
:102960000768AF430760F0BD02460020B1F5007F65
:1029700000D100BF13880B400BB1012000E0002004
:10298000704701F40072B2F5007F00D100BFCA4366
:102990000280704770B50246002400230025002005
:1029A00040F66A16B14200D100BFC1F3421501F0F2
:1029B0001F03012606FA03F3012D13D19689334034
:1029C00017E00000001001400044004000480040B3
:1029D000004C0040005000400014014000780040CE
:1029E000007C0040022D02D1168A334001E0968A15
:1029F00033400C12012606FA04F41688344013B151
:102A00000CB1012000E0002070BD10B500220023B1
:102A100040F66A14A14200D100BF0A12012494407A
:102A2000A3B2DC43048010BD10B504466FF004006F
:102A3000FDF7F0FDE11704EB5171C1F3C701394A0D
:102A400011701046007800EB4001C1EBC0104FF64A
:102A5000FF7101EAC0003449088010BD0146314AC7
:102A600012784A434FF0E0235A6100229A611A46D5
:102A7000126942F001021A6100BF4FF0E0221069B2
:102A800000F001021AB100F48032002AF5D04FF0B4
:102A9000E022126922F001024FF0E0231A610022C5
:102AA0009A6170470146204A12884A434FF0E0235A
:102AB0005A6100229A611A46126942F001021A61B3
:102AC00000BF4FF0E022106900F001021AB100F4DB
:102AD0008032002AF5D04FF0E022126922F0010284
:102AE0004FF0E0231A6100229A61704770B50446E6
:102AF0004FF4077094FBF0F0C6B24FF4077094FBEC
:102B0000F0F100FB114085B205E04FF40770FFF7CC
:102B1000C9FF701EC6B2002EF7D115B12846FFF7C7
:102B2000C1FF70BD240000202600002000BF7047B8
:102B300000BF2E4A128802F04002002AF9D0C2B229
:102B40002A4B9A80704710B588B004460121084688
:102B5000FEF79AFD01211020FEF7F0FD0722092162
:102B60002348FEF77EFB07220A212148FEF779FB66
:102B70004FF4C060069002208DF81C008DF81D00F7
:102B800000208DF81E0001208DF81F0006A91848AE
:102B9000FEF7DCFA02940020ADF80C00ADF80E0050
:102BA000ADF81000ADF814000C20ADF8120002A929
:102BB0000E48FFF776FD01210C48FFF7FAFD0122D0
:102BC00040F225510948FFF7AAFE25208DF80400A0
:102BD00003208DF805008DF8060001208DF8070010
:102BE00001A8FDF7CAFC08B010BD000000100140AC
:102BF0000000024010B504468021FE48FEF722FB8B
:102C00002046FFF773FF8021FA48FEF71DFB10BD39
:102C100010B500F02BFF4FF47A70FFF767FF00F05C
:102C2000AAFB10BD00B58FB0A820FFF7FDFE4FF442
:102C3000A060FDF79DFC01214806FEF76EFD002017
:102C40008DF836008DF837008DF8380001208DF8AA
:102C5000390000208DF83A008DF83B008DF83200E5
:102C60008DF8330008208DF8340003208DF83500EE
:102C7000ADF830000CA9E048FDF703FD00208DF809
:102C80002A008DF82B0001208DF82C000020ADF8D3
:102C90002000ADF82200ADF82400ADF82600ADF814
:102CA000280001208DF82D0008A8FDF774FD0122F1
:102CB0000221D148FEF76EF814208DF81C00012087
:102CC0008DF81D0000208DF81E0001208DF81F00DA
:102CD00007A8FDF752FC01218806FEF71EFD002023
:102CE0008DF836008DF837008DF8380001208DF80A
:102CF000390000208DF83A008DF83B008DF8320045
:102D00008DF8330008208DF8340003208DF835004D
:102D1000ADF830000CA9B948FDF7B3FC0F208DF8D1
:102D20002A0000208DF82B0001208DF82C000020B7
:102D3000ADF82000ADF82200ADF82400ADF8260073
:102D40000120ADF828008DF82D0008A8FDF723FD1F
:102D500001221021A948FEF71DF841208DF81C0022
:102D600001208DF81D0000208DF81E0001208DF837
:102D70001F0007A8FDF701FC4FF4E130FFF7E3FE69
:102D800001210846FEF7DAFC04A8FEF7B2FE002097
:102D9000ADF810004FF6FF7005900020ADF8180058
:102DA000ADF8120004A99648FEF76FFE00231A46FC
:102DB00003219348FFF7DDFB01A8FFF774FA0A200F
:102DC000ADF80C0001A98E48FFF736FA01218C48B6
:102DD000FFF710FB002201218948FFF7F7FA47F2BD
:102DE00030518748FEF79AFE01218548FEF7D6FE4E
:102DF00001210846FEF791FC04A8FEF77AFE0020A8
:102E0000ADF810004FF6FF7005900020ADF81800E7
:102E1000ADF8120004A94FF08040FEF736FE002303
:102E20001A4603214FF08040FFF7A3FB01A8FFF7EC
:102E30003AFA0A20ADF80C0001A94007FFF7FCF9A7
:102E400001218807FFF7D6FA002201218807FFF742
:102E5000BDFA47F230514FF08040FEF75FFE01218E
:102E60008807FEF79BFE0FB000BD1CB501210420B2
:102E7000FEF70AFC0F20009001208DF804000020CE
:102E80008DF8060003208DF8050000208DF807005E
:102E900069465C48FEF75AF90F215A48FEF7D2F905
:102EA00001210846FEF7F0FB8020009001208DF8FC
:102EB000040000208DF8060003208DF80500002096
:102EC0008DF8070069464B48FEF740F980214948D4
:102ED000FEF7BAF901210846FEF7D6FB4FF4C050C1
:102EE000009002208DF8040000208DF806000320D9
:102EF0008DF8050001208DF8070069463D48FEF772
:102F000025F909220B213B48FEF7ABF909220C21D8
:102F10003848FEF7A6F901210220FEF7B5FB4FF471
:102F20004050009002208DF8040000208DF806002B
:102F300003208DF8050001208DF80700694632480E
:102F4000FEF704F909220C212F48FEF78AF909221D
:102F50000D212D48FEF785F901211020FEF794FB85
:102F6000012209212948FEF77CF901220B2127487B
:102F7000FEF777F94FF42060009002208DF80400EE
:102F800003208DF8050001208DF8060069461F48D2
:102F9000FEF7DCF801210846FEF776FB012102204E
:102FA000FEF772FB012205211248FEF75AF90122B1
:102FB00003211548FEF755F92020009002208DF8D6
:102FC000040003208DF8050001208DF806006946F5
:102FD0000848FEF7BBF80820009002208DF8040096
:102FE00003208DF8050001208DF80600694606488B
:102FF0000EE0000000000240006400400068004055
:10300000000001400008024000040240001002409D
:10301000FEF79CF81CBD10B5FFF727FFFFF702FE77
:10302000FFF7F6FD6420FFF7E5FD10BD70B504461F
:103030000D4629462046FFF7E7FB00BF80212046CA
:10304000FFF792FC0028F9D070BD000010B5642095
:10305000FFF7D0FD10BD00B585B002210748FDF790
:1030600001FF20B16A4600210448FDF778FD05B054
:1030700000BD10B500F012FA10BD00000064004061
:103080002DE9F04106460F460024FE480760002067
:10309000FC49087248720820887200BF05E0315D63
:1030A000F8480B300155601C84B2082CF7DBF54959
:1030B000F548FDF75FFC0546002401E0601C84B282
:1030C0002946F148FDF7EEFC18B940F6FF7084423E
:1030D000F4DB40F6FF70844202DB0120BDE8F081A2
:1030E0000020FBE730B585B0044600252546E020EA
:1030F0008DF80B0055218DF80C108DF80D108DF802
:103100000E108DF80F108DF810108DF811100E2183
:103110008DF8121029460DF10B00FFF7B1FF05B035
:1031200030BD30B585B0044600252546E1208DF838
:103130000B0055218DF80C108DF80D108DF80E1028
:103140008DF80F108DF810108DF811101E218DF8CC
:10315000121029460DF10B00FFF792FF05B030BDAC
:1031600030B585B0044600252546E2208DF80B00D9
:1031700055218DF80C108DF80D108DF80E108DF86E
:103180000F108DF810108DF811102E218DF81210DF
:1031900029460DF10B00FFF773FF05B030BD30B5C8
:1031A00085B0044600252546E3208DF80B00552107
:1031B0008DF80C108DF80D108DF80E108DF80F1085
:1031C0008DF810108DF811103E218DF8121029463F
:1031D0000DF10B00FFF754FF05B030BD30B585B0E1
:1031E000044600252546E4208DF80B0055218DF876
:1031F0000C108DF80D108DF80E108DF80F108DF845
:1032000010108DF811104E218DF8121029460DF175
:103210000B00FFF735FF05B030BD70B586B0054631
:103220000C4600262E46E5208DF80F0055218DF81E
:1032300012108DF813108DF814108DF815105E21F2
:103240008DF81610002C08DA644244F40044210A78
:103250008DF810108DF8114004E0210A8DF810103F
:103260008DF8114031460DF10F00FFF709FF06B050
:1032700070BD70B586B005460C4600262E46E62089
:103280008DF80F0055218DF814108DF815106E2152
:103290008DF81610002C0EDA644244F00044210E22
:1032A0008DF81010210C8DF81110210A8DF81210D4
:1032B0008DF813400AE0210E8DF81010210C8DF8C6
:1032C0001110210A8DF812108DF8134031460DF1BE
:1032D0000F00FFF7D5FE06B070BD70B586B005468D
:1032E0000C4600262E46E7208DF80F0055218DF85C
:1032F00014108DF815107E218DF81610002C0EDAA2
:10330000644244F00044210E8DF81010210C8DF819
:103310001110210A8DF812108DF813400AE0210EC9
:103320008DF81010210C8DF81110210A8DF8121053
:103330008DF8134031460DF10F00FFF7A1FE06B0E6
:1033400070BD10B5F120FFF7CDFEC820FFF786FB5A
:10335000F220FFF7C7FEC820FFF780FBF320FFF73E
:10336000C1FEC820FFF77AFBF420FFF7BBFEC820A0
:10337000FFF774FB10BD10B5F120FFF7D2FEC82097
:10338000FFF76CFBF220FFF7CCFEC820FFF766FBCF
:10339000F320FFF7C6FEC820FFF760FBF420FFF71D
:1033A000C0FEC820FFF75AFB10BD10B5F120FFF793
:1033B000D7FEC820FFF752FBF220FFF7D1FEC8204E
:1033C000FFF74CFBF320FFF7CBFEC820FFF746FBCF
:1033D000F420FFF7C5FEC820FFF740FB10BD10B575
:1033E000F120FFF7DCFEC820FFF738FBF220FFF7E3
:1033F000D6FEC820FFF732FBF320FFF7D0FEC8202F
:10340000FFF72CFBF420FFF7CAFEC820FFF726FBCE
:1034100010BD10B5F120FFF7E1FEC820FFF71EFB3D
:10342000F220FFF7DBFEC820FFF718FBF320FFF7C1
:10343000D5FEC820FFF712FBF420FFF7CFFEC8200F
:10344000FFF70CFB10BD2DE9F04104460F46154671
:103450001E462146F120FFF7E0FEC820FFF7FEFAE6
:103460003946F220FFF7D9FEC820FFF7F7FA2946C0
:10347000F320FFF7D2FEC820FFF7F0FA3146F42020
:1034800004E000003401002000640040FFF7C5FEA6
:10349000C820FFF7E3FABDE8F081000010B52DED7C
:1034A000108B88B01021FA48FDF7DCFC00287DD095
:1034B00002AA0121F648FDF752FB0298112806D016
:1034C000132874D0152873D0162872D118E29DF8ED
:1034D0001200042813D19DF813008DF81C009DF8EC
:1034E00014008DF81D009DF815008DF81E009DF844
:1034F00016008DF81F00E748079901609FE19DF8CD
:1035000012000828FAD1E448406AE44908600846F5
:103510000068A0F5EA403038E14908604FF080408B
:10352000406AE04908600846006847F23051081ACE
:10353000DD49086047F230504FF080414862D6497B
:103540004862D448D0ED000AB0EE001A80EE810A3D
:10355000D648D0ED000AB0EE001AC0EE811A30EE67
:10356000210AD34880ED000A90ED000A10EE100AFF
:1035700001F0E6FF41EC1B0B9FEDCE0B53EC102B43
:1035800001F0F6FD41EC1A0B9FEDCC0B53EC102B28
:1035900001F0FEFB41EC190B01F020FB08EE100AD4
:1035A000B0EE480A01F0ECF8C64803E0C2E147E19A
:1035B0005AE1B9E1D0ED008ABB48006800EE900AFC
:1035C000F8EEE00A40EE808AB94890ED000A10EE6D
:1035D000100A01F0B5FF41EC1B0B9FEDB60B53EC4D
:1035E000102B01F0C5FD41EC1A0B9FEDB40B53EC11
:1035F000102B01F0CDFB41EC190B01F0EFFA08EEB6
:10360000100AB0EE480A01F063F9A548006800EE20
:10361000900AF8EEE00A40EEC08AAA48C0ED008A9F
:10362000A34890ED000A10EE100A01F089FF41EC6A
:103630001B0B9FEDA00B53EC102B01F099FD41ECFF
:103640001A0B9FED9E0B53EC102B01F0A1FB41ECEC
:10365000190B01F0C3FA08EE100AB0EE480A01F0A7
:1036600037F99948D0ED008A8F48006800EE900A3B
:10367000F8EEE00A40EE808A8D4890ED000A10EEE8
:10368000100A01F05DFF41EC1B0B9FED8A0B53EC20
:10369000102B01F06DFD41EC1A0B9FED880B53ECE4
:1036A000102B01F075FB41EC190B01F097FA08EEB5
:1036B000100AB0EE480A01F063F87948006800EE9D
:1036C000900AF8EEE00A40EE808A7F48C0ED008A5A
:1036D000774890ED000ADFED7D0A30EE600A10EECB
:1036E000101A084601F02CFF41EC1E0B9FED710BE8
:1036F00053EC102B01F03CFD41EC1D0B9FED6F0BCB
:1037000053EC102B01F044FB41EC1C0B01F066FA6A
:1037100008EE100AB0EE480A01F0DAF8DFED6C0AA4
:103720009FED6C1A41EE000A10EE904A204601F01F
:1037300007FF41EC1B0B634890ED000A10EE100AE6
:1037400001F0FEFE41EC180B9FED630B53EC102BC8
:1037500001F00EFD41EC190B53EC1B2B01F006FEA2
:1037600041EC1A0B01F03AFA00EE100A5C4880EDC9
:10377000000A4F4890ED000ADFED5A0A30EE600A69
:1037800010EE101A084601F0DBFE41EC1F0B9FED16
:10379000490B53EC102B01F0EBFC41EC1E0B9FEDA1
:1037A000470B53EC102B01F0F3FA41EC1D0B01F029
:1037B00015FA01909DED010A01F08AF810EE104A09
:1037C000204601F0BDFE41EC1C0B9FED470B53EC76
:1037D000102B01F0CDFC41EC1B0B9FED450B53EC86
:1037E000102B01F02DFA41EC190B374890ED000A2F
:1037F00010EE100A01F0A4FE41EC1B0B9FED360BFE
:1038000053EC102B01F0B4FC41EC1A0B53EC192BC8
:1038100001F0ACFD41EC180B01F0E0F900EE100AEC
:103820002F4880ED010A1B4890ED000A2C4880EDDE
:10383000020A184890ED000A1C4880ED000A74E066
:103840009DF813008DF81C009DF814008DF81D00E4
:103850009DF815008DF81E009DF816008DF81F00CC
:1038600025480799016060E09DF813008DF81C0061
:103870009DF814008DF81D009DF815008DF81E00B0
:103880009DF816008DF81F001C48079901604CE058
:10389000006800403400002000000140400000208B
:1038A000500000203C0000204C0000203000002090
:1038B00038000020182D4454FB210940000000006E
:1038C0000080664044000020480000209F0B934287
:1038D00000C075430080F342DEF09C762F1BA43FAE
:1038E00048010020E8691D43EC51B81E85DB5D40AE
:1038F000000000205CEF40405400002058000020F1
:103900009DF813008DF81C009DF814008DF81D0023
:103910009DF815008DF81E009DF816008DF81F000B
:1039200006480799016000E000BF00BF102104486D
:10393000FDF733FB08B0BDEC108B10BD5C00002020
:1039400000680040F0B52DED048B85B007460E46AB
:1039500000240025384601F0A2FB41EC190B9FED35
:10396000540B53EC102B01F003FC41EC180B01F04D
:1039700067FB4442304601F092FB41EC190B9FED8E
:103980004E0B53EC102B01F0F3FB41EC180B01F044
:1039900057FB45421220009008208DF80A000020B5
:1039A0008DF808008DF80900E0B28DF80B00210AAF
:1039B0008DF80C10210C8DF80D10210E8DF80E10C5
:1039C000E9B28DF80F10290A8DF81010290C8DF826
:1039D0001110290E8DF8121069463948FCF7CAFFFC
:1039E00005B0BDEC048BF0BD00B52DED028B87B0AA
:1039F000B0EE408A8DED068A1220019004208DF8E9
:103A00000E0000208DF80C008DF80D009DF81800B8
:103A10008DF80F009DF819108DF810109DF81A10F0
:103A20008DF811109DF81B108DF8121001A9244873
:103A3000FCF7A0FF07B0BDEC028B00BD00B585B060
:103A40001220009002208DF80A0000208DF8080056
:103A50008DF8090055208DF80B00FF218DF80C1012
:103A600069461748FCF786FF05B000BD10B5FFF7A3
:103A7000E5FF9FED140AFFF7B7FF00210846FFF7A7
:103A800061FF1420FFF732F89FED0E0AFFF7ACFF3D
:103A900000210846FFF756FF1420FFF727F89FED97
:103AA000090AFFF7A1FF00210846FFF74BFF10BDF1
:103AB00027A089B0E1A929408E06F01648102940B8
:103AC00000680040000000002DE9F74F2DED020BCB
:103AD0002DED0C8B88B005460C46B0EE408A9FED6C
:103AE000FA0BB0EE409AF0EE609A0020039004903A
:103AF0000590069000BFEF172E464FEAE479A046E6
:103B00009FEDF30A38EE000AB0EE408A3546A5FB79
:103B1000051207FB052206FB07224446A4FB043CD2
:103B200009FB04CC08FB09C0C91842410846CDE98D
:103B30000012114601F032FD08EE900AB1EEE80ADB
:103B40008DED020A029801F009FE82468B460021A3
:103B50008AEA01008BEA0101084306D19FEDDD0BE3
:103B6000B0EE409AF0EE609A0EE05046594601F0F1
:103B7000ADFA41EC1A0B189801F091FA53EC1A2B9C
:103B800001F006F941EC190B284601F088FA53ECD4
:103B9000192B01F0EDFA01F07FFD06460F46204695
:103BA00001F07DFA53EC192B01F0E2FA01F074FDFB
:103BB000804689469FEDC90A38EE400A10EE101A79
:103BC000084601F0BDFC9FEDC60B53EC102B01F035
:103BD000CFFA9FEDC50B53EC102B01F0D9F800F094
:103BE000FDFF08EE900AB0EE680A00F0C9FDB0EEE5
:103BF00040AA3046394601F0D1FC00EE100A2AEE08
:103C000000DA9FEDB60A38EE400A10EE101A0846A8
:103C100001F096FC9FEDB20B53EC102B01F0A8FACB
:103C20009FEDB10B53EC102B01F0B2F800F0D6FF72
:103C300008EE900AB0EE680A00F04AFEB0EE40AA24
:103C40004046494601F0AAFC00EE100A0AEE00DAEE
:103C5000BDEECD0A8DED030A9FEDA50A38EE400AB0
:103C600010EE101A084601F06BFC9FED9D0B53EC13
:103C7000102B01F07DFA9FED9C0B53EC102B01F003
:103C800087F800F0ABFF08EE900AB0EE680A00F08B
:103C900077FDB0EE40AA3046394601F07FFC00EED9
:103CA000100A2AEE00DA9FED920A38EE400A10EE72
:103CB000101A084601F044FC9FED890B53EC102BC1
:103CC00001F056FA9FED880B53EC102B01F060F8D1
:103CD00000F084FF08EE900AB0EE680A00F0F8FDEC
:103CE000B0EE40AA4046494601F058FC00EE100AEA
:103CF0000AEE00DABDEECD0A8DED040A9FED7C0AD6
:103D000038EE000A10EE101A084601F019FC9FED7B
:103D1000740B53EC102B01F02BFA9FED730B53EC4B
:103D2000102B01F035F800F059FF08EE900AB0EEC4
:103D3000680A00F025FDB0EE40AA3046394601F091
:103D40002DFC00EE100A2AEE00DA9FED690A38EE2B
:103D5000000A10EE101A084601F0F2FB9FED600B0E
:103D600053EC102B01F004FA9FED5F0B53EC102B7A
:103D700001F00EF800F032FF08EE900AB0EE680A8B
:103D800000F0A6FDB0EE40AA4046494601F006FC10
:103D900000EE100A0AEE00DABDEECD0A8DED050A3E
:103DA0009FED4E0A38EE000A10EE101A084601F098
:103DB000C7FB9FED4B0B53EC102B01F0D9F99FED96
:103DC0004A0B53EC102B00F0E3FF00F007FF08EE66
:103DD000900AB0EE680A00F0D3FCB0EE40AA30467C
:103DE000394601F0DBFB00EE100A2AEE00DA9FED07
:103DF0003B0A38EE000A10EE101A084601F0A0FB4C
:103E00009FED370B53EC102B01F0B2F99FED360B01
:103E100053EC102B00F0BCFF00F0E0FE08EE900A1F
:103E2000B0EE680A00F054FDB0EE40AA40464946A4
:103E300001F0B4FB00EE100A0AEE00DABDEECD0A86
:103E40008DED060A2B48006803990844294908604B
:103E50000846406804990844264948600846806836
:103E600005990844234988600846C06806990844B3
:103E70002049C86008B0BDEC0C8B05B0BDE8F08FE0
:103E80000FB50021009101910291039100900190E2
:103E90000290039017490968009A1144154A11606D
:103EA00011464968019A1144124A516011468968C5
:103EB000029A11440F4A91601146C968039A11444D
:103EC0000C4AD1600FBD0000000000000000F03F70
:103ED0000000000000000000000000000000074398
:103EE000182D4454FB21094000000000008066406A
:103EF000000034425401002038B504460D46CE4837
:103F00000068401CCC49086008460068A84228D1D7
:103F1000E0680090C9A094E80E0000F0D9FAD048FB
:103F200090ED020ABDEEC00A10EE103A90ED010AC3
:103F3000BDEEC00A10EE102A90ED000ABDEEC00AD8
:103F400010EE101AC7A000F0C3FAC9480368C948A8
:103F50000268C9480168C9A000F0BAFA0020B64951
:103F6000086038BDD0480021016041608160C160B7
:103F700070471FB500200090019002900390FFF75A
:103F8000F1FF9DE80F00FFF75EFA1FBD30B52DED84
:103F9000068B85B000241FED320AB0EE408A002067
:103FA0000190029003900490BF49086801F077F8EF
:103FB00041EC1A0B9FEDBD0B53EC102B01F0D8F820
:103FC00041EC190B01F03CF80190B749486801F049
:103FD00066F841EC1A0B9FEDB50B53EC102B01F07A
:103FE000C7F841EC190B01F02BF80290AE49886834
:103FF00001F055F841EC1A0B9FEDAC0B53EC102B74
:1040000001F0B6F841EC190B01F01AF80390A6493B
:10401000C86801F044F841EC1A0B9FEDA40B53EC77
:10402000102B01F0A5F841EC190B01F009F80490F0
:10403000FFF798FF0198002801DD019801E0019841
:1040400040420299002901DD029901E002994942AA
:10405000884207DD0198002801DD019809E00198F8
:10406000404206E00298002801DD029801E0029833
:1040700040420399002901DD039901E00399494277
:1040800088421FDD0198002801DD019801E00198B8
:1040900040420299002901DD029901E0029949425A
:1040A000884207DD0198002801DD019811E00198A0
:1040B00040420EE00298002801DD029809E00298D3
:1040C000404206E00398002801DD039801E00398D0
:1040D00040420499002901DD049901E00499494214
:1040E00088424FDD0198002801DD019801E0019828
:1040F00040420299002901DD029901E002994942FA
:10410000884207DD0198002801DD019809E0019847
:10411000404206E00298002801DD029801E0029882
:1041200040420399002901DD039901E003994942C6
:1041300088421FDD0198002801DD019801E0019807
:1041400040420299002901DD029901E002994942A9
:10415000884207DD0198002801DD019819E00198E7
:10416000404216E00298002801DD029811E0029812
:1041700040420EE00398002801DD039809E003980F
:10418000404206E00498002801DD049801E004980C
:104190004042044643F6982084423ADD204600F02F
:1041A0007EFF41EC1A0B53EC1A2B9FED420B51ECA6
:1041B000100B00F0EDFD41EC190B00F00FFD08EEC7
:1041C000100A9DED010AB8EEC00A20EE080ABDEE05
:1041D000C00A8DED010A9DED020AB8EEC00A20EE7C
:1041E000080ABDEEC00A8DED020A9DED030AB8EE85
:1041F000C00A20EE080ABDEEC00A8DED030A9DED4F
:10420000040AB8EEC00A20EE080ABDEEC00A8DED21
:10421000040A2A480068012802D1FFF7AAFE03E039
:1042200001A80FC8FFF70FF91E2101A8FFF764FED0
:1042300005B0BDEC068B30BD6400002076313A201D
:104240002025640976323A202025640976333A2005
:104250002025640976343A20202564090D0A0000DF
:104260004801002025640925640925640D0A000021
:10427000700000206C0000206800002074617267EC
:104280006574583A20202564097461726765745911
:104290003A2020256409746172676574413A2020D0
:1042A0002564090D0A00000054010020AE47E17AA0
:1042B00014AE094000000000004CCD40600000201A
:1042C0007D49486270477C49486670477A49C1F821
:1042D000A4007047F0B502460B46002400250026D6
:1042E000D362576AD06A3F1A5763506B002801DDCA
:1042F000506B01E0506B40429769B84202DA0027E8
:10430000576327E0506B002801DD506B01E0506BD4
:104310004042176AB84201DA01211BE0D2E90707DF
:104320000744506B002801DD506B01E0506B4042A8
:1043300087420EDDD769506B002801DD506B01E02C
:10434000506B4042381A176A3844D76990FBF7F12E
:1043500000E00021D76B506B00FB0177D7635769F2
:10436000D06BB84202DD5769D76307E057697F42D7
:10437000D06BB84202DA50694742D7631768506B76
:1043800000FB07F45768D06B00FB07F5D2E90A7011
:10439000381A976800FB07F6642094FBF0F0642756
:1043A00095FBF7F73844642796FBF7F707449763C4
:1043B000D768906BB84202DDD768976305E017694C
:1043C000906BB84201DA17699763D76A9762576BA7
:1043D0001763906BF0BD10B538480068FFF773FFA6
:1043E000374890ED000ABDEEC00A10EE101A3248B0
:1043F0004030FFF76FFF04463148D0ED020AB0EEBF
:10440000600A224600210120FFF75EFB10BD10B5B7
:104410002C480068FFF75AFF294890ED010ABDEECD
:10442000C00A10EE101A24488030FFF753FF0446EC
:104430002348D0ED020AB0EE600A22460121002096
:10444000FFF742FB10BD10B51F480068FFF73BFFA8
:104450001B4890ED020ABDEEC00A10EE101A164875
:10446000FFF738FF04462046FFF70AFD10BD2DE98F
:10447000F04F09AC94E8F010DDE90F9ADDF83880D0
:10448000DFF834B0CBF80000CBF80810CBF80C20E4
:10449000CBF81030CBF84040CBF84850CBF84C600C
:1044A000CBF85070CBF880C0CBF88880CBF88C90DC
:1044B000CBF890A0BDE8F08F7400002068000020C9
:1044C000480100206C0000207000002070470000B0
:1044D0000FB4044910B503AA029800F0DDF810BC2F
:1044E0005DF814FB280000202DE9F0410E4604463B
:1044F000002020622046E168884730B3252805D097
:10450000D4E901219047206A401CF2E7E168204687
:1045100000278847050018D0A5F14100192802D8C6
:1045200020354FF400673246294620462760FBF7C6
:1045300085FE40B1012804D0F61D26F00706083696
:10454000D8E7361DD6E72846DAE7206ABDE8F081CD
:104550002DE9F0410646002410687529314616A55C
:1045600010D0AFF30080002802DA404213A507E024
:1045700031688A0701D512A502E0490704D511A5C3
:10458000012401E0AFF3008000210A2206F1240794
:1045900009E0B0FBF2FCB0FBF2F302FB1C00303090
:1045A00078541846491C0028F3D123462A46304641
:1045B000BDE8F04100F017B8000000002D00000039
:1045C0002B000000200000007047704770477047C4
:1045D00010B500F073F8006810BD10B5044600F087
:1045E0006DF8046010BD2DE9F0470D4699469246DE
:1045F000044600F124080168880604D5E06921F02A
:104600001001216000E00120A84201DD471B00E00D
:104610000027A1697A1902EB0900081AA061207825
:10462000C00602D42046AFF30080002608E0D4E99B
:1046300001211AF806009047206A401C761C20626F
:104640004E45F4DB2078C0060AD52046AFF3008043
:1046500006E0D4E9012130209047206A401C206206
:10466000381EA7F10107F4DC07E0D4E9012118F8AE
:1046700005009047206A401C2062281EA5F1010514
:10468000F3DC2046AFF300802078000602D502203C
:10469000BDE8F0870120FBE7074B70B50D467B4472
:1046A00000F015F80446284600F024F810B14FF049
:1046B000FF3070BD204670BD8FE4FFFF004870479B
:1046C0006401002001694A1C02610878704700B546
:1046D0008FB0CDE901310021059105497944CDE93B
:1046E000031011466846FFF7FFFE0FB000BD000043
:1046F000E5FFFFFF007B00F0800070470048704737
:10470000640100207546FFF7F9FFAE4605006946D3
:10471000534620F00700854618B020B5FBF716FF7A
:10472000BDE820404FF000064FF000074FF00008B2
:104730004FF0000B21F00701AC46ACE8C009ACE833
:10474000C009ACE8C009ACE8C0098D467047044612
:10475000AFF300802046FBF785FD4100080218BF3B
:1047600004200A0E18BF40F001004FF07F4232EAE9
:10477000010108BF40F00200012808BF0520704772
:1047800010EE101A08B5444A6846B2EB410F28D91A
:104790004FF0E640B0EB410F94BF00204FF0FF30E8
:1047A00000900098002861DB60EE000A10F0010F15
:1047B00045D010F0020FDFED391A9FED391A00EEE7
:1047C000E11ADFED381A40EE811A21EEA01AF0EE60
:1047D000400A40EE010A08BFF1EE600AB0EE600A3E
:1047E00008BD314B21F0004293423CD911F0004FFB
:1047F000DFED2E0A20EE201ADFED2D0A19BF31EE73
:10480000601A71EE200A31EE201A71EE600ABDEED8
:10481000E01A11EE100A9FED271A00F0030000EED7
:10482000C10A9FED251A009000EEC10A9FED231AE0
:1048300000EEC10A9FED221A00EEC10AB1E79FED1A
:10484000211A9FED210A10F0020F00EE810A9FED60
:104850001F1A00EE801AB7EE000A00EE810A18BF98
:10486000B1EE400A08BD00F00FF99AE710EE100A09
:104870004000B0F17F4F3CBFB7EE000A08BD07D142
:104880004FF00100FFF7A9FEBDE8084000F0ECB8CA
:10489000BDE8084000F0E4B8B61F927E336D4C3995
:1048A000DA82083CA0AA2ABE490E494683F9223F73
:1048B0000000004B0000C93F00A0FD390020A233DA
:1048C0001A61342CB93AB2BACA9F2A3DDDFFFFBE45
:1048D00000B510EE101A2DED028B81B0524A6846D9
:1048E000B2EB410F2ED94FF0E640B0EB410F94BF31
:1048F00000204FF0FF3000900098B0EE408A002872
:104900006ADB10F0010F4BD068EE080A9FED471AE2
:104910009FED470A00EE810A9FED461A10F0020F44
:1049200000EE801AB7EE000A00EE810A02BF01B065
:10493000BDEC028B00BD00BF01B0B1EE400ABDEC82
:10494000028B00BD3C4B21F00042934241D911F053
:10495000004FDFED3A0A20EE201ADFED390A19BFC9
:1049600031EE601A71EE200A31EE201A71EE600A03
:10497000BDEEE01A11EE100A9FED321A00F00300AE
:1049800000EEC10A9FED301A009000EEC10A9FEDC3
:104990002F1A00EEC10A9FED2E1A00EEC10AABE7F6
:1049A00028EE080A9FED2B1ADFED2B0A10F0020FFC
:1049B00040EE410A9FED291A00EE201A61EE000A2E
:1049C000B0EE480A08EE200AB6D101B0BDEC028B69
:1049D00000BD00F059F88FE718EE100A4000B0F162
:1049E0007F4F0DD218EE100AFFF7B7FE042808BF5C
:1049F00000F042F8B0EE480A01B0BDEC028B00BDF9
:104A000009D10120FFF7E9FD01B0BDEC028B5DF893
:104A100004EB00F029B801B0B0EE480ABDEC028BFF
:104A20005DF804EB00F01CB8B61F927EB93AB2BA3A
:104A3000CA9F2A3DDDFFFFBE490E494683F9223F4A
:104A40000000004B0000C93F00A0FD390020A23348
:104A50001A61342C336D4C39DA82083CA0AA2ABE84
:104A600030EE000A70470000DFED020A80EEA00A77
:104A700070470000000000009FED020A20EE000ACF
:104A800070470000000000102DE9F0014FF07F4258
:104A9000B2EB410F9FBF4FF0FF310160BDE8F00165
:104AA00070474FF0004242EA0123C1F3C752783AFF
:104AB000551112F01F0C434CCCF120067C44C1F37D
:104AC000C752A2F178024FEA621204EB820254F854
:104AD000254008BFD2E9015612D0556804FA0CF4FB
:104AE00025FA06F73C43976805FA0CF527FA06F80D
:104AF000D26807FA0CFCF24045EA08054CEA0206C7
:104B0000A4FB034CA5FB0352A6FB03631D449D427B
:104B100034BF012600261319334416B1934202D93B
:104B200003E0934201D2012200E00022624402F13C
:104B3000200C9206DC0C42EA443200EE102A5B03A1
:104B4000DFED210AF8EEC01A00EE103A4FEA9C1C85
:104B500011F0004FB8EE400AC0F800C020EE201A55
:104B600000EE105ADFED190AB8EE400A20EE200AD6
:104B700071EE810A70EE800A10EE902A02F5006252
:104B80006FF30B0200EE902A70EEE11A31EEC11ABB
:104B9000DFED101A30EE411A9FED0D0A20EE800A6B
:104BA00001EE210A9FED0C1A00EE810A04BFBDE858
:104BB000F0017047CCF180510160BDE8F001B1EE29
:104BC000400A7047240D0000000000360000802CD1
:104BD00022AAFD29DB0FC92F0000C92F21F00042B6
:104BE000A2F16052B2F5801F01F0004328BFD2F15C
:104BF0007F6C0BD95FEA001C43EAC20242EB5070A3
:104C000018BF704728BF20F001007047B2F5801F21
:104C1000BCBF184670474FEA410C1CF5001F02D27A
:104C2000084600F033BD70B500F04CFB0000008971
:104C3000FFF7F6BF4FF00040A0F58000704700007E
:104C400010B591EA030F48BF83F0004300F196834B
:104C5000841A71EB030C05D2121943EB0C03001BF1
:104C600061EB0C01DFF824E14FEA1154A4EB135C73
:104C70001EEA430F18BF9EEA445F73D023EA0E0377
:104C8000DCF1200E21EA045143F4801332D322FADE
:104C90000CFE10EB0E0023FA0CFE41EB0E01CCF1E2
:104CA000200E03FA0EFE10EB0E0051F10001B1F5DB
:104CB000801FCCF1200E32D201EB045112FA0EF219
:104CC000BDE8104058BF7047401C38BF5FEA420241
:104CD00018BF7047002814BF20F0010041F1000107
:104CE0004FEA410313F5001F38BF7047A1F1C041DF
:104CF00000F036BB012A43EB0302ACF1200CDCF1DF
:104D00001F0E32BF4FF0000E23FA0CF310EB03001E
:104D100041EB0451B4EB115FD0D0A1EB045101F58C
:104D2000801149085FEA300001EB04510ED350F1C5
:104D3000000038BF12FA0EFE08D1BDE81040C9E7E6
:104D4000401C38BF5FEA4202CAD1C3E7BDE8104049
:104D50004FEA410313F5001F38BF7047A1F1C0416E
:104D600000F0FEBA9EEA445F08D011EA5E0FBDE88B
:104D7000104004BF01F0004100207047BDE8104022
:104D800070B500F09FFA00BF64FBBE3E0000E0FF7C
:104D90002DE9C04130B4DFF8A0C23CEA111418BFBD
:104DA0003CEA131400F0EC8081EA03051CEA1114BC
:104DB00044EAD57418BF1CEA131500F0C780A4EBB1
:104DC00005044FF0004545EAC12145EAC32341EA05
:104DD000505143EA525304F17F74994204F5003470
:104DE0004FEAC0204FEAC22208BF904200F09C80E8
:104DF0004FEA13650FF24016765D4FEA134506FB46
:104E000005F7C7F1807706FB07F74FEAD737A7FB0F
:104E100003687642C8F58038A7FB06CE38BFA8F1F4
:104E2000010807FB08E64FF0000EA6FB028CE6FB2C
:104E300003CEDCF1000CCEF1004E38BFAEF1010E16
:104E4000A6FB0C584FF000074FF00005E6FB0E875D
:104E5000A1FB08C6A0FB07CE16EB0E0645F1000528
:104E6000E1FB076515F1E04E7EBFA4F580345FEAF3
:104E700046066D4116F1800745F100054FEA1727F8
:104E80004FEA066647EA0567A6F1DE46B6F1805F9F
:104E90004FEA15251FD9384624F0010C05EBC471E3
:104EA000BCF1FE6F01EB0C1102D8F0BCBDE8008133
:104EB00024425CBF01F5801E9EEAC47F02D4F0BC90
:104EC000BDE80081244238D4F0BCA1F1C041BDE866
:104ED000004100F045BA4FEAD22242EA43524FEA7B
:104EE000D323A7FB02864FEAD02040EA415007FBBC
:104EF00003661EEA0E0F4FEAD12105FB026658BF7A
:104F0000A6EB0056B6EB00564FEA520E4EEAC37EB1
:104F100018EB0E0E56EB530EBDD518EB02085E4192
:104F20007F1C55F10005B6E74FF480154FF00007E0
:104F30004FF000064FF00008ADE7F0BC4FF0000066
:104F400001F1C04101F00041BDE8008111EA0C1FF0
:104F50000CEA131500D00CE013EA0C1F00F02580BA
:104F60004FF00000F0BC81EA030101F00041BDE810
:104F70000081F0BCBDE8004181EA030100F0F0B916
:104F8000F0BCBDE8004170B500F09CF9097EFC3E24
:104F900000F007B881EA03014FF0000001F0004182
:104FA000704781EA030100F0DBB9F0BCBDE80041C5
:104FB0004FF0000021497047FFFDFBF9F7F5F4F2CF
:104FC000F0EEEDEBE9E8E6E4E3E1E0DEDDDBDAD8A4
:104FD000D7D5D4D3D1D0CFCDCCCBCAC8C7C6C5C402
:104FE000C2C1C0BFBEBDBCBBBAB9B8B7B6B5B4B319
:104FF000B2B1B0AFAEADACABAAA9A8A8A7A6A5A404
:10500000A3A3A2A1A09F9F9E9D9C9C9B9A999998C7
:105010009797969595949393929191908F8F8E8E6A
:105020008D8C8C8B8B8A89898888878786858584F7
:1050300084838382828181800000FF070000F87FE3
:105040004FEA41034FEA5353A3F58063D3F11E03A4
:10505000C8BFD3F1210C0CDD4FF0004242EAC1225F
:1050600042EA505232FA03FC8CEAE17CACEBE1708C
:105070007047102BC4BF0020704703F5787CBCF14B
:10508000FF3F04D06FF0004282EA2100704770B504
:1050900000F018F94992248000207047F2E710F0E0
:1050A000004248BF4042B0FA80F310FA03F10AD040
:1050B000C3F11D0303F580634FEA415002EB035235
:1050C00002EBD12170474FF0000070477FEAE17298
:1050D00002D1101A62EB0101B1FA81F30B3B24D328
:1050E000994012D1B0FA80F310FA03F108BF70476B
:1050F000C3F11D0303F5406303EBC2234FEAD12242
:105100004FEA415002EB03517047C3F1200C20FAE3
:105110000CFC9840C3F1320303F5406303EBC22358
:1051200041EA0C0101EB0351704710B5C3F1320C99
:10513000C3F10004C4F1200E0CF5406C0CEBC2224C
:1051400001FA0EFC21FA04F100FA0EF3E040BDE88A
:10515000104040EA0C0001EB025138BF7047401C80
:1051600041F100015B0008BF20F001007047000022
:10517000DFF848C170B51CEA111E1EBF1CEA1315EA
:105180009EEA0C0F95EA0C0F00F06F8081EA030491
:1051900023EA4C134EEAD47E21EA4C1141F48011EB
:1051A00043F48013AE44A1FB024CA0FB0365AEF1B7
:1051B0007F7E361955EB0C05A1FB034C4CF1000327
:1051C000A0FB021C16EB0C06654153F100030942DB
:1051D00018BF46F0010613F4007F0BD14FEA0331EC
:1051E0004FEA0530340341EA155140EA16506FF09A
:1051F00003020AE04FEAC3214FEAC520F40241EA64
:10520000555140EA56506FF0020202EB2E4201EB7C
:10521000025585EACE710AD05FEA440C18BF24F02B
:10522000004450F1000041F1000120EAD47040F246
:10523000FE7C624500D270BDA84214BF4FF080448E
:105240004FF04044002E08BF0024BEF1806FA8BF7D
:10525000A1F1C041BDE8704080F282804FF00000B3
:1052600001F1C04101F0004170479EEA0C0F0CEAC9
:10527000131518BF95EA0C0F06D04FF0000081EA15
:10528000030E0EF0004170BD00F01CF88900013ED5
:1052900000F007B800F009B84FEA430C5FEA5C5C25
:1052A00008D081EA030100F05BB84FEA410C5FEAE5
:1052B0005C5CF6D14FF00000014970470000FF0729
:1052C0000000F87F0EF1020E2EF0030E5EF8046B64
:1052D000364205D4012A43EB030515F5001F12D809
:1052E000012841EB010C1CF5001F0CD80ED14FEA30
:1052F000D17C15F5001F0CEB4C0C0CF1020C08BF17
:105300004CEBD37C04E04FF0080C01E04FEAD37C77
:105310000CEB4C0526FA05F606F00706B6F1040C70
:1053200006D20EEB860CBDE870404CF0010C6047D5
:10533000DFE80CF0090B02024FF000414FF00000D3
:10534000A1F5002170BD19461046012851EB01045A
:1053500018BFD4F5001484BF002001F0004170BDD7
:105360000808A0F500114FEA3101704710B591EA25
:10537000030F48BF83F000433FF56AAC841A71EB1A
:10538000030C07D212198CF0004C43EB0C03001BEA
:1053900061EB0C01DFF8A4E14FEA1154A4EB135CBC
:1053A0001EEA430F18BF9EEA445F00F0B08023EA74
:1053B0006E03524221EA0451C3EB6E0338BF5B1EF9
:1053C000DCF1200E25D322FA0CFE10EB0E0043FA7E
:1053D0000CFE41EB0E01CCF1200E03FA0EFE10EB99
:1053E0000E0051F10001CCF1200E29D412FA0EF278
:1053F00001EB0451BDE8104058BF7047401C1CBF72
:10540000B2F1004F704700280CBF491C20F001008A
:10541000704712EB020E43EB030218BF4FF0010E70
:105420004EEA4202ACF1200CDCF11E0E54D943FAD4
:105430000CFE10EB0E0051F1FF31CCF11E0ED5D554
:105440000EF1010E12FA0EFE404141EB010101EB9B
:10545000445C5FEA5C5C10D910EBDE7001EB045138
:1054600038BFBEF1004FBDE8104018BF704700289C
:105470000CBF491C20F00100704730D24FEAD42CF9
:1054800011F5001124F400641BD0B1FA81F20B3A3B
:10549000A41AA41ED2F12003914030FA03F3194359
:1054A000904001EBCC71002C01EB0451BDE81040A1
:1054B000A8BF704701F1C0414FF0000001F000416A
:1054C0007047B0FA80F310FA03F100D110BDE41A6E
:1054D000173C4805C90AE4E701EB045110BD491027
:1054E00001EB0451BDE810404FEA300002E04FF0FC
:1054F000000170474A0008BF0042F8D0B2F5001F13
:1055000028BF704701F000414FF0000070479EEA4D
:10551000445F07D011EA5E0FBDE8104004BF0021D0
:1055200000207047BDE8104070B5FFF7CBFE00BF0C
:1055300040DFF63E83F00041104670470000E0FF78
:1055400043004FEAD30C4FEA3C0C43401FBF4007D7
:105550000CF1605113F0FE4F70471CF0006F03D147
:1055600000200CF0004170470CF0004343EA5070FB
:1055700010B540EACC0000F03EF800BF00000092F9
:105580004FEA0001FFF7ECBE4FF000414FF0000082
:10559000A1F5002170474FF07E5209E011F0004262
:1055A00004D54042C1F1000138BF491E42F07E528D
:1055B0000B0002F1706212BF20235FEA0001704706
:1055C000B1FA81FCA3EB0C0301FA0CF120FA03FC05
:1055D00002EBC352C3F1200341EA0C0110FA03FCB1
:1055E0005CEA416C42EB112018BF5FF0806C28BF71
:1055F00020F0010070470EF1020E2EF0030E5EF84F
:10560000044B244204D44FEA4102B2F17F4F11D837
:105610004FEA4003B3F17F4F0CD80ED14FEAD07C54
:10562000B2F17F4F0CEB4C0C0CF1020C08BF4CEBB1
:10563000D17C04E04FF0080C01E04FEAD17C0CEB88
:105640004C0324FA03F404F00704B4F1040C06D26A
:105650000EEB840CBDE810404CF0010C6047DFE815
:105660000CF0070802024FF00040A0F5800010BDCA
:105670000846420018BFD2F1807288BF00F0004097
:1056800010BD4FF04070E1EE100A7047FF2141EA73
:10569000D050C005704700004FEAC1230A1543EA05
:1056A00050534FEAC02C18BF43F000431BD4A2F262
:1056B0004E02D2F57C7240F34280502AA8BF50229D
:1056C00023FA02F12CFA02F0D2F1200260B403FABC
:1056D00002F588BF2843C2F1000223FA02F598BF01
:1056E000284360BC704702F57C7212F5826F08BFD8
:1056F00023F00043D2F12E0221DB1AD0502AA8BF9A
:10570000502223FA02F12CFA02F0D2F1200260B406
:1057100003FA02F588BF2843C2F1000223FA02F51A
:1057200098BF284360BC4042C1F1000138BF491E08
:1057300070479CF0000F08BF93F0004FDED070B5AB
:10574000FFF7C0FD9224498000214FF00000704710
:105750006FEAE17080F0004170470000C2154FEA27
:10576000002318BF43F0004300F11080D2F1BE02C5
:1057700040F2288023FA02F1B2F1200C2EBF23FA66
:105780000CF0C2F1200C03FA0CF07047B0F15F4F3F
:1057900000F2188012F0FF0208BF23F00043C2F1AC
:1057A000BE0223FA02F1B2F1200C2EBF23FA0CF054
:1057B000C2F1200C03FA0CF04042C1F1000138BFE5
:1057C000491E704710B5FFF716FF00BF92244980AD
:1057D00000204FF0000170476FEAE07080F0004158
:1057E00070470000000000006E83F9A22915444EA6
:1057F000D15727FCC0DD34F5999562DB4190433CDD
:10580000AB6351FE24580008000000203401000062
:10581000C40100085C580008340100209406000010
:105820002002000811847A030A68090102030406B1
:105830000708090CA910011C000928A31552456985
:1058400085A5C363E8032979290C5E18FCFFFF20B6
:0C58500014321E0A311440691409624031
:040000050800018965
:00000001FF
