:020000040800F2
:1000000090360020B1040008890200088B02000825
:100010008F02000893020008970200080000000009
:100020000000000000000000000000009B0200082B
:100030009D0200080000000013C30008CD2900083D
:10004000CB040008CB040008CB040008CB04000854
:10005000CB040008CB040008CB040008CB04000844
:10006000CB040008CB040008CB040008CB04000834
:10007000CB040008CB040008CB040008CB04000824
:10008000CB040008CB040008CB040008CB04000814
:10009000A3300008CB040008CB040008CB04000800
:1000A000CB040008CB040008CB040008CB040008F4
:1000B000CB040008CB040008CB040008CB040008E4
:1000C000CB040008CB040008CB040008CB040008D4
:1000D000CB040008AF2B0008CB040008CB040008B9
:1000E000CB040008CB040008CB040008CB040008B4
:1000F000CB040008CB040008CB040008CB040008A4
:10010000CB040008CB040008CB040008CB04000893
:10011000CB040008CB040008CB040008CB04000883
:10012000CB040008CB040008CB040008CB04000873
:10013000CB040008CB040008CB040008CB04000863
:10014000CB040008BF300008CB040008CB04000833
:10015000CB040008CB040008CB040008CB04000843
:10016000CB040008CB040008CB040008CB04000833
:10017000CB040008CB040008CB040008CB04000823
:10018000CB040008CB04000800F002F800F049F8A6
:100190000AA090E8000C82448344AAF10107DA45E2
:1001A00001D100F03EF8AFF2090EBAE80F0013F0EB
:1001B000010F18BFFB1A43F001031847D8C900000C
:1001C000F8C90000103A24BF78C878C1FAD852079D
:1001D00024BF30C830C144BF04680C6070470000C1
:1001E0000023002400250026103A28BF78C1FBD840
:1001F000520728BF30C148BF0B60704766290CF01A
:10020000B382002070471FB50CF0A9FA0BF014FB65
:100210000400002000210CF0D7F8E0601FBD10B5ED
:1002200010BD0BF025FC1146FFF7EDFF00F008F8BC
:100230000BF043FC03B4FFF7F2FF03BC02F058FCE1
:1002400008B50024A82002F0CDFB4FF4E13002F005
:100250005CFC02F006FF684603F015FC00BF00BF1F
:1002600003F0AAFB044600BF00BF68460AF055FF32
:1002700000BF00BF204603F0A3FB00BF00BF6846DD
:1002800003F015FE00BFFEE7704700BFFEE700BFAA
:10029000FEE700BFFEE700BFFEE7704770470000C3
:1002A0000CB50020019000907648006840F4803042
:1002B0007449086000BF7348006800F40030009083
:1002C0000198401C0190009818B90198B0F5A04F12
:1002D000F1D16C48006800F4003010B101200090AA
:1002E00001E0002000900098012846D16548403088
:1002F000006840F0805063494031086062480068FF
:1003000040F44040604908605E48083000685D493C
:10031000083108600846006840F40040086008465C
:10032000006840F4A05008605848091F0860081F82
:10033000006840F08070091F086000BF51480068E5
:1003400000F000700028F9D040F2057050490860B4
:100350004C480830006820F003004A490831086022
:100360000846006840F00200086000BF45480830B9
:10037000006800F00C000828F8D10CBD10B5454805
:10038000006840F47000434908603E48006840F04F
:1003900001003C49086000203A49083108603948AA
:1003A00000683D490840374908603C48091D08601D
:1003B000081F006820F48020091F086000203149D0
:1003C0000C310860FFF76CFF4FF000603149803955
:1003D000086010BD70B50020002202230024022115
:1003E000284D08352D6805F00C0020B1042806D0F2
:1003F000082834D107E02A4D2A4E356033E02A4DD3
:10040000284E35602FE01F4D2D1D2D68C5F38054FB
:100410001C4D2D1D2D6805F03F0154B1224DB5FB3B
:10042000F1F5184E361D3668C6F3881605FB06F240
:1004300009E01B4DB5FBF1F5124E361D3668C6F3CB
:10044000881605FB06F20F4D2D1D2D68C5F30145DD
:100450006D1C6B00B2FBF3F5124E356003E0104DDE
:10046000104E356000BF00BF064D08352D68C5F33E
:1004700003150E4E705D0B4D2D68C540094E35605D
:1004800070BD000000380240007000400854400772
:10049000003C024088ED00E0FFFFF6FE1030002433
:1004A0000024F4000000002000127A000400002064
:1004B0000948804709480047FEE7FEE7FEE7FEE7F8
:1004C000FEE7FEE7FEE7FEE7FEE7FEE70448054934
:1004D000054A064B704700007D03000889010008AB
:1004E0009030002090360020903200209032002082
:1004F00032490143324A1160704770B50021002330
:100500000F22C4781CB32E4C246804F4E064C4F5B4
:10051000E064C4F30721C1F10404E3B20A41447862
:100520009C40E1B28478144021430C07210E254CF5
:1005300005786155047804F01F050124AC40057866
:100540006D11AD0005F1E025C5F8004109E0047822
:1005500004F01F050124AC401B4D0678761145F8C8
:10056000264070BD194A0A400243154B1B1F1A60F2
:10057000704739B1124A121D12680243104B1B1DFD
:100580001A6006E00E4A121D126882430C4B1B1DB6
:100590001A607047042808D14FF0E021096941F042
:1005A00004014FF0E022116107E04FF0E0210969FA
:1005B00021F004014FF0E022116170470000FA05BC
:1005C0000CED00E000E400E080E100E080FFFF1FB0
:1005D00010B50446FE48844209D10121480601F0C5
:1005E000B1F800214FF0007001F0ACF808E00121F3
:1005F000880601F0A7F800214FF0806001F0A2F812
:1006000010BD30B5024600200023146824F0020417
:100610001460146844F00104146000E05B1C54682A
:1006200004F001041CB94FF6FF74A342F6D15468DC
:1006300004F001040CB900206CE08C79012C04D189
:10064000146844F08004146003E0146824F080040B
:100650001460CC79012C04D1146844F04004146077
:1006600003E0146824F0400414600C7A012C04D1D7
:10067000146844F02004146003E0146824F020049B
:1006800014604C7A012C04D1146844F010041460F6
:1006900003E0146824F0100414608C7A012C04D157
:1006A000146844F00804146003E0146824F008049B
:1006B0001460CC7A012C04D1146844F00404146052
:1006C00003E0146824F0040414608C78A407CD7847
:1006D00044EA05640D7944EA05444D7944EA055439
:1006E0000D886D1E2C43D461146824F0010414603D
:1006F000002300E05B1C546804F001041CB14FF6B9
:10070000FF74A342F6D1546804F001040CB1002038
:1007100000E0012030BD10B50021837A012202FAE9
:1007200003F1AC4A126842F00102AA4B1A60A94ACE
:100730001C3212688A43A74B1C331A60027BCAB969
:10074000A44A0C3212688A43A24B0C331A604288C6
:10075000C38842EA03439F4A4032847A42F83430E5
:100760000288838842EA03439A4A4032847A02EB41
:10077000C4025360027B012A19D1964A0C321268D6
:100780000A43944B0C331A604288038842EA0343BD
:10079000904A4032847A42F83430C288838842EAF0
:1007A00003438C4A4032847A02EBC4025360C27A1B
:1007B0003AB9884A121D12688A43864B1B1D1A607B
:1007C00006E0844A121D12680A43824B1B1D1A6000
:1007D000028932B97F4A143212688A437D4B14333E
:1007E0001A600289012A06D17A4A143212680A4331
:1007F000784B14331A60427B012A06D1754A1C32A9
:1008000012680A43734B1C331A60724A126822F052
:100810000102704B1A6010BD00218171C17101721B
:1008200041728172C1728170C17003210171022114
:1008300041710121018070476649096841F0010159
:10084000644A11601146096843F60E729143614A89
:1008500011601146096841EA0021116011460968DA
:1008600021F001011160704721B1026842F4803229
:10087000026003E0026822F4803202607047E1B156
:10088000026842F0800202604FF4C272125842F4D1
:1008900080734FF4C27213504FF4CA72125842F46C
:1008A00080734FF4CA7213504FF4D272125842F44C
:1008B00080734FF4D27213501BE0026822F0800262
:1008C00002604FF4C272125822F480734FF4C27265
:1008D00013504FF4CA72125822F480734FF4CA7244
:1008E00013504FF4D272125822F480734FF4D27224
:1008F0001350704710B502460020936803F08063E0
:10090000B3F1806F00D110E0936803F00063B3F19E
:10091000006F01D1012008E0936803F08053B3F128
:10092000805F01D1022000E00420042879D002F584
:10093000C07303EB00131B6803F0010402F5C073DE
:1009400003EB00131C600B7A7BB94B7A0C8843EAEB
:10095000445302F5C07404EB00142468234302F5E9
:10096000C07404EB0014236010E00B7A4C6843EA77
:10097000C4034C7A234302F5C07404EB00142468CA
:10098000234302F5C07404EB001423608B7A03F058
:100990000F038B7202F5C07303EB00135B6823F047
:1009A0000F0402F5C07303EB00135C6002F5C07323
:1009B00003EB00135B688C7A234302F5C07404EBED
:1009C000001463608B7B1C064B7B44EA034403E00A
:1009D00000640040006600400B7B44EA0323CC7AAD
:1009E000234302F5C07404EB0014A3608B7C1C0647
:1009F0004B7C44EA03440B7C44EA0323CC7B234333
:100A000002F5C07404EB0014E36002F5C07303EB5D
:100A100000131B6843F0010402F5C07303EB0013DD
:100A20001C6010BD10B50246002321B1012907D07A
:100A300002290FD109E09068F94C00EA04030BE0A9
:100A40009068F84C00EA040306E09068F64C00EA6F
:100A5000040301E0002300BF00BFF44C181BA342B5
:100A600016D007DC83B16FF08060184470B10228A3
:100A700018D111E0B0F5007F10D0ED4C204448B102
:100A8000B0F5003F0ED10BE002230DE000230BE098
:100A9000002309E0002307E0012305E0012303E030
:100AA000012301E0002300BF00BFD8B210BD21B177
:100AB000012907D002290FD109E0826842F08002A3
:100AC00082600AE0826842F40042826005E0826847
:100AD00042F40002826000E000BF00BF704710B522
:100AE00000F5D87303EB01131B6803F004031372C2
:100AF000137A53B900F5D87303EB01131B6840F266
:100B0000FF7404EA5353136009E000F5D87303EB54
:100B100001131B686FF0604404EAD303536000F5CF
:100B2000D87303EB01131B6803F00203537200F543
:100B3000D87303EB01135B6803F00F03937200F5A6
:100B4000D87303EB01135B681B0AD37400F5D873E9
:100B500003EB01139B68D37200F5D87303EB011309
:100B60009B681C0A147300F5D87303EB01139B6890
:100B70001C0C547300F5D87303EB01139B681B0E18
:100B8000937300F5D87303EB0113DB68D37300F59F
:100B9000D87303EB0113DB681C0A147400F5D873D7
:100BA00003EB0113DB681C0C547400F5D87303EBE2
:100BB0000113DB681B0E937421B9C36843F0200353
:100BC000C36003E0036943F02003036110BD21B952
:100BD000C26842F02002C26003E0026942F02002D3
:100BE000026170470246002019B9D36803F0030080
:100BF00006E0012903D1136903F0030000E000209F
:100C0000704710B502460B4600204FF6FF71BBB986
:100C1000146824F0020444F00104146000E0491E4A
:100C2000546804F00304012C01D00029F7D1546862
:100C300004F00304012C01D0002032E0012030E058
:100C4000012B13D1146824F00304146000E0491E42
:100C5000546804F003040CB10029F8D1546804F07E
:100C600003040CB100201CE001201AE0022B17D174
:100C7000146824F0010444F00204146000E0491EEA
:100C8000546804F00304022C01D00029F7D1546801
:100C900004F00304022C01D0002002E0012000E057
:100CA000002010BD014600200A6822F0010242F037
:100CB00002020A604A6802F00302022A00D10120FF
:100CC000704701464FF6FF7200200B6823F00203C5
:100CD0000B6000E0521E4B6803F00203022B01D1AF
:100CE000002AF7D14B6803F00203022B00D0012049
:100CF0007047014600208A6902F070007047014683
:100D000000208A69100E7047014600208A69C2F3EC
:100D1000074070471AB143690B43436102E04369DE
:100D20008B434361704710B50246002001F4700305
:100D300043B19369C1F3130423400BB101202DE0AB
:100D400000202BE001F0807343B15368C1F313041A
:100D500023400BB1012021E000201FE001F00063DF
:100D600043B19368C1F3130423400BB1012015E094
:100D7000002013E001F0007343B1D368C1F3130402
:100D800023400BB1012009E0002007E01369C1F303
:100D9000130423400BB1012000E0002010BD00220D
:100DA000244B994202D10023836111E0C1F3130265
:100DB00001F000730BB1C2600AE001F080630BB177
:100DC000026105E001F000630BB1826000E0426067
:100DD00070470246002002EA01030BB1012000E047
:100DE0000020704770B504460D4600266069284013
:100DF000002872D0B5F5807F69D01DDC082D42D067
:100E000006DC012D2DD0022D31D0042D7FD134E010
:100E1000102D3ED0202D42D0402D78D145E000004D
:100E20000300000400030008000003100001000894
:100E30000001FFF77000F030B5F5004F61D009DC1C
:100E4000B5F5007F4AD0B5F5806F4DD0B5F5006F90
:100E50005DD150E0B5F5803F2DD0B5F5003F56D1BE
:100E60002FE0A0685549FFF7B4FF064651E0E0685F
:100E70000321FFF7AEFF06464BE0E0680821FFF7CD
:100E8000A8FF064645E0E0681021FFF7A2FF0646EE
:100E90003FE020690321FFF79CFF064639E0206907
:100EA0000821FFF796FF064633E020691021FFF77F
:100EB00090FF06462DE060680821FFF78AFF06468E
:100EC00027E060681021FFF784FF064621E0A06953
:100ED0000121FFF77EFF06461BE01BE0A06902210F
:100EE000FFF777FF064614E0A0690421FFF771FFC2
:100EF00006460EE00BE0A0697021FFF76AFF064688
:100F000007E060680421FFF764FF064601E0002661
:100F100000BF00E00026304670BDB1F5007F3AD03A
:100F20000FDC202928D006DC01291CD004291DD083
:100F3000082940D11DE0402921D0B1F5807F3AD168
:100F400026E0B1F5004F31D006DCB1F5806F25D039
:100F5000B1F5006F2FD124E0B1F5803F12D0B1F58B
:100F6000003F28D111E0154A826025E00822C260C6
:100F700022E01022C2601FE0082202611CE0102261
:100F8000026119E00822426016E01022426013E07C
:100F90000422426010E0042242600DE0042242601C
:100FA0000AE0002282610422426005E000228261A0
:100FB0000422426000E000BF00BF70470101010051
:100FC00010B504469848844208D10121084600F033
:100FD00086FB0021012000F082FB76E093488442EA
:100FE00008D10121022000F07AFB0021022000F04C
:100FF00076FB6AE08E48844208D10121042000F08B
:101000006EFB0021042000F06AFB5EE08948844208
:1010100008D10121082000F062FB0021082000F027
:101020005EFB52E08448844208D10121102000F088
:1010300056FB0021102000F052FB46E07F4884421E
:1010400008D10121202000F04AFB0021202000F0DF
:1010500046FB3AE07A48844208D10121402000F062
:101060003EFB0021402000F03AFB2EE07548844210
:1010700008D10121802000F032FB0021802000F007
:101080002EFB22E07048844208D10121801500F037
:1010900026FB0021A01500F022FB16E06B488442DD
:1010A00008D10121401500F01AFB0021601500F065
:1010B00016FB0AE06648844207D10121001500F0C2
:1010C0000EFB0021201500F00AFB10BDF0B50A460A
:1010D00000210023002400BF3DE0012505FA01F3B3
:1010E000156805EA03049C4234D105684F000326C5
:1010F000BE40B543056015794E00B54006683543DE
:1011000005601579012D02D01579022D16D185685B
:101110004F000326BE40B543856055794E00B5406B
:10112000866835438560456801268E40B543456035
:10113000456896798E40B6B235434560C5684F0024
:101140000326BE40B543C560D5794E00B540C6689C
:101150003543C560491C1029BFD3F0BD4FF6FF7160
:1011600001600021017141718171C171704708B541
:101170004FF480320092009A0A430092009AC261B2
:10118000C161009AC261C2690092C269009208BD41
:101190000246002013690B400BB1012000E0002043
:1011A00070470146086980B27047024600205369C3
:1011B0000B400BB1012000E0002070470146486958
:1011C00080B2704701837047418370470AB1018341
:1011D00000E0418370474161704742694A40426183
:1011E0007047F0B5002300244D07ED0E02FA05F319
:1011F000CE1000F1200555F826504E07F70E0F26A9
:10120000BE40B543CF1000F1200646F82750CE105F
:1012100000F1200555F8265045EA0304CE1000F1F0
:10122000200545F82640F0BD0000024000040240C1
:1012300000080240000C024000100240001402406E
:1012400000180240001C024000200240002402401E
:1012500000280240F948006840F00100F7490860A2
:101260000020F64908310860F4480068F449084055
:10127000F2490860F348091D0860F348EF498431DA
:101280000860F0481038091D0860EC48006820F438
:101290008020EA4908600020E8490C310860E749ED
:1012A0008C31086070470021E44A921C117011468D
:1012B0000870704710B501460022002300204A1133
:1012C000012A02D1DD4C236808E0022A03D1DB4C5D
:1012D0007034236802E0D94C7434236801F01F0293
:1012E000012494401C400CB1012000E0002010BDFE
:1012F00038B5002000900024002500BF3120FFF702
:10130000D9FF05460098401C00900098B0F5A04F0A
:1013100001D0002DF2D03120FFF7CCFF08B101241D
:1013200000E00024204638BD01460020C34A106872
:1013300020F0F80040EAC10010607047C34908601F
:1013400070470021BD4A703211701170012802D01F
:1013500004280AD104E00121B84A7032117005E076
:101360000521B64A7032117000E000BF00BF70471F
:10137000B7490860704770B5049C41EA82150126A0
:10138000C6EB530645EA0645054345EA0465AB4E00
:10139000361D356070BDAD4908667047820142EA6E
:1013A0000172A64B84331A607047A849886670475B
:1013B00010B5830143EA016343EA02739F4C88340A
:1013C000236010BDA14908677047A049C8647047F1
:1013D00002460020994B0833186820F0EC6042EA7E
:1013E00001031843954B08331860704702460020EC
:1013F000924B0833186820F0784042EA0103184302
:101400008E4B083318607047014600208B4A083223
:10141000106820F0030008431060704787480830C8
:10142000006800F00C00704701460020834A083233
:10143000106820F0F000084310607047014600205B
:101440007E4A0832106820F4E0500843106070476C
:1014500001460020794A0832106820F4604040EAD2
:10146000C10010607047F0B5002100220024022561
:1014700000260223714F08373F6807F00C0121B1A5
:10148000042905D0082937D105E0724F076036E0FE
:10149000714F076033E0694F3F1D3F68C7F38056C7
:1014A000664F3F1D3F6807F03F036EB16A4FB7FBC1
:1014B000F3F7DFF888C10CF1040CDCF800C0CCF3C2
:1014C000881C07FB0CF40CE0624FB7FBF3F7DFF866
:1014D0006CC10CF1040CDCF800C0CCF3881C07FBD9
:1014E0000CF4564F3F1D3F68C7F301477F1C7D003A
:1014F000B4FBF5F7076002E0564F076000BF00BF7E
:101500004E4F08373F6807F0F0010909534F7A5CE6
:101510000768D7404760494F08373F6807F4E051F4
:10152000890A4E4F7A5C4768D7408760434F083737
:101530003F6807F46041490B484F7A5C4768D740E1
:10154000C760F0BD002100F44072B2F5407F0AD1BF
:101550003A4A0832116821F4F811414A0240114315
:10156000364A08321160354A70321268C0F30B03F4
:101570001A43324B70331A6070473549443908605A
:1015800070473349403908607047364908607047F2
:1015900001460020294A8C32106820F01F004A1EA4
:1015A0001043264A8C321060704701460020234ABF
:1015B0008C32106820F4F8504A1E40EA02201F4A7C
:1015C0008C3210607047014600201C4A8C32106833
:1015D00020F4401008431060704701460020174A6D
:1015E0008C32106820F440000843106070470146B8
:1015F0000020124A8C32106820F4403008431060FA
:10160000704719490860704739B10C4A3032126886
:1016100002430A4B30331A6006E0084A303212683F
:101620008243064B30331A607047F9B1034A3432B3
:1016300012680243014B34331A601CE00038024048
:10164000FFFFF6EA1030002400300020000047427F
:10165000800E47420024F40000127A00140000209B
:10166000FFFCFF0F5C014742E01147428F4A1268BE
:1016700082438E4B1A60704739B18C4A121D126832
:1016800002438A4B1B1D1A6006E0884A121D12682D
:101690008243864B1B1D1A60704739B1834A0C3256
:1016A00012680243814B0C331A6006E07F4A0C3209
:1016B000126882437D4B0C331A60704739B17B4A04
:1016C000103212680243794B10331A6006E0774AF1
:1016D000103212688243754B10331A60704739B16B
:1016E000724A243A12680243704B243B1A6006E0A7
:1016F0006E4A243A126882436C4B243B1A6070474E
:1017000039B16A4A203A12680243684B203B1A609A
:1017100006E0664A203A12688243644B203B1A6016
:10172000704739B1614A1C3A126802435F4B1C3B57
:101730001A6006E05D4A1C3A126882435B4B1C3B10
:101740001A60704739B1594A143A12680243574B2C
:10175000143B1A6006E0554A143A12688243534B10
:10176000143B1A60704739B1504A103A126802436C
:101770004E4B103B1A6006E04C4A103A1268824306
:101780004A4B103B1A60704739B1484A1C32126804
:101790000243464B1C331A6006E0444A1C3212686E
:1017A0008243424B1C331A60704739B13F4A2032A2
:1017B000126802433D4B20331A6006E03B4A203258
:1017C00012688243394B20331A60704739B1374A67
:1017D000243212680243354B24331A6006E0334A40
:1017E000243212688243314B24331A60704739B176
:1017F0002E4A2C32126802432C4B2C331A6006E01E
:101800002A4A2C3212688243284B2C331A607047C4
:1018100039B1264A303212680243244B30331A6001
:1018200006E0224A303212688243204B30331A607D
:101830007047012808D11D493C31096841F0080171
:101840001A4A3C32116007E018493C31096821F01E
:101850000801164A3C321160704739B1134A273AE1
:1018600012780243114B273B1A7006E00F4A273AC1
:10187000127882430D4B273B1A7070470B4840305B
:10188000006840F0807009494031086070470146A7
:101890000020064A283A12680A400AB1012000E0F6
:1018A00000207047014926390870704734380240DB
:1018B00010B50446FE48844208D101210846FFF7CE
:1018C00052FF00210120FFF74EFF9DE0B4F1804F51
:1018D00008D101210846FFF735FF00210120FFF75D
:1018E00031FF91E0F348844208D101210220FFF743
:1018F00029FF00210220FFF725FF85E0EE48844202
:1019000008D101210420FFF71DFF00210420FFF76B
:1019100019FF79E0E948844208D101210820FFF746
:1019200011FF00210820FFF70DFF6DE0E44884421D
:1019300008D101211020FFF705FF00211020FFF73B
:1019400001FF61E0DF48844208D101212020FFF738
:10195000F9FE00212020FFF7F5FE55E0DA48844229
:1019600008D101210220FFF7FEFE00210220FFF72F
:10197000FAFE49E0D548844209D101210804FFF765
:10198000F2FE00214FF48030FFF7EDFE3CE0D0483E
:10199000844209D101214804FFF7E5FE00214FF4FC
:1019A0000030FFF7E0FE2FE0CA48844209D1012150
:1019B0008804FFF7D8FE00214FF48020FFF7D3FE04
:1019C00022E0C548844208D101214020FFF7BAFE39
:1019D00000214020FFF7B6FE16E0C048844208D13F
:1019E00001218020FFF7AEFE00218020FFF7AAFE34
:1019F0000AE0BB48844207D101218015FFF7A2FE0F
:101A00000021A015FFF79EFE10BD00220288A84B02
:101A100098420ED0AC4B98420BD0B0F1804F08D01A
:101A2000A44B984205D0A44B984202D0A34B9842B5
:101A300004D14FF68F731A404B881A43A04B98423B
:101A400007D0A04B984204D04FF6FF431A400B89B1
:101A50001A4302804B68C3620B880385944B9842FB
:101A600002D0994B984201D18B7A0386012383825D
:101A700070474FF0FF3141600021018001814180BA
:101A8000817270470185828270470A460021018871
:101A90004FF68F73194011430180704741627047C0
:101AA000C16270470146486A70470146088D704719
:101AB00021B1028842F00202028004E002884FF65F
:101AC000FD731A400280704721B1028842F004027F
:101AD000028004E002884FF6FB731A4002807047D0
:101AE00021B1028842F08002028004E002884FF6B1
:101AF0007F731A400280704702884FF6F7731A40CE
:101B0000028002880A430280704702884FF6FF4332
:101B10001A40028002880A430280704721B102887D
:101B200042F00102028004E002884FF6FE731A4080
:101B30000280704770B5002400220023058C4FF608
:101B4000FE7635400584028C8388048B4FF68F75B2
:101B50002C40B51E2C400D882C43751E2A408D89C3
:101B60002A434D882A43524DA84202D0564DA842DE
:101B700013D14FF6F7752A40CD892A434FF6FB75EE
:101B80002A408D882A434FF6FF652B404FF6FF55BC
:101B90002B400D8A2B434D8A2B43838004838D6811
:101BA0004563028470BD70B5002400220023058CBB
:101BB0004FF6EF7635400584028C8388048B48F617
:101BC000FF752C404FF6FF452C400D884FF6FF76F1
:101BD00006EA05252C434FF6DF752A408D8906EA73
:101BE00005152A434D8806EA05152A43304DA842BB
:101BF00002D0354DA8421DD14FF67F752A40CD89C0
:101C00004FF6FF7606EA05152A434FF6BF752A40C0
:101C10008D8806EA05152A434FF6FF352B404FF213
:101C2000FF752B400D8A06EA85052B434D8A06EA8F
:101C300085052B43838004838D688563028470BD92
:101C400070B5002400220023058C4FF6FF66354056
:101C50000584028C8388848B4FF68F752C404FF659
:101C6000FC752C400D882C434FF6FF552A408D897A
:101C70004FF6FF7606EA05252A434D8806EA052534
:101C80002A430B4DA84202D00F4DA84238D14FF243
:101C9000FF752A40CD894FF6FF7606EA05252A43CF
:101CA0004FF6FF352A408D8806EA05252A4319E0BC
:101CB000000001400004004000080040000C00400B
:101CC00000100040001400400004014000400140AA
:101CD000004401400048014000180040001C004042
:101CE000002000404EF6FF752B404DF6FF752B404F
:101CF0000D8A06EA05152B434D8A06EA05152B4386
:101D0000838084838D68C563028470BD70B50022B2
:101D100000230024058C4EF6FF7635400584038CA5
:101D20008488828B48F6FF752A404FF6FF452A408B
:101D30000D884FF6FF7606EA05252A434DF6FF7516
:101D40002B408D8906EA05352B434D8806EA05357B
:101D50002B43FE4DA84202D0FD4DA84208D14BF6C0
:101D6000FF752C400D8A4FF6FF7606EA85152C4349
:101D7000848082838D680564038470BD00210180A6
:101D80004180818081608181C1810182418270476F
:101D900070B50346002000241846183001258D40F8
:101DA000ACB21D8CA5431D8409B108290AD100EBF2
:101DB000610005684FF68F7635400560056815436C
:101DC00005600FE00D1FC5F34E052844056848F671
:101DD000FF763540056005684FF6FF7606EA022675
:101DE0003543056070BD4163704781637047C163CF
:101DF0007047016470470A460021018B4FF68F73CC
:101E000019401143018370470A460021018B48F6AF
:101E1000FF7319404FF6FF7303EA0223194301834E
:101E200070470A460021818B4FF68F73194011438A
:101E3000818370470A460021818B48F6FF73194061
:101E40004FF6FF7303EA02231943818370470A4662
:101E50000021018B4FF6F77319401143018370473E
:101E60000A460021018B4FF2FF7319404FF6FF73B2
:101E700003EA02231943018370470A460021818B3C
:101E80004FF6F77319401143818370470A460021CA
:101E9000818B4FF2FF7319404FF6FF7303EA022361
:101EA0001943818370470A460021018B4FF6FB736B
:101EB00019401143018370470A460021018B4FF6F8
:101EC000FF3319404FF6FF7303EA022319430183DE
:101ED00070470A460021818B4FF6FB73194011436E
:101EE000818370470A460021818B4FF6FF331940EA
:101EF0004FF6FF7303EA02231943818370470A46B2
:101F00000021018B4FF67F73194011430183704705
:101F10000A460021018BC1F30E014FF6FF7303EA5D
:101F200002231943018370470A460021818B4FF633
:101F30007F7319401143818370470A460021818BCA
:101F4000C1F30E014FF6FF7303EA022319438183A5
:101F500070470A460021018C4FF6FD73194011436A
:101F6000018470470A460021018C4FF6F77319402F
:101F70001143018470470A460021018C4FF6DF733C
:101F800019404FF6FF7303EA0213194301847047A7
:101F90000A460021018C4FF67F7319404FF6FF73FC
:101FA00003EA02131943018470470A460021018C99
:101FB0004FF6FF5319404FF6FF7303EA022319430C
:101FC000018470470A460021018C4FF2FF731940CB
:101FD0004FF6FF7303EA02231943018470470A4650
:101FE0000021018C4DF6FF7319404FF6FF7303EA91
:101FF000023319430184704730B5002301248C401B
:10200000A3B2048C9C430484048C02FA01F5ADB2A3
:102010002C43048430BD30B5002304248C40A3B28B
:10202000048C9C430484048C02FA01F5ADB22C4369
:10203000048430BD828B4FF2FF331A408283828B3F
:102040004FF6FF7303EA01231A4382837047F0B50A
:102050000C461546002100220026078C4EF6FF7C18
:1020600007EA0C070784818B028C4FF6FF7707EA9B
:10207000043640F6FF4739404FF6FF7707EA052759
:1020800039434FF6FF7707EA0337394345F6FF77C1
:102090003A4046F480573A4381830284F0BD828BF4
:1020A0004FF6F3731A408283828B0A438283704710
:1020B000F0B50C461546002100220026078C4FF68D
:1020C000FF6C07EA0C070784818B028C4FF6FF77C1
:1020D00007EA04264FF60C7739404FF6FF7707EAF8
:1020E00003172F4339434FF2FF573A4046F48077A6
:1020F0003A4381830284F0BD028B4FF2FF331A40D2
:102100000283028B4FF6FF7303EA01231A43028313
:102110007047F0B50C461546002100220026078CBA
:102120004FF6EF7C07EA0C070784018B028C4FF611
:10213000FF7707EA041640F6FF4739404FF6FF776E
:1021400007EA033739434FF6FF7703E00000014009
:102150000004014007EA052739434FF65F773A400C
:1021600046F010073A4301830284F0BD028B4FF61C
:10217000F3731A400283028B0A4302837047F0B55F
:102180000C46154600210022068C4FF6FE773E4095
:102190000684018B028C4FF60C7631407E1C06EAD9
:1021A00003162E4331434FF6F576324044F00106D4
:1021B000324301830284F0BD70B505460C46208889
:1021C00050B92389A28861882846FFF7D8FFE188A3
:1021D0002846FFF7CBFF25E0208804280AD1238971
:1021E000A28861882846FFF794FFE1882846FFF718
:1021F00083FF17E0208808280AD12389A2886188F4
:102200002846FFF755FFE1882846FFF748FF09E019
:102210002389A28861882846FFF719FFE1882846AC
:10222000FFF708FF70BD00210180418001218180FE
:102230000021C180018170472DE9F04105460C461F
:1022400000260127608808B9022600E00026A08841
:10225000012801D1022700E001272088A0B92389A5
:10226000A28861882846FFF78AFFE1882846FFF7A1
:102270007DFF23893A4631462846FFF74AFFE18829
:102280002846FFF739FF13E02389A2886188284692
:10229000FFF73FFFE1882846FFF72EFF23893A46E4
:1022A00031462846FFF76BFFE1882846FFF75EFFBF
:1022B000BDE8F0810146486B70470146886B704766
:1022C0000146C86B70470146086C70470A884B8806
:1022D0001A438B881A43CB881A430B891A434B89BC
:1022E0001A438B891A43A0F84420704700210180CB
:1022F00041808180C180018141818181704731B1FC
:10230000B0F8442042F40042A0F8442005E0B0F8C0
:102310004420C2F30E02A0F84420704721B1828805
:1023200042F00402828004E082884FF6FB731A4078
:102330008280704721B1828842F00102828004E0ED
:1023400082884FF6FE731A40828070471AB18389E3
:102350000B43838102E083898B43838170478182B1
:10236000704702460020138A0B400BB1012000E0A9
:1023700000207047CA430282704730B502460020F1
:1023800000230024158A05EA0103958905EA010462
:1023900013B10CB1012000E0002030BDCA4302821D
:1023A000704741EA0203A0F8483070471AB18389A8
:1023B0000B43838102E083898B438381704721B182
:1023C000828842F00802828004E082884FF6F77328
:1023D0001A408280704701894FF6F87211400181DE
:1023E00070470A46002101894FF68F731940114347
:1023F0000181704730B504460D4629462046FFF757
:10240000F0FF208940F00700208130BD2DE9F04128
:1024100004460D4616461F46602D06D13B46012256
:1024200031462046FFF775FE05E03B460122314666
:102430002046FFF7A4FE29462046FFF7D2FF208959
:1024400040F007002081BDE8F08130B50C46002146
:102450000189C9B24FF6FF7505EA032515432543E7
:102460002943018130BD2DE9F04105460E4617464E
:102470009846002443463A4631462846FFF7E5FF92
:102480002C894FF6F870044044F007044FF68F7023
:10249000044044F070042C81BDE8F081F0B504469E
:1024A0000D4616461F463B46324629462046FFF754
:1024B000CCFF208940F480402081F0BD82884FF617
:1024C0008F731A40828082880A4382807047028913
:1024D0004FF6F8731A40028102890A43028170475D
:1024E00002894FF67F731A40028102890A430281F2
:1024F0007047F0B50C4615461E4600210022002309
:102500000189028B038C4FF6F877394021434FF64F
:10251000FC473A4040F201173A434FF6DD773B4023
:102520004FF6FF7707EA06172F433B4301810283EB
:102530000384F0BD21B1828842F08002828004E0F1
:1025400082884FF67F731A4082807047A0F850103F
:102550007047000010B50446FA48844208D10121B2
:102560001020FFF700F900211020FFF7FCF857E0DA
:10257000F548844209D101214804FFF7E3F800211E
:102580004FF40030FFF7DEF84AE0F048844209D10A
:1025900001218804FFF7D6F800214FF48020FFF7CF
:1025A000D1F83DE0EA48844209D10121C804FFF78F
:1025B000C9F800214FF40020FFF7C4F830E0E548E7
:1025C000844209D101210805FFF7BCF800214FF42E
:1025D0008010FFF7B7F823E0DF48844208D10121DB
:1025E0002020FFF7C0F800212020FFF7BCF817E0FB
:1025F000DA48844209D101218807FFF7A3F80021B6
:102600004FF08040FFF79EF80AE0D548844207D19A
:1026100001214005FFF796F800216005FFF792F8C9
:1026200010BD2DE9FF4705460E460024A14600BF18
:10263000A046B08900B100BF2C8A24F44054F08831
:1026400004432C82AC8941F20C608443B088318908
:102650000843718908430443AC81AC8A24F4407474
:10266000B0890443AC826846FEF7FDFEB54885425A
:1026700002D0B948854202D1DDF80C9001E0DDF8C6
:102680000890A88900F4004040B109EBC90000EBB4
:10269000091031684900B0FBF1F707E009EBC90008
:1026A00000EB091031688900B0FBF1F76420B7FB3B
:1026B000F0F004012009642101FB1078A88900F4DE
:1026C000004040B1322000EBC800B0FBF1F000F058
:1026D0000700044308E0322000EB08106421B0FB3F
:1026E000F1F000F00F0004432C81BDE8FF874FF4A8
:1026F0001651016000218180C18001810C2141813E
:1027000000218181704710B502460020108A20F414
:1027100070600B884C8823438C882343CC882343E8
:102720001843108210BD0021018041808180C1804A
:10273000704721B1828942F40052828104E082898B
:102740004DF6FF731A4082817047028B02F47F427C
:102750000283028B0A430283704721B1828942F4CB
:102760000042828103E08289C2F30E0282817047B7
:1027700021B1828A42F40062828204E0828A4FF2AE
:10278000FF731A4082827047C1F30802828070474B
:1027900001468888C0F308007047028A4FF6F0733C
:1027A0001A400282028A0A430282704721B182895A
:1027B00042F00202828104E082894FF6FD731A40E2
:1027C0008281704782894FF2FF731A408281828929
:1027D0000A4382817047028A4FF6DF731A400282F1
:1027E000028A0A430282704721B1028A42F480427F
:1027F000028204E0028A4BF6FF731A40028270479D
:10280000818941F001018181704721B1828A42F0C2
:102810000802828204E0828A4FF6F7731A408282AD
:102820007047028BD2B20283028B42EA01220283FA
:10283000704721B1828A42F02002828204E0828ABB
:102840004FF6DF731A408282704721B1828A42F0CC
:102850001002828204E0828A4FF6EF731A4082826D
:102860007047828A4FF6FB731A408282828A0A433B
:102870008282704721B1828A42F00202828204E0A1
:10288000828A4FF6FD731A40828270471AB1838A9A
:102890000B43838202E0838A8B4383827047F0B5C7
:1028A0000346002400260025002040F66A17B9429E
:1028B00000D100BF1846C1F3421401F01F060127E2
:1028C00007FA06F5012C01D10C3004E0022C01D1ED
:1028D000103000E014301AB107682F43076002E09F
:1028E0000768AF430760F0BD02460020B1F5007FE6
:1028F00000D100BF13880B400BB1012000E0002085
:10290000704701F40072B2F5007F00D100BFCA43E6
:102910000280704770B50246002400230025002085
:1029200040F66A16B14200D100BFC1F3421501F072
:102930001F03012606FA03F3012D13D196893340B4
:1029400017E0000000100140004400400048004033
:10295000004C00400050004000140140007800404E
:10296000007C0040022D02D1168A334001E0968A95
:1029700033400C12012606FA04F41688344013B1D1
:102980000CB1012000E0002070BD10B50022002332
:1029900040F66A14A14200D100BF0A1201249440FB
:1029A000A3B2DC43048010BD08B5684601F0ACF961
:1029B00008BD08B5684601F0F1F908BD38B5044610
:1029C0006A460821204605F065FF38BD10B542482B
:1029D0000078012805D101F0DDF806F046F901F094
:1029E000EAF810BD70B504466FF00400FDF7D2FDA3
:1029F0002046E11704EB5171C1F3C701374A11704A
:102A0000E11704EB5171CD10354800683549B1FB31
:102A1000F0F04543324800684FF47A71B1FBF0F0B2
:102A2000314908804FF0E020006940F002004FF08B
:102A3000E021086108464561006940F00100086135
:102A400070BD2DE9F047074600264FF0E020D0F892
:102A500014902248007807FB00F8FFF7A5FF4FF01D
:102A6000E020856911E04FF0E0208469AC420CD091
:102A7000AC4202D2281B064403E0A9EB0400284420
:102A800006442546464500D300E0ECE700BFFFF7CB
:102A900090FFBDE8F08770B504460F480078A0B1FC
:102AA0001248007888B910480088844206DB0E4836
:102AB000008894FBF0F52846FFF780FF0A4800885D
:102AC00094FBF0F100FB114084B24FF47A7104FBE7
:102AD00001F0FFF7B6FF70BD5D000020240000206C
:102AE000D0C8000840420F00260000205C000020F3
:102AF00000BF704700BF4E4A128802F04002002A11
:102B0000F9D0C2B24A4B9A80704710B588B00446DB
:102B100001210846FEF778FD01211020FEF7CEFDC9
:102B2000072209214348FEF75CFB07220A2141489E
:102B3000FEF757FB4FF4C060069002208DF81C0092
:102B40008DF81D0000208DF81E0001208DF81F005B
:102B500006A93848FEF7BAFA02940020ADF80C0036
:102B6000ADF80E00ADF81000ADF814000C20ADF873
:102B7000120002A92E48FFF754FD01212C48FFF74F
:102B8000D8FD012240F225512948FFF788FE252073
:102B90008DF8040003208DF805008DF80600012053
:102BA0008DF8070001A8FDF7A8FC08B010BD10B50E
:102BB00000F0F0FF40F225511D48FFF7ABFE10B3C7
:102BC0001B48FFF7E5FDC4B21B48008800F4004035
:102BD000C8B91948008800F4804060B10A2C03D0BD
:102BE00000201549088020E01348008840F4004088
:102BF0001149088019E00D2C06D10F48008840F4D7
:102C000080400D49088010E00B480088C0F30D009B
:102C10000A490C5408480088401C074908800846A7
:102C20000088C72801DD0020088000F0C4FF10BD27
:102C300000100140000002402C0000200C01002088
:102C400010B504468021FE48FEF7BCFA2046FFF787
:102C500022FF8021FA48FEF7B7FA10BD10B500F048
:102C6000E3FC4FF47A70FFF716FF00F0B6FB10BDDF
:102C700000B58FB0A820FFF7B5FE4FF4A060FDF7B8
:102C800037FC01214806FEF708FD00208DF83600CC
:102C90008DF837008DF8380001208DF839000020BC
:102CA0008DF83A008DF83B008DF832008DF8330036
:102CB00008208DF8340003208DF83500ADF8300081
:102CC0000CA9E048FDF79DFC00208DF82A008DF846
:102CD0002B0001208DF82C000020ADF82000ADF86D
:102CE0002200ADF82400ADF82600ADF82800012040
:102CF0008DF82D0008A8FDF70EFD01220221D14814
:102D0000FEF708F814208DF81C0001208DF81D0036
:102D100000208DF81E0001208DF81F0007A8FDF788
:102D2000ECFB01218806FEF7B8FC00208DF8360088
:102D30008DF837008DF8380001208DF8390000201B
:102D40008DF83A008DF83B008DF832008DF8330095
:102D500008208DF8340003208DF83500ADF83000E0
:102D60000CA9B948FDF74DFC0F208DF82A00002072
:102D70008DF82B0001208DF82C000020ADF82000EC
:102D8000ADF82200ADF82400ADF826000120ADF822
:102D900028008DF82D0008A8FDF7BDFC01221021A8
:102DA000A948FDF7B7FF41208DF81C0001208DF8E0
:102DB0001D0000208DF81E0001208DF81F0007A8BF
:102DC000FDF79BFB4FF4E130FFF79FFE0121084622
:102DD000FEF774FC04A8FEF74CFE0020ADF81000CE
:102DE0004FF6FF7005900020ADF81800ADF8120006
:102DF00004A99648FEF709FE00231A4603219348CA
:102E0000FFF777FB01A8FFF70EFA0A20ADF80C00D8
:102E100001A98E48FFF7D0F901218C48FFF7AAFAE3
:102E2000002201218948FFF791FA47F23051874883
:102E3000FEF734FE01218548FEF770FE01210846A9
:102E4000FEF72BFC04A8FEF714FE0020ADF81000DE
:102E50004FF6FF7005900020ADF81800ADF8120095
:102E600004A94FF08040FEF7D0FD00231A4603214D
:102E70004FF08040FFF73DFB01A8FFF7D4F90A208F
:102E8000ADF80C0001A94007FFF796F9012188076A
:102E9000FFF770FA002201218807FFF757FA47F27F
:102EA00030514FF08040FEF7F9FD01218807FEF711
:102EB00035FE0FB000BD1CB501210420FEF7A4FBB8
:102EC0000F20009001208DF8040000208DF80600EE
:102ED00003208DF8050000208DF8070069465C4846
:102EE000FEF7F4F80F215A48FEF76CF90121084665
:102EF000FEF78AFB8020009001208DF8040000205E
:102F00008DF8060003208DF8050000208DF80700DD
:102F100069464B48FEF7DAF880214948FEF754F934
:102F200001210846FEF770FB4FF4C05000900220CC
:102F30008DF8040000208DF8060003208DF80500B0
:102F400001208DF8070069463D48FEF7BFF80922C9
:102F50000B213B48FEF745F909220C213848FEF7C2
:102F600040F901210220FEF74FFB4FF44050009042
:102F700002208DF8040000208DF8060003208DF853
:102F8000050001208DF8070069463248FEF79EF8DB
:102F900009220C212F48FEF724F909220D212D4882
:102FA000FEF71FF901211020FEF72EFB0122092157
:102FB0002948FEF716F901220B212748FEF711F9DF
:102FC0004FF42060009002208DF8040003208DF85B
:102FD000050001208DF8060069461F48FEF776F8C7
:102FE00001210846FEF710FB01210220FEF70CFB31
:102FF000012205211248FEF7F4F8012203211548A9
:10300000FEF7EFF82020009002208DF80400032046
:103010008DF8050001208DF8060069460848FEF786
:1030200055F80820009002208DF8040003208DF848
:10303000050001208DF80600694606480EE00000F4
:1030400000000240006400400068004000000140B1
:10305000000802400004024000100240FEF736F86B
:103060001CBD10B5FFF727FFFFF702FEFFF7F6FDC7
:103070006420FFF7E5FD10BD70B504460D462946F6
:103080002046FFF781FB00BF80212046FFF72CFC84
:103090000028F9D070BD000010B56420FFF7D0FD06
:1030A00010BD00B585B002210C48FDF79BFE20B194
:1030B0006A4600210948FDF712FD05B000BD00B5C4
:1030C00085B010210648FDF78DFE20B16A4601212A
:1030D0000348FDF704FD05B000BD0000006400409A
:1030E000006800402DE9F04106460F460024FE48E6
:1030F00007600020FC49087248720820887200BFEF
:1031000005E0315DF8480B300155601C84B2082C95
:10311000F7DBF549F548FDF7EDFB0546002401E036
:10312000601C84B22946F148FDF77CFC18B940F6D2
:10313000FF708442F4DB40F6FF70844202DB012022
:10314000BDE8F0810020FBE730B585B004460025DE
:103150002546E0208DF80B0055218DF80C108DF8D8
:103160000D108DF80E108DF80F108DF810108DF8D1
:1031700011100E218DF8121029460DF10B00FFF7EA
:10318000B1FF05B030BD30B585B0044600252546F9
:10319000E1208DF80B0055218DF80C108DF80D10E5
:1031A0008DF80E108DF80F108DF810108DF811108D
:1031B0001E218DF8121029460DF10B00FFF792FF2A
:1031C00005B030BD30B585B0044600252546E22067
:1031D0008DF80B0055218DF80C108DF80D108DF821
:1031E0000E108DF80F108DF810108DF811102E2183
:1031F0008DF8121029460DF10B00FFF773FF05B093
:1032000030BD30B585B0044600252546E3208DF855
:103210000B0055218DF80C108DF80D108DF80E1047
:103220008DF80F108DF810108DF811103E218DF8CB
:10323000121029460DF10B00FFF754FF05B030BD09
:1032400030B585B0044600252546E4208DF80B00F6
:1032500055218DF80C108DF80D108DF80E108DF88D
:103260000F108DF810108DF811104E218DF81210DE
:1032700029460DF10B00FFF735FF05B030BD70B5E5
:1032800086B005460C4600262E46E5208DF80F0038
:1032900055218DF812108DF813108DF814108DF83B
:1032A00015105E218DF81610002C08DA644244F4E3
:1032B0000044210A8DF810108DF8114004E0210A15
:1032C0008DF810108DF8114031460DF10F00FFF709
:1032D00009FF06B070BD70B586B005460C460026E5
:1032E0002E46E6208DF80F0055218DF814108DF82C
:1032F00015106E218DF81610002C0EDA644244F081
:103300000044210E8DF81010210C8DF81110210AA7
:103310008DF812108DF813400AE0210E8DF8101070
:10332000210C8DF81110210A8DF812108DF8134020
:1033300031460DF10F00FFF7D5FE06B070BD70B538
:1033400086B005460C4600262E46E7208DF80F0075
:1033500055218DF814108DF815107E218DF816105A
:10336000002C0EDA644244F00044210E8DF8101057
:10337000210C8DF81110210A8DF812108DF81340D0
:103380000AE0210E8DF81010210C8DF81110210A81
:103390008DF812108DF8134031460DF10F00FFF734
:1033A000A1FE06B070BD10B5F120FFF7CDFEC8201C
:1033B000FFF747FBF220FFF7C7FEC820FFF741FBEE
:1033C000F320FFF7C1FEC820FFF73BFBF420FFF717
:1033D000BBFEC820FFF735FB10BD10B5F120FFF78D
:1033E000D2FEC820FFF72DFBF220FFF7CCFEC8204D
:1033F000FFF727FBF320FFF7C6FEC820FFF721FBEE
:10340000F420FFF7C0FEC820FFF71BFB10BD10B56E
:10341000F120FFF7D7FEC820FFF713FBF220FFF7DC
:10342000D1FEC820FFF70DFBF320FFF7CBFEC8202D
:10343000FFF707FBF420FFF7C5FEC820FFF701FBED
:1034400010BD10B5F120FFF7DCFEC820FFF7F9FA38
:10345000F220FFF7D6FEC820FFF7F3FAF320FFF7BC
:10346000D0FEC820FFF7EDFAF420FFF7CAFEC8200F
:10347000FFF7E7FA10BD10B5F120FFF7E1FEC82015
:10348000FFF7DFFAF220FFF7DBFEC820FFF7D9FADB
:10349000F320FFF7D5FEC820FFF7D3FAF420FFF79B
:1034A000CFFEC820FFF7CDFA10BD2DE9F04104464C
:1034B0000F4615461E462146F120FFF7E0FEC820C4
:1034C000FFF7BFFA3946F220FFF7D9FEC820FFF711
:1034D000B8FA2946F320FFF7D2FEC820FFF7B1FA69
:1034E0003146F42004E00000D401002000640040D4
:1034F000FFF7C5FEC820FFF7A4FABDE8F081000081
:10350000F0B52DED048B85B007460E46002400254E
:10351000384608F09EFF41EC190B9FED540B53EC1D
:10352000102B08F0ADFF41EC180B08F063FF44428C
:10353000304608F08EFF41EC190B9FED4E0B53EC1B
:10354000102B08F09DFF41EC180B08F053FF45428B
:103550001220009008208DF80A0000208DF8080045
:103560008DF80900E0B28DF80B00210A8DF80C10DF
:10357000210C8DF80D10210E8DF80E10E9B28DF88A
:103580000F10290A8DF81010290C8DF81110290E32
:103590008DF8121069463948FDF7ACF905B0BDEC5D
:1035A000048BF0BD00B52DED028B87B0B0EE408AE4
:1035B0008DED068A1220019004208DF80E00002067
:1035C0008DF80C008DF80D009DF818008DF80F0097
:1035D0009DF819108DF810109DF81A108DF8111023
:1035E0009DF81B108DF8121001A92448FDF782F9EF
:1035F00007B0BDEC028B00BD00B585B01220009075
:1036000002208DF80A0000208DF808008DF80900CE
:1036100055208DF80B00FF218DF80C1069461748D6
:10362000FDF768F905B000BD10B5FFF7E5FF9FEDA8
:10363000140AFFF7B7FF00210846FFF761FF1420C7
:10364000FFF729FA9FED0E0AFFF7ACFF00210846AD
:10365000FFF756FF1420FFF71EFA9FED090AFFF748
:10366000A1FF00210846FFF74BFF10BD27A089B03E
:10367000E1A929408E06F016481029400068004054
:10368000000000001FB56846FDF7EDFE019804B08C
:1036900010BD10B5FFF7F6FF04461848006840F06B
:1036A0008070164908600020154948600846006887
:1036B00040F001000860204600F0B7F810BD104946
:1036C000486870472DE9F0478246FFF7DBFF4FF06F
:1036D000000980460B4A00234046494607F07DFD1D
:1036E000064632460B465046002107F076FD04465A
:1036F0000D4620462946BDE8F0870000FCED00E0BD
:10370000001000E040420F0010B5002400BF00BFD1
:1037100000F052F9044600BF00BF1021A14805F097
:10372000B0FF00BF00BF204600F04AF900BF00BF55
:1037300010BD10B5FFF7E8FF10BD10B500209A4985
:103740000860FFF7A6FF10BD10B5FFF7F6FFFFF703
:10375000F0FF10BD00BFFEE770B505460C46002621
:1037600014B900BFFFF7F6FF15B90A20208070BD1D
:1037700000BF00BF00F020F9064600BF00BF1022C6
:103780008849284606F034FC00BF00BF304600F0F0
:1037900017F900BF00BF0020208000BFE7E72DE938
:1037A000F04105460C46002714B900BFFFF7D2FFD1
:1037B0001DB90A202080BDE8F0811021284606F0BE
:1037C000FFFB0646102E15D200BF00BF00F0F4F834
:1037D000074600BF00BF10222946724806F008FCC9
:1037E00000BF00BF384600F0EBF800BF00BF00206C
:1037F000208002E04FF47A70208000BFDBE710B534
:10380000FFF75DFF0446204610BD704700B5014636
:1038100011B900BFFFF79EFF634A106808B100228C
:1038200001E04FF4FA620A8000BD5F49086070470A
:1038300070B50546284600F0CAF80446183C2046F4
:1038400070BD70B50546284600F0C1F80446103C2E
:10385000204670BD70B50546284600F0B8F804460D
:1038600000BF204670BD30B502460B460024D2F1A1
:10387000FF359C4126D24FF6FF74D2F1FF359C41B3
:103880000FD26FF07F44D2F1FF359C4103D2190E65
:10389000464C605C44E0190C444C645C04F1080044
:1038A0003EE0FF24D2F1FF359C4105D2190A3F4C7E
:1038B000645C04F1100033E019463C4C645C04F194
:1038C00018002DE04FF6FF750024AD1A9C4115D26B
:1038D0006FF07F450024AD1A9C4107D2140E44EAD4
:1038E0000321324C645C04F1200019E0140C44EA1A
:1038F00003412E4C645C04F1280011E00024D2F155
:10390000FF059C4107D2140A44EA0361274C645C1A
:1039100004F1300004E01146244C645C04F13800EA
:1039200030BD70B504460CB9082070BD204600F0CB
:1039300051F805462846F8E770B504460CB9102042
:1039400070BD204600F046F805462846F8E770B5F9
:1039500004460CB9202070BD204600F03BF8054617
:103960002846F8E72DE9F04304460D46002184EA95
:1039700001006940084302D14020BDE8F083E243E2
:10398000E843521C40F1000102EA040601EA05077F
:1039900030463946FFF767FF8046C8F13F09484681
:1039A000EBE70000E8010020300000206CC70008B1
:1039B00072B6704762B67047EFF3108072B6704708
:1039C00080F31088704730BF704720BF7047B0FA4F
:1039D00080F0704790FAA0F0B0FA80F0704790FA4B
:1039E000A0F0704770470000002419E000BF00BF3E
:1039F000FFF7E2FF044600BF00BFFE480068401C1E
:103A0000FC490860FC480068401CFB49086000BF96
:103A100000BF2046FFF7D4FF00BF00BF07F076F8D5
:103A2000E4E710B58AB004460020F24908600B2094
:103A300000210591CDE9070406910846EF49096880
:103A4000EF4A1268EF4B1B68CDE90132CDE9031054
:103A50003F200023AFF26F02EBA10090EF4803F08C
:103A600092FC0AB010BD00210AE001EB4102EC4BD0
:103A700003EB820000220281026042604A1CD1B244
:103A80004029F2D3704770B5044607F047F800208C
:103A9000E4490870E4490870E4490870E4490860A2
:103AA000E4490860E4490870E4490870E449087092
:103AB000E4490860E4490860E4490860E4480068B3
:103AC00058B1E448056845B1E148066803E0761E50
:103AD000002028602D1D002EF9D10020DE4908604D
:103AE000DE490860DE490860DE490860DE4908609A
:103AF000DE490860DE490860DE49087002F060F9BE
:103B0000FFF7B1FF204601F073FB208800B170BDC4
:103B1000204601F06CFC208800B1F8E7204601F057
:103B200075FC208800B1F2E7204602F035F92088C4
:103B300000B1ECE7204602F0DCFC208800B1E6E7AB
:103B4000204603F04CF8208800B1E0E7204604F05E
:103B50006BFC208800B1DAE72046FFF762FF20887F
:103B600000B1D4E7204604F063FD208800B1CEE721
:103B7000204603F0AFFA208800B1C8E7204605F0E0
:103B800070FB208800B1C2E700F0F8FCFFF72AFFC5
:103B900000BFBCE7A4480078012800D07047A148C6
:103BA0000078FA2800DBF9E79E480078401C9D4920
:103BB000087000BFF2E710B500249B480078012888
:103BC00000D010BD00BFFFF7F7FE044600BF9548C8
:103BD000007828B900BF2046FFF7F2FE00BFF0E7EB
:103BE00090480078401E8F490870084600780028E9
:103BF00005DD00BF2046FFF7E3FE00BFE1E78B488D
:103C00000078002805DD00BF2046FFF7D9FE00BF81
:103C1000D7E702F0DFF8894908700846007800EB22
:103C200040007F4951F8200082490860084600683A
:103C30007F490968884205D100BF2046FFF7C0FED2
:103C400000BFBEE77B480068D0F88400401C79497B
:103C50000968C1F8840088480068401C86490860EB
:103C600008F052FB00BF2046FFF7AAFE00BF00BFCE
:103C7000A7E710B500246B480078002800DD10BDD0
:103C80006A480078002800DDF9E700BFFFF794FEDE
:103C9000044600BF02F09EF86849087008460078A4
:103CA00000EB40005E4951F8200062490860084678
:103CB00000685F490968884205D100BF2046FFF7C8
:103CC0007FFE00BFDBE75B480068D0F88400401C43
:103CD00058490968C1F8840067480068401C664973
:103CE000086008F00CFB00BF2046FFF769FE00BF2C
:103CF00000BFC4E710B54D480078012803D1FFF795
:103D0000DEFC5049086010BD70B5044600254548EA
:103D10000078002803DD46F66250208070BD4248DE
:103D20000078012803D045F689602080F6E73F48F7
:103D30000078FA2803DB45F209202080EEE700BF77
:103D400000BFFFF739FE054600BF00BF37480078C7
:103D5000401C36490870FFF7CDFF00BF00BF284662
:103D6000FFF72EFE00BF00BF0020208000BFD5E778
:103D700010B52E48007880B9FFF7A1FC31490968D9
:103D8000441A31480068A04201D22F4804602F48ED
:103D90000068A04201D22D48046010BD70B50446F1
:103DA000002520480078002803DD46F66550208075
:103DB00070BD1D480078012803D045F68960208039
:103DC000F6E71A48007818B946F664502080EFE705
:103DD00000BF00BFFFF7F0FD054600BF00BF13485E
:103DE0000078401E114908700846007800284FDD11
:103DF00000BF43E058000020A000002078C8000861
:103E000074C8000870C8000875432F4F532D4949E6
:103E1000492049646C65205461736B00381200209E
:103E2000FC1200205C0000205D00002090000020BB
:103E3000F8000020FC000020760000207700002021
:103E40007800002084000020880000208C000020E2
:103E5000A0C800089CC800083C00002040000020CA
:103E600044000020480000204C00002050000020AA
:103E700054000020BE000020B400002000BF2846EF
:103E8000FFF79EFD00BF00BF46F6635020808FE71E
:103E9000FFF76EFF00BF00BF2846FFF791FD00BF90
:103EA00000BFFFF7E6FE0020208000BF80E710B5CE
:103EB0000446F8480078E8B901F08CFFF64908702C
:103EC00008460078F5490870F348007800EB400098
:103ED000F34951F82000F349086008460068F249A8
:103EE00008600120EB49087008F0F8F943F69920C2
:103EF000208002E045F68A60208010BD0146002047
:103F0000088047F2C160704730B548B14568C1F8D4
:103F1000B45000F10804226893681D6AC56113E07B
:103F200091F83450022D02D0072D08D103E0DFA50F
:103F3000C1F8B45007E0DFA5C1F8B45003E0E0A534
:103F4000C1F8B45000BF00BF30BDF0B58E6896F820
:103F5000375007893FB90127078100274F600F605D
:103F60000160416023E007897F1C0781026806E049
:103F7000946894F83770AF4200DD02E05268002A7E
:103F8000F6D100BF32B900274F6043680B6059601B
:103F900041600CE017682FB9116000270F604A607C
:103FA000016004E013680B604A6059601160F0BD65
:103FB00010B5C287016300230AE000244C600C6046
:103FC0000C614C610C83CC61886020315C1CA3B215
:103FD0009342F2DB10BD2DE9F041054695F837001C
:103FE00000EB4000AE4901EB80042F69EE6887B911
:103FF00046B9002020812060606095F8370001F00C
:104000000BFF0EE02089401E2081002030612660D9
:1040100007E02089401E2081FE600EB9676000E045
:10402000376100202861E860BDE8F08170B5044682
:104030000D4645B12A462146A24804F040FB032024
:1040400084F8360002E0022084F836002046FFF7AC
:10405000C2FF70BD2DE9F04105460C4616461F46CD
:104060009148006880F8346000208F49096881F821
:10407000350039468C480068FFF7D8FF6CB104F171
:104080000808EC600122294687480068FFF790FF86
:1040900029464046FFF759FF06E00020824909689B
:1040A000C8878149096808637F4801682046FFF78F
:1040B0002BFFBDE8F08110B50489012C03D1002449
:1040C0000460446011E00C6824B94A68002414605C
:1040D00002600AE04C6824B90B6800245C6043600D
:1040E00003E00B684A685A6013600489641E048107
:1040F00000244C600C6010BD2DE9F0410446256B96
:10410000E68F0AE0D5F80C8008F108072946384602
:10411000FFF7D1FF2035701E86B2002EF2DC0020A2
:10412000E0872063BDE8F08130B50346086BCC8F93
:1041300008E0C5689D4202D10361C26104E02030FD
:10414000651EACB2002CF4DC00BF30BD10B590F899
:10415000373003EB4303524C04EB83010B893BB92B
:1041600001230B810023C36003610860486009E0FC
:104170000B895B1C0B810B68C360002303610A6819
:104180001061086010BD10B590F8373003EB4303A1
:10419000434C04EB83010B893BB901230B810023C2
:1041A000C36003610860486008E00B895B1C0B81F9
:1041B0000023C3604A680261D060486010BD10B53A
:1041C000044694F8370001F017FE94F8370033499D
:1041D0000978884203D12046FFF7D5FF02E0204648
:1041E000FFF7B4FF10BD70B505460C46164694F8AF
:1041F0003600082869D2DFE800F004050809060740
:104200002E2F00BF00BF00BF60E000BF94F8340055
:10421000032804D1324621462846FFF785FF0020B7
:104220002065A4F85400266415B12046FFF764FF0A
:1042300094F83600032802D1204604F0DDFA204627
:10424000FFF7BDFF00203434A07001206070002013
:1042500004F834093AE000BF94F83400032804D18C
:10426000324621462846FFF75FFF00202065A4F86C
:104270005400266415B12046FFF73EFF204604F0A7
:10428000BBFA04203434A07001206070002004F8D0
:1042900034091BE05D00002077000020760000203C
:1042A000FC120020FC000020F80000205461736B19
:1042B000205100005461736B2053656D00000000B5
:1042C00020000000D0000020FFE700BF00BF70BD4D
:1042D00030B5AFF21405C1F8B45000F108042268FB
:1042E0001AB193681D6AC56102E0AFF22C05C56181
:1042F00030BD2DE9F04304460F4684F83770256B36
:10430000B4F83E8013E0D5F80C9009F10806308926
:10431000012807D929463046FFF7CDFE2946304609
:10432000FFF713FE2035A8F101001FFA80F8B8F15D
:10433000000FE8D1BDE8F0830021016041600181F8
:10434000704703895B1C038103684B6000230B608B
:10435000026802B1116001600389012B00D1416044
:10436000704730B50346086BCC8F08E0C5689D42A6
:1043700002D10361C26104E02030651EACB2002CA2
:10438000F4DC00BF30BD70B506460C46154694F807
:10439000360008284CD2DFE800F0040508090607BB
:1043A0002D2E00BF00BF00BF43E000BF94F83400D3
:1043B000032804D12A4621463046FFF7D2FF0020C9
:1043C0002065A4F8540025642046FFF795FE94F874
:1043D0003600032802D1204604F00EFA2046FFF7EB
:1043E000EEFE00203434A07002206070002004F83B
:1043F00034091EE000BF94F83400032804D12A4693
:1044000021463046FFF7ADFF00202065A4F8540098
:1044100025642046FFF770FE204604F0EDF90420E5
:104420003434A07002206070002004F8340900E0E9
:1044300000BF00BF70BDF0B50446059E086BCD8F70
:104440000AE0C768A74204D1046142610383C661E0
:1044500004E020306F1EBDB2002DF2DC00BFF0BDC5
:104460002DE9F84306460C4617469846089D94F8F1
:10447000360008285BD2DFE800F0040508090607CB
:10448000323300BF00BF00BF52E000BF94F83400D9
:10449000032807D143463A46214630460095FFF7A8
:1044A000CAFF03E02765A4F85480256436B120468E
:1044B000FFF722FE21463046FFF70AFF94F8360048
:1044C000032802D1204604F097F92046FFF777FE33
:1044D00000203434A070607004F8340928E000BF74
:1044E00094F83400032807D143463A462146304623
:1044F0000095FFF7A0FF03E02765A4F8548025642A
:1045000036B12046FFF7F8FD21463046FFF7E0FEC2
:1045100094F83600072802D1204604F06DF90420F3
:104520003434A0700020607004F8340900E000BF4B
:1045300000BFBDE8F88310B501460C8924B1012CF9
:1045400003D0022C0CD101E000BF14E008684A68D7
:1045500002610024C4601461D0600A6048600AE00F
:1045600008684A68C36800241C61C4600261D060A6
:104570000B60486000BF00BF10BD0000244A254901
:10458000254A264A2649274A2748284A284A294AA6
:10459000294A2A482A482B4A2B482C4A2C482D4A7B
:1045A0002D482E482E482F482F4A304A304A31484D
:1045B000314A324A3248334833483448344835481F
:1045C0003548364A364A374A374A384838483948EB
:1045D000394A3A4A3A4A3B483B483C483C493D48BC
:1045E0003D4A3E4A3E4A3F4A3F4A404A404A414885
:1045F000414A424A42484348434A444A4448454A59
:10460000454A4648464800BF00BF00BF704700000B
:1046100004C9000868CA000805C9000806C90008DE
:1046200008C900080CC9000810C900080DC9000815
:1046300038C9000839C900083AC900083CC900084F
:104640003EC9000842C9000844C9000864C90008FE
:1046500066C9000868C900086AC900086CC9000872
:104660006EC9000870C900089CC900089DC90008EF
:104670009EC90008A0C90008A2C90008A3C9000873
:10468000A4C90008A6C90008A8C90008AAC900084A
:10469000ACC90008AEC90008B0C90008E0C90008EC
:1046A000E1C90008E2C90008E3C90008E4C900083C
:1046B000E6C90008E8C9000810CA000811CA0008C5
:1046C00012CA000813CA000814CA000816CA000853
:1046D00018CA00081CCA00081DCA00081ECA000823
:1046E0001FCA000820CA000821CA000822CA000800
:1046F00023CA000824CA000826CA000827CA0008DE
:1047000028CA00082ACA00082CCA00082DCA0008B6
:1047100030CA000860CA000861CA000862CA0008FE
:1047200064CA0008F7A1C16100214161F649096826
:1047300011B90021816105E0F34909688161F249FD
:1047400009684861F049086070472DE9F041044666
:104750000F4616461D464FF00008EC48007800282A
:1047600004DD42F6E1602880BDE8F0811CB945F621
:10477000C3502880F8E700BF00BFFFF71DF980464F
:1047800000BF00BFE24820606760266200206062D0
:1047900004F10800FFF7D0FD2046FFF7C3FFDD4816
:1047A0000088401CDB49088000BF00BF4046FFF77F
:1047B00007F900BF00BF0020288000BFD4E770B514
:1047C0000446D5482060D5A060600020206204F136
:1047D00008052846FFF7B0FD70BD426981693AB906
:1047E000C94B196009B100234B610023836109E0C3
:1047F00019B900239361436104E091614A61002388
:104800008361436170472DE9FC5F05468846144685
:1048100000200090BD480078002805DD43F2C92043
:1048200020800020BDE8FC9F25B945F6C3502080BC
:104830000020F7E7B8F1000F03D0B8F1010F02D163
:1048400000E000BF04E045F6256020800020E9E795
:1048500000BFAF492868884204D045F6C450208084
:104860000020DFE700BF00BFFFF7A6F8009000BF01
:1048700000BF05F10809B9F808603746B8F1000F24
:1048800003D0B8F1010F49D120E0A7B92846FFF7BE
:10489000A4FFA0480088401E9E4908802846FFF7D4
:1048A0008EFF00BF00BF0098FFF78AF800BF00BF6F
:1048B0000020208009E000BF00BF0098FFF780F8CB
:1048C00000BF00BF47F25F10208032E0FEF7F7FE26
:1048D00001900AE0D9F800A0DAF808B05946284655
:1048E000019AFFF750FD701E86B2002EF2D12846C5
:1048F000FFF773FF87480088401E864908802846D6
:10490000FFF75DFF00BF00BF0098FFF759F800BF39
:1049100000BFFFF7AEF9002020800AE000BF00BF13
:104920000098FFF74DF800BF00BF45F625602080D6
:1049300000BF00BF384675E72DE9F04106460F4637
:1049400014461D46DDF818807648006844677548AF
:104950000068A0F87C5000207249096888674346C7
:10496000012239463046FFF775FBBDE8F0812DE99D
:10497000F04F8BB00546884693469946DDE914749E
:104980000020019061480078002806DD46F2AE1054
:10499000208000200BB0BDE8F08F25B945F6C3504C
:1049A00020800020F6E748F20101A9EB01008945CB
:1049B00036D01ADC40F20111A9EB010089452BD059
:1049C0000CDCB9F1010F23D0B9F1020F21D0B9F1FC
:1049D000040F1FD0B9F1080F2AD11CE001281CD008
:1049E00003281BD0072823D119E0B0F5807F1BD006
:1049F00006DC012815D0032814D0072818D112E0AE
:104A0000A0F2011088B1022810D0062810D10EE0C3
:104A100000BF00BF00BF00BF00BF00BF00BF00BF9E
:104A200000BF00BF00BF00BF00BF00BF00BF04E069
:104A300045F6256020800020ACE700BF3449286897
:104A4000884204D045F6C45020800020A2E709F433
:104A5000807010B14FF0010A01E04FF0000A0FB171
:104A60000020386009F00F000A9000BF00BFFEF779
:104A7000A3FF019000BF00BF0A9801287ED0022842
:104A80007DD0042802D008287AD15FE0286A00EAA5
:104A90000806464516D1BAF1010F02D1286AB04383
:104AA00028622048006886670FB1686A386000BFD6
:104AB00000BF0198FEF784FF00BF00BF00202080E8
:104AC000304667E709F4004058B100BF00BF0198C5
:104AD000FEF776FF00BF00BF46F2B0102080002036
:104AE00058E711480078002820DD00BF00BF01987A
:104AF000FEF766FF00BF00BF46F66350208000202F
:104B000048E7000020000000600000205C0000205A
:104B1000464C4147640000204E4F4E453F464C41B5
:104B200047000000F8000020900000204B4642465D
:104B3000294602A8CDF800B0FFF7FEFE00BF00BF77
:104B40000198FEF73DFF00BF00BFEEE0286A00EAD3
:104B50000806D6B1BAF1010F02D1286AB043286223
:104B6000FA48006886670FB1686A386000BF00BF06
:104B70000198FEF725FF00BF00BF02E034E07EE0B1
:104B8000C7E000202080304604E709F4004058B117
:104B900000BF00BF0198FEF713FF00BF00BF46F241
:104BA000B01020800020F5E6E948007800280BDDF1
:104BB00000BF00BF0198FEF703FF00BF00BF46F62D
:104BC000635020800020E5E64B464246294602A875
:104BD000CDF800B0FFF7B0FE00BF00BF0198FEF7B0
:104BE000EFFE00BF00BFA0E0286A28EA00064645A5
:104BF00016D1BAF1010F02D1286A30432862D34896
:104C0000006886670FB1686A386000BF00BF01980E
:104C1000FEF7D6FE00BF00BF002020803046B9E678
:104C200009F4004058B100BF00BF0198FEF7C8FE6C
:104C300000BF00BF46F2B01020800020AAE6C448A2
:104C4000007800280BDD00BF00BF0198FEF7B8FE1A
:104C500000BF00BF46F66350208000209AE64B4616
:104C60004246294602A8CDF800B0FFF765FE00BF16
:104C700000BF0198FEF7A4FE00BF00BF55E0286A00
:104C800028EA0006B6B1BAF1010F02D1286A304312
:104C90002862AE48006886670FB1686A386000BF56
:104CA00000BF0198FEF78CFE00BF00BF00202080EF
:104CB00030466FE609F4004058B100BF00BF0198CC
:104CC000FEF77EFE00BF00BF46F2B010208000203D
:104CD00060E69F48007800280BDD00BF00BF019808
:104CE000FEF76EFE00BF00BF46F663502080002036
:104CF00050E64B464246294602A8CDF800B0FFF7E1
:104D00001BFE00BF00BF0198FEF75AFE00BF00BFA8
:104D10000BE000BF00BF0198FEF752FE00BF00BFCE
:104D200045F625602080002034E600BFFEF7A1FF95
:104D300000BF00BFFEF740FE019000BF00BF8348E8
:104D4000006890F8350030B101280CD0022828D036
:104D5000032836D117E01FB17C480068006C38602A
:104D60000020208038E01FB178480068006C38606F
:104D700000BF00BF0198FEF723FE00BF00BF46F250
:104D8000A910208028E00FB10020386000BF00BFCC
:104D90000198FEF715FE00BF00BF47F2D920208022
:104DA0001AE01FB169480068006C386000BF00BF9E
:104DB0000198FEF705FE00BF00BF45F6C2502080F7
:104DC0000AE000BF00BF0198FEF7FAFD00BF00BF78
:104DD00046F62E60208000BF00BF208808B100206A
:104DE000D8E55A480068866FBAF1010F20D10A98B9
:104DF00001280BD002280AD0042802D008280AD1A2
:104E000000E000BF286AB043286210E000BF286AB3
:104E1000304328620BE000BF00BF0198FEF7D0FDD1
:104E200000BF00BF45F6256020800020B2E500BF2E
:104E300000BF00BF0198FEF7C3FD00BF00BF002008
:104E400020803046A6E52DE9F05F05460E46144663
:104E50004FF0000A3F480078002805DD46F2AA100E
:104E600020800020BDE8F09F25B945F6C350208082
:104E70000020F7E74EB1B6F5807F07D0B6F5004FBA
:104E800005D0B6F5014F04D102E000BF00BF00BF5E
:104E900004E045F6256020800020E3E700BF2E49AE
:104EA0002868884204D045F6C45020800020D9E705
:104EB00000BF00BFFEF780FD824600BF00BF05F1C6
:104EC0000807388958B900BF00BF5046FEF778FD83
:104ED00000BF00BF46F2AB1020800020C2E74FF0B9
:104EE0000008FEF7ECFB83460FE03868D0F8089026
:104EF0005A4649462846FFF776F908F101001FFA9D
:104F000080F8B6F5807F00D002E038890028ECDC1C
:104F100000BF00BF00BF5046FEF752FD00BF00BFFC
:104F200006F4004008B9FEF7A4FE002020804046A9
:104F300098E770B5044600260648007800280DDD85
:104F400046F2AE102080002070BD0000F800002066
:104F5000900000205C000020464C414700BF00BF8D
:104F6000FEF72AFD064600BF00BFA5480068856F12
:104F700000BF00BF3046FEF723FD00BF00BF00208A
:104F800020802846E0E770B504460E4615463434C6
:104F90006664002060702070E560A078343C0828CA
:104FA0001DD2DFE800F0040508090706171800BF46
:104FB00000BF00BF14E000BF94F83600032802D100
:104FC000204603F019FC2046FFF7F9F8002084F88A
:104FD000360005E000BF042084F8360000E000BF82
:104FE00000BF2046FFF788F870BD2DE9F04F85B06F
:104FF0000446894692469B46DDF8388000200090A2
:1050000000BF00BFFEF7D8FC009000BF00BFBAF1A0
:10501000000F0AD0BAF1010F0DD0BAF5004F05D03C
:105020006FF40040504460B906E000BF206A40EAD7
:105030000900206214E000BF206A20EA0900206213
:105040000EE000BF00BF0098FEF7BAFC00BF00BF33
:1050500045F62560A8F80000002005B0BDE8F08FF7
:1050600000BFC4F824B004F1080001900198008941
:1050700058B900BF00BF0098FEF7A2FC00BF00BFF8
:105080000020A8F80000206AE7E701980768BD68DB
:1050900053E07868029095F87C0000F00F000390D0
:1050A000039801281ED0022829D0042802D00828FD
:1050B00030D10CE0206A696F00EA0106686FB042E7
:1050C00004D15A4631462846FFF75DFF2FE0206A9B
:1050D000696F00EA010626B15A4631462846FFF7B5
:1050E00052FF24E0686F216A20EA0106686FB0422F
:1050F00004D15A4631462846FFF745FF17E0686F4E
:10510000216A20EA010626B15A4631462846FFF7B1
:105110003AFF0CE000BF00BF0098FEF751FC00BF53
:1051200000BF43F6FF20A8F80000002095E700BF6D
:10513000029F0FB1BD6800E00025002DA9D100BF7E
:1051400000BF0098FEF73CFC00BF00BF0AF400401F
:1051500008B9FEF78EFD00BF00BFFEF72DFC0090E2
:1051600000BF00BF206A049000BF00BF0098FEF798
:1051700027FC00BF00BF0020A8F8000004986CE7DF
:105180002DE9F8430546884616461C462DB945F6D6
:10519000C35020800020BDE8F8834EB1012E08D016
:1051A000B6F5004F06D06FF40040304420B902E05D
:1051B00000BF00BF00BF04E045F62560208000204E
:1051C000E9E700BF0F492868884204D045F6C4507B
:1051D00020800020DFE7FEF772FA81464B46324618
:1051E000414628460094FFF700FF07463846D2E7BD
:1051F0000021054A1160054A1180018070470000B6
:10520000F8000020464C4147600000206400002068
:10521000002181617949096811B90021C16105E066
:1052200076490968C16175490968886173490860F0
:1052300070472DE9FF4F83B0044615461F46DDE950
:105240001096002000906E480078002805DD45F299
:10525000B960308007B0BDE8F08F1DB945F2BB6082
:105260003080F7E7022F03DA45F2BC603080F1E7C7
:10527000B9F1040F03D245F2C1603080EAE74FF084
:10528000030ABAF1000F0DD005EA0A0018B145F281
:10529000BB603080DEE709EA0A0018B145F2C16060
:1052A0003080D7E7AB46A846781E80B20190002038
:1052B000029007E0C844CBF80080C3460298401C27
:1052C00080B20290DDE901108842F3DB0020CBF8C8
:1052D000000000BF00BFFEF76FFB009000BF00BFE3
:1052E000484820600498A0606560E560A7826782F6
:1052F000A4F810902046FFF78BFF43480088401C1D
:105300004149088000BF00BF0098FEF759FB00BF6D
:1053100000BF0020308000BF9CE72DE9F04104462B
:105320000D4600272CB945F2BF6028800020BDE85B
:10533000F08100BF00BFFEF73FFB074600BF00BF84
:10534000A08A58B900BF00BF3846FEF739FB00BF3E
:1053500000BF45F2C26028800020E8E7E6683068B8
:10536000E060A08A401EA08200BF00BF3846FEF762
:1053700027FB00BF00BF002028803046D7E72DE97B
:10538000F04104460E461546002724B945F2BF6099
:105390002880BDE8F0811EB945F2BE602880F8E79C
:1053A00000BF00BFFEF708FB074600BF00BFA08A92
:1053B000618A88420ADB00BF00BF3846FEF700FB67
:1053C00000BF00BF45F2BA602880E2E7E0683060C5
:1053D000E660A08A401CA08200BF00BF3846FEF7EE
:1053E000EFFA00BF00BF0020288000BFD1E70021F6
:1053F000024A1160044A1180018070476800002051
:105400005C0000204D454D206C00002070B5014629
:10541000854D2D681DB945F21E750D8070BD834DFB
:105420002D881DB945F21D750D80F7E77E4D286862
:105430002A6810327D4D2D886D1EACB2002308E025
:105440000260002545600581C560103010325D1C8A
:10545000ABB2A342F4DB0025056045600581C56061
:10546000714D2D68724E3560704D2D88B5800025C8
:10547000F58035810D8000BFD0E710B50146488921
:105480004B89002B17DD0A68694B1B681360684C59
:105490004B6823602346DB884C891B1B644CE380EC
:1054A00023469B884C892344614CA38000234B8175
:1054B0008B810B604B6010BD018100224281828193
:1054C000026042607047F0B504460D46608940B9FD
:1054D0000020288002B1106046F29250188000200F
:1054E000F0BD61684E68088928800AB1C8681060FC
:1054F00008686060606818B900202060608102E080
:105500006089401E60814A48006808604848016020
:105510008088401C464FB8803846C088401EF880BE
:10552000002018803046DBE72DE9F0410D46DDE92B
:105530000674B0F80AC0B0F80880C44505DB46F22E
:10554000935CA4F800C0BDE8F081DFF8E4C0BCF8CB
:1055500004C0BCF1000F04D145F21D7CA4F800C0CA
:10556000F1E7DFF8CCC0DCF80010DFF8C480D1F838
:1055700000C0C8F800C0C446BCF804C0ACF1010CBF
:10558000A8F804C0C446BCF806C00CF1010CA8F889
:1055900006C0C446BCF808C0B8F80680C44507DA9F
:1055A000DFF88CC0BCF806C0DFF88480A8F808C01B
:1055B000B0F80AC0BCF1000F0AD1016041604FF0A1
:1055C000010CA0F80AC04FF0000CC1F800C017E0B1
:1055D00003F0100CBCF1000F07D1066831600160C8
:1055E0004FF0000CC1F800C004E0D0F804C0C1F8CE
:1055F00000C04160B0F80AC00CF1010CA0F80AC06C
:10560000B0F80CC0B0F80A80C44503DAB0F80AC09C
:10561000A0F80CC04D600A81CF604FF0000CA4F8D8
:1056200000C000BF8FE70000B0C80008A8C800088D
:10563000F0120020FEA1C16100214161FD4909680D
:1056400011B90021816105E0FA4909688161F949D0
:1056500009684861F749086070472DE9F041044640
:105660000E4615460027F4480078002804DD42F66F
:10567000E1602880BDE8F0811CB945F6C350288060
:10568000F8E700BF00BFFEF797F9074600BF00BF6D
:10569000EA48206066600020206284F82500A0624D
:1056A000402084F8240004F10800FEF745FE20465F
:1056B000FFF7C0FFE2480088401CE149088000BFB6
:1056C00000BF3846FEF77CF900BF00BF00202880ED
:1056D00000BFCFE710B50446DA482060DAA060606A
:1056E0000020206284F82500A062402084F8240075
:1056F00004F10800FEF720FE10BD426981693AB945
:10570000CC4B196009B100234B610023836109E090
:1057100019B900239361436104E091614A61002358
:105720008361436170472DE9FE4F05468946144663
:1057300000200090C0480078002805DD43F2C92011
:1057400020800020BDE8FE8F25B945F6C35020809B
:105750000020F7E7B9F1000F03D0B9F1010F02D132
:1057600000E000BF04E045F6256020800020E9E766
:1057700000BFB2492868884204D045F6C450208052
:105780000020DFE700BF00BFFEF716F9009000BF62
:1057900000BF05F1080ABAF80870B846B9F1000F61
:1057A00003D0B9F1010F7DD122E0B8F1000F14D17F
:1057B0002846FFF7A2FFA2480088401EA0490880A3
:1057C0002846FFF787FF00BF00BF0098FEF7F8F8F4
:1057D00000BF00BF0020208009E000BF00BF00988C
:1057E000FEF7EEF800BF00BF47F25F10208074E0C4
:1057F0002E6A76B396F8370095F82410884236D092
:1058000096F83600082825D2DFE800F004131A1BAA
:1058100014151C1D3046FEF7DEFB95F8240086F8B3
:10582000370096F8370000F0E7FA3046FEF7ABFC99
:105830001CE000BF00BF95F8240086F8370015E093
:1058400000BF00BF00BF95F824103046FEF751FDA1
:105850000CE00CE000BF00BF0098FEF7B1F800BFFD
:1058600000BF46F62D60208000206BE700BFFDF7EB
:1058700026FF01900BE0DAF800B0DBF80800029098
:105880002846DDE90121FEF77EFD781E87B2002F54
:10589000F1D12846FFF731FF69480088401E68496A
:1058A000088000E00EE02846FFF714FF00BF00BFAD
:1058B0000098FEF785F800BF00BFFEF7DAF9002078
:1058C00020800AE000BF00BF0098FEF779F800BF13
:1058D00000BF45F62560208000BF00BF404631E78D
:1058E0002DE9F04788B00546894690461C46109E33
:1058F0004FF0000A50480078002805DD46F2AE104F
:10590000308008B0BDE8F0871DB945F6C35030803F
:10591000F7E7B8F1000F03D0B8F5004F02D100E06F
:1059200000BF03E045F625603080EAE700BF434949
:105930002868884203D045F6C4503080E1E70CB1B6
:105940000020206000BF00BFFEF736F8824600BF8F
:1059500000BF95F82500C0B93D48006828623C4862
:10596000006890F8370085F82400012085F82500AC
:105970000CB1A86A206000BF00BF5046FEF720F8B7
:1059800000BF00BF00203080BBE73149286A0968AA
:10599000884212D195F82500401C85F825000CB1ED
:1059A000A86A206000BF00BF5046FEF709F800BF9C
:1059B00000BF45F282703080A3E708F4004050B188
:1059C00000BF00BF5046FDF7FBFF00BF00BF46F21F
:1059D000B010308095E71F48007800280ADD00BF2E
:1059E00000BF5046FDF7ECFF00BF00BF46F6635016
:1059F000308086E72F6A97F837001549096891F8D3
:105A00003710884250DD97F83600082840D2DFE88A
:105A100000F0042B34352D2C36373846FEF7DBFAF0
:105A20000B48006890F8370087F8370014E0000052
:105A300020000000700000205C0000204D555458EC
:105A4000740000204E4F4E453F4D555445580000C0
:105A5000F80000209000002097F8370000F0CCF903
:105A60003846FEF773FB1EE000BF00BFCE4800685B
:105A700090F8370087F8370015E000BF00BF00BF7F
:105A8000C948006890F837103846FEF732FC0AE043
:105A900000BF00BF5046FDF793FF00BF00BF46F6B2
:105AA0002D6030802DE700BF4B4604222946684612
:105AB000FEF7D0FA00BF00BF5046FDF781FF00BFE0
:105AC00000BFFEF7D6F800BF00BFFDF775FF8246A6
:105AD00000BF00BFB448006890F8350030B101281D
