:020000040800F2
:1000000000140020A50400087B0200087D020008FF
:100010008102000885020008890200080000000033
:100020000000000000000000000000008D02000839
:100030008F020008000000009102000893020008EF
:10004000BF040008BF040008BF040008BF04000884
:10005000BF040008BF040008BF040008BF04000874
:10006000BF040008BF040008BF040008BF04000864
:10007000BF040008BF040008BF040008BF04000854
:10008000BF040008BF040008BF040008BF04000844
:10009000B3310008BF040008BF040008BF04000813
:1000A000BF040008BF040008BF040008BF04000824
:1000B000BF04000889340008BF040008BF0400081A
:1000C000BF040008BF040008BF040008BF04000804
:1000D000BF0400084D3400086B340008BF0400085A
:1000E000BF040008BF040008BF040008BF040008E4
:1000F000BF040008BF040008BF040008BF040008D4
:10010000BF040008BF040008BF040008BF040008C3
:10011000BF040008BF040008BF040008BF040008B3
:10012000BF040008BF040008BF040008BF040008A3
:10013000BF040008BF040008BF040008BF04000893
:10014000BF04000845340008BF040008BF040008CD
:10015000BF040008BF040008BF040008BF04000873
:10016000BF040008BF040008BF040008BF04000863
:10017000BF040008BF040008BF040008BF04000853
:10018000BF040008BF04000800F002F800F05CF8AB
:100190000AA090E8000C82448344AAF10107DA45E2
:1001A00001D100F051F8AFF2090EBAE80F0013F0D8
:1001B000010F18BFFB1A43F001031847487C0000E9
:1001C000687C00000A444FF0000C10F8013B13F06B
:1001D000070408BF10F8014B1D1108BF10F8015BA0
:1001E000641E05D010F8016B641E01F8016BF9D193
:1001F00013F0080F1EBF10F8014BAD1C0C1B09D1EA
:100200006D1E58BF01F801CBFAD505E014F8016B5B
:1002100001F8016B6D1EF9D59142D6D370470000ED
:100220000023002400250026103A28BF78C1FBD8FF
:10023000520728BF30C148BF0B6070471FB507F099
:1002400020FD1FBD10B510BD06F08EFC1146FFF756
:10025000F5FF00F008F806F0ACFC03B4FFF7F2FF7E
:1002600003BC02F01DFC02F07CFF00BF04E006F0BE
:1002700097FB642002F0F4FBF9E7704700BFFEE74C
:1002800000BFFEE700BFFEE700BFFEE77047704714
:10029000704770470CB500200190009076480068C8
:1002A00040F480307449086000BF7348006800F46F
:1002B000003000900198401C0190009818B90198F6
:1002C000B0F5A04FF1D16C48006800F4003010B1D7
:1002D0000120009001E0002000900098012846D104
:1002E00065484030006840F0805063494031086004
:1002F0006248006840F44040604908605E48083049
:1003000000685D49083108600846006840F4004014
:1003100008600846006840F4A05008605848091F6B
:100320000860081F006840F08070091F086000BF67
:100330005148006800F000700028F9D040F20570C4
:10034000504908604C480830006820F003004A49D2
:10035000083108600846006840F00200086000BFED
:1003600045480830006800F00C000828F8D10CBDA2
:1003700010B54548006840F47000434908603E48A5
:10038000006840F001003C49086000203A4908310B
:100390000860394800683D490840374908603C48D2
:1003A000091D0860081F006820F48020091F0860EC
:1003B000002031490C310860FFF76CFF4FF00060FE
:1003C00031498039086010BD70B500200022022339
:1003D00000240221284D08352D6805F00C0020B1BD
:1003E000042806D0082834D107E02A4D2A4E35606B
:1003F00033E02A4D284E35602FE01F4D2D1D2D680E
:10040000C5F380541C4D2D1D2D6805F03F0154B1DE
:10041000224DB5FBF1F5184E361D3668C6F3881629
:1004200005FB06F209E01B4DB5FBF1F5124E361D3A
:100430003668C6F3881605FB06F20F4D2D1D2D6894
:10044000C5F301456D1C6B00B2FBF3F5124E356030
:1004500003E0104D104E356000BF00BF064D08355B
:100460002D68C5F303150E4E705D0B4D2D68C5400C
:10047000094E356070BD0000003802400070004039
:1004800008544007003C024088ED00E0FFFFF6FE04
:10049000103000240024F4001000002000127A0024
:1004A000140000200948804709480047FEE7FEE79E
:1004B000FEE7FEE7FEE7FEE7FEE7FEE7FEE7FEE714
:1004C00004480549054A064B7047000071030008BF
:1004D00089010008000E00200014002000100020F8
:1004E0000010002032490143324A1160704770B554
:1004F000002100230F22C4781CB32E4C246804F47E
:10050000E064C4F5E064C4F30721C1F10404E3B27C
:100510000A4144789C40E1B28478144021430C079E
:10052000210E254C05786155047804F01F0501243F
:10053000AC4005786D11AD0005F1E025C5F800412E
:1005400009E0047804F01F050124AC401B4D067837
:10055000761145F8264070BD194A0A400243154BF2
:100560001B1F1A60704739B1124A121D12680243EC
:10057000104B1B1D1A6006E00E4A121D12688243C2
:100580000C4B1B1D1A607047042808D14FF0E02166
:10059000096941F004014FF0E022116107E04FF0DA
:1005A000E021096921F004014FF0E0221161704758
:1005B0000000FA050CED00E000E400E080E100E05E
:1005C00080FFFF1F10B50446FE48844209D1012177
:1005D000480601F0B1F800214FF0007001F0ACF8CE
:1005E00008E00121880601F0A7F800214FF08060A3
:1005F00001F0A2F810BD30B50246002000231468B7
:1006000024F002041460146844F00104146000E053
:100610005B1C546804F001041CB94FF6FF74A3423C
:10062000F6D1546804F001040CB900206CE08C7918
:10063000012C04D1146844F08004146003E01468B1
:1006400024F080041460CC79012C04D1146844F0A7
:100650004004146003E0146824F0400414600C7A31
:10066000012C04D1146844F02004146003E01468E1
:1006700024F0200414604C7A012C04D1146844F056
:100680001004146003E0146824F0100414608C7AE1
:10069000012C04D1146844F00804146003E01468C9
:1006A00024F008041460CC7A012C04D1146844F0BE
:1006B0000404146003E0146824F0040414608C78CB
:1006C000A407CD7844EA05640D7944EA05444D79E0
:1006D00044EA05540D886D1E2C43D461146824F03F
:1006E00001041460002300E05B1C546804F0010462
:1006F0001CB14FF6FF74A342F6D1546804F0010414
:100700000CB1002000E0012030BD10B50021837A3B
:10071000012202FA03F1AC4A126842F00102AA4B2C
:100720001A60A94A1C3212688A43A74B1C331A600C
:10073000027BCAB9A44A0C3212688A43A24B0C331A
:100740001A604288C38842EA03439F4A4032847A4F
:1007500042F834300288838842EA03439A4A40329E
:10076000847A02EBC4025360027B012A19D1964AB3
:100770000C3212680A43944B0C331A604288038887
:1007800042EA0343904A4032847A42F83430C288C5
:10079000838842EA03438C4A4032847A02EBC402E3
:1007A0005360C27A3AB9884A121D12688A43864B4E
:1007B0001B1D1A6006E0844A121D12680A43824B10
:1007C0001B1D1A60028932B97F4A143212688A43AB
:1007D0007D4B14331A600289012A06D17A4A1432F9
:1007E00012680A43784B14331A60427B012A06D1FF
:1007F000754A1C3212680A43734B1C331A60724AE2
:10080000126822F00102704B1A6010BD0021817144
:10081000C171017241728172C1728170C170032114
:100820000171022141710121018070476649096807
:1008300041F00101644A11601146096843F60E72E5
:100840009143614A11601146096841EA0021116033
:100850001146096821F001011160704721B1026859
:1008600042F48032026003E0026822F480320260C7
:100870007047E1B1026842F0800202604FF4C27238
:10088000125842F480734FF4C27213504FF4CA727C
:10089000125842F480734FF4CA7213504FF4D2725C
:1008A000125842F480734FF4D27213501BE0026866
:1008B00022F0800202604FF4C272125822F4807358
:1008C0004FF4C27213504FF4CA72125822F480735C
:1008D0004FF4CA7213504FF4D272125822F480733C
:1008E0004FF4D2721350704710B50246002093683F
:1008F00003F08063B3F1806F00D110E0936803F0E0
:100900000063B3F1006F01D1012008E0936803F0A8
:100910008053B3F1805F01D1022000E0042004285D
:1009200079D002F5C07303EB00131B6803F00104D8
:1009300002F5C07303EB00131C600B7A7BB94B7A92
:100940000C8843EA445302F5C07404EB0014246895
:10095000234302F5C07404EB0014236010E00B7A0B
:100960004C6843EAC4034C7A234302F5C07404EB99
:1009700000142468234302F5C07404EB00142360C0
:100980008B7A03F00F038B7202F5C07303EB001335
:100990005B6823F00F0402F5C07303EB00135C6087
:1009A00002F5C07303EB00135B688C7A234302F5F6
:1009B000C07404EB001463608B7B1C064B7B44EA21
:1009C000034403E000640040006600400B7B44EAFF
:1009D0000323CC7A234302F5C07404EB0014A36014
:1009E0008B7C1C064B7C44EA03440B7C44EA0323C7
:1009F000CC7B234302F5C07404EB0014E36002F5E2
:100A0000C07303EB00131B6843F0010402F5C073CD
:100A100003EB00131C6010BD10B50246002321B18A
:100A2000012907D002290FD109E09068F94C00EAAA
:100A300004030BE09068F84C00EA040306E09068B9
:100A4000F64C00EA040301E0002300BF00BFF44CB1
:100A5000181BA34216D007DC83B16FF080601844E6
:100A600070B1022818D111E0B0F5007F10D0ED4C24
:100A7000204448B1B0F5003F0ED10BE002230DE059
:100A800000230BE0002309E0002307E0012305E039
:100A9000012303E0012301E0002300BF00BFD8B21F
:100AA00010BD21B1012907D002290FD109E08268C8
:100AB00042F0800282600AE0826842F40042826072
:100AC00005E0826842F40002826000E000BF00BFDF
:100AD000704710B500F5D87303EB01131B6803F0E2
:100AE00004031372137A53B900F5D87303EB01139F
:100AF0001B6840F2FF7404EA5353136009E000F5E9
:100B0000D87303EB01131B686FF0604404EAD3034E
:100B1000536000F5D87303EB01131B6803F0020365
:100B2000537200F5D87303EB01135B6803F00F03F6
:100B3000937200F5D87303EB01135B681B0AD3743F
:100B400000F5D87303EB01139B68D37200F5D873DB
:100B500003EB01139B681C0A147300F5D87303EBB5
:100B600001139B681C0C547300F5D87303EB01133D
:100B70009B681B0E937300F5D87303EB0113DB68BE
:100B8000D37300F5D87303EB0113DB681C0A1474EC
:100B900000F5D87303EB0113DB681C0C547400F5EB
:100BA000D87303EB0113DB681B0E937421B9C36880
:100BB00043F02003C36003E0036943F020030361B3
:100BC00010BD21B9C26842F02002C26003E0026990
:100BD00042F02002026170470246002019B9D36832
:100BE00003F0030006E0012903D1136903F00300B9
:100BF00000E00020704710B502460B4600204FF67B
:100C0000FF71BBB9146824F0020444F001041460BD
:100C100000E0491E546804F00304012C01D00029AF
:100C2000F7D1546804F00304012C01D0002032E015
:100C3000012030E0012B13D1146824F00304146068
:100C400000E0491E546804F003040CB10029F8D1F7
:100C5000546804F003040CB100201CE001201AE0E9
:100C6000022B17D1146824F0010444F0020414602C
:100C700000E0491E546804F00304022C01D000294E
:100C8000F7D1546804F00304022C01D0002002E0E4
:100C9000012000E0002010BD014600200A6822F07B
:100CA000010242F002020A604A6802F00302022ACC
:100CB00000D10120704701464FF6FF7200200B68FB
:100CC00023F002030B6000E0521E4B6803F00203A6
:100CD000022B01D1002AF7D14B6803F00203022B4B
:100CE00000D001207047014600208A6902F07000A0
:100CF0007047014600208A69100E704701460020A7
:100D00008A69C2F3074070471AB143690B434361D4
:100D100002E043698B434361704710B502460020EF
:100D200001F4700343B19369C1F3130423400BB181
:100D300001202DE000202BE001F0807343B15368C7
:100D4000C1F3130423400BB1012021E000201FE078
:100D500001F0006343B19368C1F3130423400BB166
:100D6000012015E0002013E001F0007343B1D368C7
:100D7000C1F3130423400BB1012009E0002007E078
:100D80001369C1F3130423400BB1012000E00020DC
:100D900010BD0022244B994202D10023836111E04F
:100DA000C1F3130201F000730BB1C2600AE001F05D
:100DB00080630BB1026105E001F000630BB182605A
:100DC00000E0426070470246002002EA01030BB1D6
:100DD000012000E00020704770B504460D46002653
:100DE00060692840002872D0B5F5807F69D01DDC8D
:100DF000082D42D006DC012D2DD0022D31D0042D3E
:100E00007FD134E0102D3ED0202D42D0402D78D11E
:100E100045E0000003000004000300080000031088
:100E2000000100080001FFF77000F030B5F5004F39
:100E300061D009DCB5F5007F4AD0B5F5806F4DD0A3
:100E4000B5F5006F5DD150E0B5F5803F2DD0B5F51B
:100E5000003F56D12FE0A0685549FFF7B4FF064682
:100E600051E0E0680321FFF7AEFF06464BE0E06883
:100E70000821FFF7A8FF064645E0E0681021FFF7CC
:100E8000A2FF06463FE020690321FFF79CFF0646CC
:100E900039E020690821FFF796FF064633E0206914
:100EA0001021FFF790FF06462DE060680821FFF74C
:100EB0008AFF064627E060681021FFF784FF064698
:100EC00021E0A0690121FFF77EFF06461BE01BE041
:100ED000A0690221FFF777FF064614E0A06904210C
:100EE000FFF771FF06460EE00BE0A0697021FFF7E7
:100EF0006AFF064607E060680421FFF764FF0646C4
:100F000001E0002600BF00E00026304670BDB1F5CC
:100F1000007F3AD00FDC202928D006DC01291CD024
:100F200004291DD0082940D11DE0402921D0B1F568
:100F3000807F3AD126E0B1F5004F31D006DCB1F523
:100F4000806F25D0B1F5006F2FD124E0B1F5803F3F
:100F500012D0B1F5003F28D111E0154A826025E09A
:100F60000822C26022E01022C2601FE00822026153
:100F70001CE01022026119E00822426016E01022F3
:100F8000426013E00422426010E0042242600DE05F
:100F9000042242600AE0002282610422426005E0ED
:100FA000002282610422426000E000BF00BF70475F
:100FB0000101010010B504469848844208D101217E
:100FC000084600F086FB0021012000F082FB76E05D
:100FD0009348844208D10121022000F07AFB0021CD
:100FE000022000F076FB6AE08E48844208D101219D
:100FF000042000F06EFB0021042000F06AFB5EE09C
:101000008948844208D10121082000F062FB0021B8
:10101000082000F05EFB52E08448844208D10121A0
:10102000102000F056FB0021102000F052FB46E09B
:101030007F48844208D10121202000F04AFB002192
:10104000202000F046FB3AE07A48844208D1012192
:10105000402000F03EFB0021402000F03AFB2EE053
:101060007548844208D10121802000F032FB002124
:10107000802000F02EFB22E07048844208D101213C
:10108000801500F026FB0021A01500F022FB16E0E1
:101090006B48844208D10121401500F01AFB002161
:1010A000601500F016FB0AE06648844207D1012172
:1010B000001500F00EFB0021201500F00AFB10BD0A
:1010C000F0B50A4600210023002400BF3DE00125C1
:1010D00005FA01F3156805EA03049C4234D105685A
:1010E0004F000326BE40B543056015794E00B5405C
:1010F0000668354305601579012D02D01579022D5A
:1011000016D185684F000326BE40B54385605579EA
:101110004E00B540866835438560456801268E409F
:10112000B5434560456896798E40B6B23543456013
:10113000C5684F000326BE40B543C560D5794E0053
:10114000B540C6683543C560491C1029BFD3F0BD02
:101150004FF6FF7101600021017141718171C17110
:10116000704708B54FF480320092009A0A4300920B
:10117000009AC261C161009AC261C2690092C269EB
:10118000009208BD0246002013690B400BB10120FC
:1011900000E0002070470146086980B270470246AF
:1011A000002053690B400BB1012000E00020704784
:1011B0000146486980B27047018370474183704798
:1011C0000AB1018300E04183704741617047426981
:1011D0004A4042617047F0B5002300244D07ED0EF0
:1011E00002FA05F3CE1000F1200555F826504E07FF
:1011F000F70E0F26BE40B543CF1000F1200646F88B
:101200002750CE1000F1200555F8265045EA03047A
:10121000CE1000F1200545F82640F0BD0000024048
:101220000004024000080240000C0240001002408E
:101230000014024000180240001C0240002002403E
:101240000024024000280240F948006840F00100F4
:10125000F74908600020F64908310860F448006842
:10126000F4490840F2490860F348091D0860F34852
:10127000EF4984310860F0481038091D0860EC48D7
:10128000006820F48020EA4908600020E8490C3119
:101290000860E7498C31086070470021E44A921CDD
:1012A000117011460870704710B5014600220023E6
:1012B00000204A11012A02D1DD4C236808E0022AED
:1012C00003D1DB4C7034236802E0D94C74342368BA
:1012D00001F01F02012494401C400CB1012000E0E9
:1012E000002010BD38B5002000900024002500BF6C
:1012F0003120FFF7D9FF05460098401C0090009868
:10130000B0F5A04F01D0002DF2D03120FFF7CCFF77
:1013100008B1012400E00024204638BD0146002029
:10132000C34A106820F0F80040EAC100106070471E
:10133000C349086070470021BD4A703211701170B6
:10134000012802D004280AD104E00121B84A7032F1
:10135000117005E00521B64A7032117000E000BF3F
:1013600000BF7047B7490860704770B5049C41EAF8
:1013700082150126C6EB530645EA0645054345EAB4
:101380000465AB4E361D356070BDAD4908667047CB
:10139000820142EA0172A64B84331A607047A84961
:1013A0008866704710B5830143EA016343EA02731C
:1013B0009F4C8834236010BDA14908677047A0493D
:1013C000C864704702460020994B0833186820F023
:1013D000EC6042EA01031843954B083318607047EC
:1013E00002460020924B0833186820F0784042EA09
:1013F000010318438E4B08331860704701460020E4
:101400008B4A0832106820F00300084310607047D0
:1014100087480830006800F00C0070470146002043
:10142000834A0832106820F0F000084310607047CB
:10143000014600207E4A0832106820F4E05008433C
:101440001060704701460020794A0832106820F485
:10145000604040EAC10010607047F0B500210022F2
:101460000024022500260223714F08373F6807F049
:101470000C0121B1042905D0082937D105E0724FAC
:10148000076036E0714F076033E0694F3F1D3F68EA
:10149000C7F38056664F3F1D3F6807F03F036EB1AC
:1014A0006A4FB7FBF3F7DFF888C10CF1040CDCF8E6
:1014B00000C0CCF3881C07FB0CF40CE0624FB7FBB8
:1014C000F3F7DFF86CC10CF1040CDCF800C0CCF3CE
:1014D000881C07FB0CF4564F3F1D3F68C7F30147BC
:1014E0007F1C7D00B4FBF5F7076002E0564F0760F4
:1014F00000BF00BF4E4F08373F6807F0F0010909F1
:10150000534F7A5C0768D7404760494F08373F68B8
:1015100007F4E051890A4E4F7A5C4768D7408760EC
:10152000434F08373F6807F46041490B484F7A5CE6
:101530004768D740C760F0BD002100F44072B2F5A3
:10154000407F0AD13A4A0832116821F4F811414A21
:1015500002401143364A08321160354A703212682F
:10156000C0F30B031A43324B70331A60704735498E
:10157000443908607047334940390860704736493C
:101580000860704701460020294A8C32106820F01C
:101590001F004A1E1043264A8C32106070470146D5
:1015A0000020234A8C32106820F4F8504A1E40EA8A
:1015B00002201F4A8C3210607047014600201C4AEE
:1015C0008C32106820F440100843106070470146C8
:1015D0000020174A8C32106820F440000843106045
:1015E000704701460020124A8C32106820F44030C7
:1015F00008431060704719490860704739B10C4AB8
:101600003032126802430A4B30331A6006E0084A4F
:10161000303212688243064B30331A607047F9B19A
:10162000034A343212680243014B34331A601CE01F
:1016300000380240FFFFF6EA10300024003000209E
:1016400000004742800E47420024F40000127A0056
:1016500024000020FFFCFF0F5C014742E0114742DD
:101660008F4A126882438E4B1A60704739B18C4A98
:10167000121D126802438A4B1B1D1A6006E0884A3D
:10168000121D12688243864B1B1D1A60704739B1C8
:10169000834A0C3212680243814B0C331A6006E015
:1016A0007F4A0C32126882437D4B0C331A607047BC
:1016B00039B17B4A103212680243794B10331A60F9
:1016C00006E0774A103212688243754B10331A6075
:1016D000704739B1724A243A12680243704B243B76
:1016E0001A6006E06E4A243A126882436C4B243B2F
:1016F0001A60704739B16A4A203A12680243684B4F
:10170000203B1A6006E0664A203A12688243644B26
:10171000203B1A60704739B1614A1C3A1268024393
:101720005F4B1C3B1A6006E05D4A1C3A126882431C
:101730005B4B1C3B1A60704739B1594A143A126826
:101740000243574B143B1A6006E0554A143A12689C
:101750008243534B143B1A60704739B1504A103AD8
:10176000126802434E4B103B1A6006E04C4A103A96
:10177000126882434A4B103B1A60704739B1484A9D
:101780001C3212680243464B1C331A6006E0444A7E
:101790001C3212688243424B1C331A60704739B1C5
:1017A0003F4A2032126802433D4B20331A6006E064
:1017B0003B4A203212688243394B20331A6070470B
:1017C00039B1374A243212680243354B24331A6048
:1017D00006E0334A243212688243314B24331A60C4
:1017E000704739B12E4A2C32126802432C4B2C33ED
:1017F0001A6006E02A4A2C3212688243284B2C33A6
:101800001A60704739B1264A303212680243244BBD
:1018100030331A6006E0224A303212688243204B8D
:1018200030331A607047012808D11D493C310968DE
:1018300041F008011A4A3C32116007E018493C3176
:10184000096821F00801164A3C321160704739B12D
:10185000134A273A12780243114B273B1A7006E0CD
:101860000F4A273A127882430D4B273B1A70704774
:101870000B484030006840F08070094940310860F2
:10188000704701460020064A283A12680A400AB109
:10189000012000E000207047014926390870704798
:1018A0003438024010B50446FE48844208D1012174
:1018B0000846FFF752FF00210120FFF74EFF9DE091
:1018C000B4F1804F08D101210846FFF735FF002110
:1018D0000120FFF731FF91E0F348844208D1012154
:1018E0000220FFF729FF00210220FFF725FF85E0F6
:1018F000EE48844208D101210420FFF71DFF00219A
:101900000420FFF719FF79E0E948844208D101215A
:101910000820FFF711FF00210820FFF70DFF6DE001
:10192000E448844208D101211020FFF705FF00217F
:101930001020FFF701FF61E0DF48844208D1012158
:101940002020FFF7F9FE00212020FFF7F5FE55E0EB
:10195000DA48844208D101210220FFF7FEFE00216F
:101960000220FFF7FAFE49E0D548844209D101215F
:101970000804FFF7F2FE00214FF48030FFF7EDFE80
:101980003CE0D048844209D101214804FFF7E5FE3C
:1019900000214FF40030FFF7E0FE2FE0CA488442F8
:1019A00009D101218804FFF7D8FE00214FF48020DF
:1019B000FFF7D3FE22E0C548844208D10121402030
:1019C000FFF7BAFE00214020FFF7B6FE16E0C04840
:1019D000844208D101218020FFF7AEFE0021802043
:1019E000FFF7AAFE0AE0BB48844207D10121801517
:1019F000FFF7A2FE0021A015FFF79EFE10BD0022FA
:101A00000288A84B98420ED0AC4B98420BD0B0F154
:101A1000804F08D0A44B984205D0A44B984202D0E6
:101A2000A34B984204D14FF68F731A404B881A4348
:101A3000A04B984207D0A04B984204D04FF6FF43EA
:101A40001A400B891A4302804B68C3620B880385D6
:101A5000944B984202D0994B984201D18B7A0386DD
:101A60000123838270474FF0FF31416000210180E4
:101A700001814180817270470185828270470A46E8
:101A8000002101884FF68F73194011430180704780
:101A900041627047C16270470146486A704701461B
:101AA000088D704721B1028842F00202028004E0F2
:101AB00002884FF6FD731A400280704721B10288F8
:101AC00042F00402028004E002884FF6FB731A40E1
:101AD0000280704721B1028842F08002028004E057
:101AE00002884FF67F731A400280704702884FF6D3
:101AF000F7731A40028002880A4302807047028806
:101B00004FF6FF431A40028002880A430280704762
:101B100021B1028842F00102028004E002884FF6FF
:101B2000FE731A400280704770B500240022002323
:101B3000058C4FF6FE7635400584028C8388048B35
:101B40004FF68F752C40B51E2C400D882C43751E0A
:101B50002A408D892A434D882A43524DA84202D0FB
:101B6000564DA84213D14FF6F7752A40CD892A4326
:101B70004FF6FB752A408D882A434FF6FF652B40B0
:101B80004FF6FF552B400D8A2B434D8A2B43838004
:101B900004838D684563028470BD70B50024002203
:101BA0000023058C4FF6EF7635400584028C838840
:101BB000048B48F6FF752C404FF6FF452C400D88EE
:101BC0004FF6FF7606EA05252C434FF6DF752A40CF
:101BD0008D8906EA05152A434D8806EA05152A432C
:101BE000304DA84202D0354DA8421DD14FF67F7529
:101BF0002A40CD894FF6FF7606EA05152A434FF6AF
:101C0000BF752A408D8806EA05152A434FF6FF3531
:101C10002B404FF2FF752B400D8A06EA85052B43BA
:101C20004D8A06EA85052B43838004838D6885638E
:101C3000028470BD70B5002400220023058C4FF68D
:101C4000FF6635400584028C8388848B4FF68F7540
:101C50002C404FF6FC752C400D882C434FF6FF5559
:101C60002A408D894FF6FF7606EA05252A434D88DE
:101C700006EA05252A430B4DA84202D00F4DA84283
:101C800038D14FF2FF752A40CD894FF6FF7606EA2C
:101C900005252A434FF6FF352A408D8806EA05259B
:101CA0002A4319E000000140000400400008004001
:101CB000000C0040001000400014004000040140EF
:101CC000004001400044014000480140001800402D
:101CD000001C0040002000404EF6FF752B404DF6E2
:101CE000FF752B400D8A06EA05152B434D8A06EA3F
:101CF00005152B43838084838D68C563028470BD82
:101D000070B5002200230024058C4EF6FF76354086
:101D10000584038C8488828B48F6FF752A404FF631
:101D2000FF452A400D884FF6FF7606EA05252A432F
:101D30004DF6FF752B408D8906EA05352B434D88FE
:101D400006EA05352B43FE4DA84202D0FD4DA842C0
:101D500008D14BF6FF752C400D8A4FF6FF7606EA48
:101D600085152C43848082838D680564038470BD4F
:101D7000002101804180818081608181C181018257
:101D80004182704770B50346002000241846183081
:101D900001258D40ACB21D8CA5431D8409B10829D5
:101DA0000AD100EB610005684FF68F76354005607B
:101DB0000568154305600FE00D1FC5F34E05284467
:101DC000056848F6FF763540056005684FF6FF76F2
:101DD00006EA02263543056070BD416370478163A2
:101DE0007047C1637047016470470A460021018B48
:101DF0004FF68F7319401143018370470A46002143
:101E0000018B48F6FF7319404FF6FF7303EA022374
:101E10001943018370470A460021818B4FF68F7367
:101E200019401143818370470A460021818B48F68F
:101E3000FF7319404FF6FF7303EA022319438183AE
:101E400070470A460021018B4FF6F7731940114382
:101E5000018370470A460021018B4FF2FF7319403E
:101E60004FF6FF7303EA02231943018370470A46C2
:101E70000021818B4FF6F77319401143818370471E
:101E80000A460021818B4FF2FF7319404FF6FF7312
:101E900003EA02231943818370470A460021018B1C
:101EA0004FF6FB7319401143018370470A46002126
:101EB000018B4FF6FF3319404FF6FF7303EA0223FD
:101EC0001943018370470A460021818B4FF6FB734B
:101ED00019401143818370470A460021818B4FF6D8
:101EE000FF3319404FF6FF7303EA0223194381833E
:101EF00070470A460021018B4FF67F73194011434A
:101F0000018370470A460021018BC1F30E014FF691
:101F1000FF7303EA02231943018370470A46002135
:101F2000818B4FF67F7319401143818370470A46B6
:101F30000021818BC1F30E014FF6FF7303EA0223E8
:101F40001943818370470A460021018C4FF6FD73C7
:101F500019401143018470470A460021018C4FF655
:101F6000F77319401143018470470A460021018C20
:101F70004FF6DF7319404FF6FF7303EA021319435C
:101F8000018470470A460021018C4FF67F73194087
:101F90004FF6FF7303EA02131943018470470A46A0
:101FA0000021018C4FF6FF5319404FF6FF7303EAEF
:101FB00002231943018470470A460021018C4FF225
:101FC000FF7319404FF6FF7303EA0223194301849C
:101FD00070470A460021018C4DF6FF7319404FF6F9
:101FE000FF7303EA023319430184704730B50023BD
:101FF00001248C40A3B2048C9C430484048C02FA18
:1020000001F5ADB22C43048430BD30B50023042467
:102010008C40A3B2048C9C430484048C02FA01F526
:10202000ADB22C43048430BD828B4FF2FF331A4093
:102030008283828B4FF6FF7303EA01231A43828364
:102040007047F0B50C461546002100220026078C8B
:102050004EF6FF7C07EA0C070784818B028C4FF653
:10206000FF7707EA043640F6FF4739404FF6FF771F
:1020700007EA052739434FF6FF7707EA0337394365
:1020800045F6FF773A4046F480573A43818302840D
:10209000F0BD828B4FF6F3731A408283828B0A4322
:1020A00082837047F0B50C461546002100220026B9
:1020B000078C4FF6FF6C07EA0C070784818B028CB4
:1020C0004FF6FF7707EA04264FF60C7739404FF6B4
:1020D000FF7707EA03172F4339434FF2FF573A4080
:1020E00046F480773A4381830284F0BD028B4FF23D
:1020F000FF331A400283028B4FF6FF7303EA01237A
:102100001A4302837047F0B50C46154600210022A1
:102110000026078C4FF6EF7C07EA0C070784018B3B
:10212000028C4FF6FF7707EA041640F6FF47394066
:102130004FF6FF7707EA033739434FF6FF7703E09F
:10214000000001400004014007EA052739434FF62B
:102150005F773A4046F010073A4301830284F0BDAE
:10216000028B4FF6F3731A400283028B0A430283F9
:102170007047F0B50C46154600210022068C4FF63C
:10218000FE773E400684018B028C4FF60C76314080
:102190007E1C06EA03162E4331434FF6F576324095
:1021A00044F00106324301830284F0BD70B5054658
:1021B0000C46208850B92389A28861882846FFF7F9
:1021C000D8FFE1882846FFF7CBFF25E020880428C8
:1021D0000AD12389A28861882846FFF794FFE18805
:1021E0002846FFF783FF17E0208808280AD12389B3
:1021F000A28861882846FFF755FFE1882846FFF747
:1022000048FF09E02389A28861882846FFF719FF63
:10221000E1882846FFF708FF70BD0021018041805A
:10222000012181800021C180018170472DE9F041A9
:1022300005460C4600260127608808B9022600E002
:102240000026A088012801D1022700E0012720886C
:10225000A0B92389A28861882846FFF78AFFE18810
:102260002846FFF77DFF23893A4631462846FFF787
:102270004AFFE1882846FFF739FF13E02389A28847
:1022800061882846FFF73FFFE1882846FFF72EFFC9
:1022900023893A4631462846FFF76BFFE1882846F6
:1022A000FFF75EFFBDE8F0810146486B70470146CD
:1022B000886B70470146C86B70470146086C7047D1
:1022C0000A884B881A438B881A43CB881A430B8998
:1022D0001A434B891A438B891A43A0F8442070474C
:1022E0000021018041808180C18001814181818103
:1022F000704731B1B0F8442042F40042A0F84420C5
:1023000005E0B0F84420C2F30E02A0F84420704764
:1023100021B1828842F00402828004E082884FF674
:10232000FB731A408280704721B1828842F001021B
:10233000828004E082884FF6FE731A4082807047E4
:102340001AB183890B43838102E083898B438381A4
:1023500070478182704702460020138A0B400BB100
:10236000012000E000207047CA430282704730B568
:102370000246002000230024158A05EA01039589FE
:1023800005EA010413B10CB1012000E0002030BDCA
:10239000CA430282704741EA0203A0F848307047FE
:1023A0001AB183890B43838102E083898B43838144
:1023B000704721B1828842F00802828004E082885E
:1023C0004FF6F7731A408280704701894FF6F87212
:1023D0001140018170470A46002101894FF68F7331
:1023E000194011430181704730B504460D46294616
:1023F0002046FFF7F0FF208940F00700208130BD24
:102400002DE9F04104460D4616461F46602D06D1C3
:102410003B46012231462046FFF775FE05E03B466C
:10242000012231462046FFF7A4FE29462046FFF749
:10243000D2FF208940F007002081BDE8F08130B54F
:102440000C4600210189C9B24FF6FF7505EA032544
:10245000154325432943018130BD2DE9F04105464F
:102460000E4617469846002443463A4631462846CB
:10247000FFF7E5FF2C894FF6F870044044F007049D
:102480004FF68F70044044F070042C81BDE8F08159
:10249000F0B504460D4616461F463B4632462946D1
:1024A0002046FFF7CCFF208940F480402081F0BD1A
:1024B00082884FF68F731A40828082880A43828016
:1024C000704702894FF6F8731A40028102890A4365
:1024D0000281704702894FF67F731A400281028998
:1024E0000A4302817047F0B50C4615461E4600218E
:1024F000002200230189028B038C4FF6F8773940C4
:1025000021434FF6FC473A4040F201173A434FF659
:10251000DD773B404FF6FF7707EA06172F433B4333
:10252000018102830384F0BD21B1828842F08002E0
:10253000828004E082884FF67F731A408280704761
:10254000A0F850107047000010B50446FA488442C5
:1025500008D101211020FFF700F900211020FFF71A
:10256000FCF857E0F548844209D101214804FFF7FF
:10257000E3F800214FF40030FFF7DEF84AE0F048BE
:10258000844209D101218804FFF7D6F800214FF4D5
:102590008020FFF7D1F83DE0EA48844209D10121CB
:1025A000C804FFF7C9F800214FF40020FFF7C4F872
:1025B00030E0E548844209D101210805FFF7BCF865
:1025C00000214FF48010FFF7B7F823E0DF48844282
:1025D00008D101212020FFF7C0F800212020FFF7BB
:1025E000BCF817E0DA48844209D101218807FFF7D7
:1025F000A3F800214FF08040FFF79EF80AE0D5488D
:10260000844207D101214005FFF796F800216005BB
:10261000FFF792F810BD2DE9FF4705460E4600244E
:10262000A14600BFA046B08900B100BF2C8A24F4A7
:102630004054F08804432C82AC8941F20C608443FE
:10264000B08831890843718908430443AC81AC8A5E
:1026500024F44074B0890443AC826846FEF7FDFE62
:10266000B548854202D0B948854202D1DDF80C90C8
:1026700001E0DDF80890A88900F4004040B109EBC2
:10268000C90000EB091031684900B0FBF1F707E021
:1026900009EBC90000EB091031688900B0FBF1F7C4
:1026A0006420B7FBF0F004012009642101FB1078DD
:1026B000A88900F4004040B1322000EBC800B0FB14
:1026C000F1F000F00700044308E0322000EB0810AE
:1026D0006421B0FBF1F000F00F0004432C81BDE851
:1026E000FF874FF41651016000218180C180018174
:1026F0000C21418100218181704710B502460020E4
:10270000108A20F470600B884C8823438C88234304
:10271000CC8823431843108210BD002101804180E2
:102720008180C180704721B1828942F40052828148
:1027300004E082894DF6FF731A4082817047028B54
:1027400002F47F420283028B0A430283704721B165
:10275000828942F40042828103E08289C2F30E0240
:102760008281704721B1828A42F40062828204E051
:10277000828A4FF2FF731A4082827047C1F30802C7
:102780008280704701468888C0F308007047028A3B
:102790004FF6F0731A400282028A0A43028270479F
:1027A00021B1828942F00202828104E082894FF6DF
:1027B000FD731A408281704782894FF2FF731A407D
:1027C000828182890A4382817047028A4FF6DF73D1
:1027D0001A400282028A0A430282704721B1028AA9
:1027E00042F48042028204E0028A4BF6FF731A40F0
:1027F00002827047818941F001018181704721B1D6
:10280000828A42F00802828204E0828A4FF6F773DD
:102810001A4082827047028BD2B20283028B42EA54
:1028200001220283704721B1828A42F02002828213
:1028300004E0828A4FF6DF731A408282704721B12A
:10284000828A42F01002828204E0828A4FF6EF739D
:102850001A4082827047828A4FF6FB731A40828246
:10286000828A0A438282704721B1828A42F0020240
:10287000828204E0828A4FF6FD731A40828270479A
:102880001AB1838A0B43838202E0838A8B4383825B
:102890007047F0B50346002400260025002040F6CE
:1028A0006A17B94200D100BF1846C1F3421401F0C3
:1028B0001F06012707FA06F5012C01D10C3004E0B0
:1028C000022C01D1103000E014301AB107682F43F8
:1028D000076002E00768AF430760F0BD02460020D2
:1028E000B1F5007F00D100BF13880B400BB1012070
:1028F00000E00020704701F40072B2F5007F00D1C3
:1029000000BFCA430280704770B50246002400230E
:102910000025002040F66A16B14200D100BFC1F385
:10292000421501F01F03012606FA03F3012D13D10E
:102930009689334017E00000001001400044004039
:1029400000480040004C004000500040001401408E
:1029500000780040007C0040022D02D1168A3340EE
:1029600001E0968A33400C12012606FA04F4168818
:10297000344013B10CB1012000E0002070BD10B54F
:102980000022002340F66A14A14200D100BF0A12BF
:1029900001249440A3B2DC43048010BD10B504466A
:1029A0006FF00400FDF7F0FDE11704EB5171C1F386
:1029B000C701394A11701046007800EB4001C1EBA5
:1029C000C0104FF6FF7101EAC0003449088010BD05
:1029D0000146314A12784A434FF0E0235A610022FF
:1029E0009A611A46126942F001021A6100BF4FF063
:1029F000E022106900F001021AB100F48032002ACE
:102A0000F5D04FF0E022126922F001024FF0E023EE
:102A10001A6100229A6170470146204A12884A438F
:102A20004FF0E0235A6100229A611A46126942F07F
:102A300001021A6100BF4FF0E022106900F00102AC
:102A40001AB100F48032002AF5D04FF0E02212696A
:102A500022F001024FF0E0231A6100229A617047D0
:102A600070B504464FF4077094FBF0F0C6B24FF413
:102A7000077094FBF0F100FB114085B205E04FF4C4
:102A80000770FFF7C9FF701EC6B2002EF7D115B14F
:102A90002846FFF7C1FF70BD34000020360000203B
:102AA00000BF704700BF2E4A128802F04002002A81
:102AB000F9D0C2B22A4B9A80704710B588B004464C
:102AC00001210846FEF79AFD01211020FEF7F0FDD6
:102AD000072209212348FEF77EFB07220A2121480D
:102AE000FEF779FB4FF4C060069002208DF81C00C1
:102AF0008DF81D0000208DF81E0001208DF81F00AC
:102B000006A91848FEF7DCFA02940020ADF80C0084
:102B1000ADF80E00ADF81000ADF814000C20ADF8C3
:102B2000120002A90E48FFF776FD01210C48FFF7BD
:102B3000FAFD012240F225510948FFF7AAFE25209F
:102B40008DF8040003208DF805008DF806000120A3
:102B50008DF8070001A8FDF7CAFC08B010BD000001
:102B6000001001400000024010B504461021FE484C
:102B7000FEF722FB2046FFF773FF1021FA48FEF70D
:102B80001DFB10BD10B503F0CDF94FF47A70FFF7BF
:102B900067FF00F0DAFF9FEDF55B9FEDF64B9FEDD1
:102BA000F73B9FEDF82B9FEDF91B9FEDFA0B03F020
:102BB0009BFE10BD00B593B0A820FFF7EFFE4FF4C9
:102BC000A060FDF78FFC01214806FEF760FD0020A4
:102BD0008DF846008DF847008DF8480001208DF8EB
:102BE000490000208DF84A008DF84B008DF8420016
:102BF0008DF8430008208DF8440003208DF845002F
:102C0000ADF8400010A9E548FDF7F5FC00208DF86F
:102C10003A008DF83B0001208DF83C000020ADF813
:102C20003000ADF83200ADF83400ADF83600ADF844
:102C3000380001208DF83D000CA8FDF766FD01224B
:102C40000221D648FEF760F814208DF81C00012000
:102C50008DF81D0000208DF81E0001208DF81F004A
:102C600007A8FDF744FC01218806FEF710FD0020AF
:102C70008DF846008DF847008DF8480001208DF84A
:102C8000490000208DF84A008DF84B008DF8420075
:102C90008DF8430008208DF8440003208DF845008E
:102CA000ADF8400010A9BE48FDF7A5FC0F208DF837
:102CB0003A0000208DF83B0001208DF83C000020F8
:102CC000ADF83000ADF83200ADF83400ADF83600A4
:102CD0000120ADF838008DF83D000CA8FDF715FD7A
:102CE00001221021AE48FEF70FF841208DF81C009C
:102CF00001208DF81D0000208DF81E0001208DF8A8
:102D00001F0007A8FDF7F3FB4FF4E130FFF7D5FEF6
:102D10004FF4E13008900020ADF82400ADF8260013
:102D2000ADF82800ADF82C000C20ADF82A0008A959
:102D30009C48FFF770FC01219A48FFF7F4FC012240
:102D400040F225519748FFF7A4FD26208DF81C007E
:102D500001208DF81D0000208DF81E0001208DF847
:102D60001F0007A8FDF7C3FB01210846FEF7A0FCE2
:102D700004A8FEF778FE0020ADF810004FF6FF70B3
:102D800005900020ADF81800ADF8120004A986489F
:102D9000FEF735FE00231A4603218348FFF7A3FB05
:102DA00001A8FFF73AFA0A20ADF80C0001A97E4805
:102DB000FFF7FCF901217C48FFF7D6FA0022012138
:102DC0007948FFF7BDFA47F230517748FEF760FEC9
:102DD00001217548FEF79CFE01210846FEF757FCCD
:102DE00004A8FEF740FE0020ADF810004FF6FF707B
:102DF00005900020ADF81800ADF8120004A94FF0BE
:102E00008040FEF7FCFD00231A4603214FF080406E
:102E1000FFF769FB01A8FFF700FA0A20ADF80C00E4
:102E200001A94007FFF7C2F901218807FFF79CFAC3
:102E3000002201218807FFF783FA47F230514FF053
:102E40008040FEF725FE01218807FEF761FE1D2068
:102E50008DF81C0001208DF81D0003208DF81E0048
:102E600001208DF81F0007A8FDF741FB012102207A
:102E7000FEF70DFC3120059042F2CF00ADF81000B6
:102E80000020ADF81800ADF8120004A94748FEF77D
:102E9000B6FD01214548FFF767FA01221146434874
:102EA000FFF74EFA01214148FEF732FE1420FFF7EA
:102EB000D7FD13B000BD1CB501210420FEF79EFB19
:102EC0004FF48050009001208DF8040000208DF810
:102ED000060003208DF8050002208DF807006946E2
:102EE0003348FEF7EDF84FF480513148FEF766F9AC
:102EF00001211020FEF782FB0120009000208DF8B8
:102F0000040003208DF8050001208DF807006946B4
:102F10002848FEF7D5F801210420FEF76FFB0F20AB
:102F2000009001208DF8040000208DF80600032099
:102F30008DF8050000208DF8070069461C48FEF753
:102F4000BFF80F211A48FEF737F901210846FEF7AE
:102F500055FB1020009001208DF8040000208DF812
:102F60000600032028E0000000000240CDCCCCCCBD
:102F7000CCCC20409A9999999999B93FD9CEF753D9
:102F8000E3A5AB3FC3F5285C8FC2F53F7B14AE478A
:102F9000E17A843FFA7E6ABC7493A83F00640040E3
:102FA0000068004000440040000001400004004070
:102FB00000080240001002408DF8050000208DF846
:102FC000070069467448FEF77BF810217248FEF747
:102FD000F5F801210420FEF711FB4FF4C0400090EA
:102FE00000208DF8040003208DF8050000208DF8E6
:102FF000070069466948FEF763F801210846FEF7B5
:10300000FDFA4FF4C050009002208DF8040000201B
:103010008DF8060003208DF8050001208DF80700CB
:1030200069465D48FEF74CF809220B215A48FEF725
:10303000D2F809220C215848FEF7CDF801210220D0
:10304000FEF7DCFA4FF44050009002208DF80400A7
:1030500000208DF8060003208DF8050001208DF872
:10306000070069464E48FEF72BF809220C214C4810
:10307000FEF7B1F809220D214948FEF7ACF801210D
:103080000846FEF7BBFA01214804FEF700FB0C20BE
:10309000009002208DF804008DF8050000208DF8C6
:1030A000060001208DF8070069463B48FEF708F846
:1030B000072202213848FEF78EF8072203213648FE
:1030C000FEF789F801211020FEF798FA0122092164
:1030D0003448FEF780F801220B213248FEF77BF8D6
:1030E0004FF42060009002208DF8040003208DF83A
:1030F000050001208DF8060069462A48FDF7E0FF2B
:1031000001210846FEF77AFA01210220FEF776FA3D
:10311000012205212048FEF75EF801220321204804
:10312000FEF759F82020009002208DF804000320BB
:103130008DF8050001208DF8060069461648FDF758
:10314000BFFF0820009002208DF8040003208DF8B6
:10315000050001208DF8060069461148FDF7B0FF13
:103160001CBD10B5FFF7A7FEFFF724FDFFF70AFD12
:103170006420FFF7F9FC10BD70B504460D462946E2
:103180002046FFF7FBFA00BF80212046FFF7A6FB91
:103190000028F9D070BD0000000002400008024085
:1031A000000402400010024010B56420FFF7DCFC70
:1031B00010BD00B585B00221DA48FDF70DFE0028EC
:1031C0007ED06A460021D748FDF783FC0098B0F511
:1031D000017F76D009DC132874D0A0F2012078B1E9
:1031E00001282ED002286ED14CE0A0F20520002844
:1031F0006AD0012869D0022868D00328F3D1F4E00E
:103200009DF80C009DF80B1040EA0120C64908808B
:103210009DF80E109DF80D0041EA002000B2C24951
:1032200048809DF810109DF80F0041EA002000B280
:10323000BD4988809DF81100C880002000F0B7FDCE
:10324000FDE09DF80C009DF80B1040EA0120B64906
:1032500088819DF80E109DF80D0041EA002001B212
:10326000B148C1819DF810109DF80F0041EA00207F
:1032700001B2AD4801829DF811104182012000F099
:1032800096FDDCE09DF80C009DF80B1040EA012053
:10329000A54908839DF80E109DF80D0041EA002015
:1032A00001B2A14841839DF810109DF80F0041EA3A
:1032B000002001B29C4881839DF81110C18306E073
:1032C000BEE008E0B6E0B9E026E046E068E00220B3
:1032D00000F06DFDB3E09DF80C009DF80B1040EA86
:1032E0000120914988849DF80E109DF80D0041EA57
:1032F000002001B28C48C1849DF810109DF80F0089
:1033000041EA002001B2884801859DF811104185ED
:10331000032000F04CFD92E09DF80C009DF80B108E
:1033200040EA0120804908869DF80E109DF80D00A6
:1033300041EA002001B27C4841869DF810109DF8BA
:103340000F0041EA002001B2774881869DF81110F4
:10335000C186042000F02BFD71E09DF80C009DF863
:103360000B1040EA0120704988879DF80E109DF8E7
:103370000D0041EA002001B26B48C1879DF8101092
:103380009DF80F0041EA002001B26748A0F8401004
:103390009DF81110A0F84210052000F008FD4EE045
:1033A0009DF80C009DF80B1040EA01205E49A1F841
:1033B00048009DF80E109DF80D0041EA002001B272
:1033C0005948A0F84A109DF810109DF80F0041EAE6
:1033D000002001B25448A0F84C109DF81110A0F83C
:1033E0004E10062000F0E3FC29E09DF80C009DF84B
:1033F0000B1040EA01204C49A1F854009DF80E1032
:103400009DF80D0041EA002001B24748A0F856108F
:103410009DF810109DF80F0041EA002001B24248CB
:10342000A0F858109DF81110A0F85A10072000F0CD
:10343000BEFC04E001203D49086000E000BF00BF81
:1034400005B000BD10B502F085FA10BD10B540F210
:1034500025513748FFF758FA30B13548FFF792F950
:10346000C4B2204601F0DCFF10BD10B540F225517A
:103470003048FFF749FA30B12E48FFF783F9C4B25C
:10348000204600F03DF910BD10B501212A48FEF795
:103490006EFF002845D029480088032808D1002461
:1034A00003E0204600F0CEFF641C082CF9DB18E096
:1034B00022480088012808D1002403E0204600F0BB
:1034C00012FF641C082CF9DB0BE01C480088022862
:1034D00007D1002403E0204600F06AFF641C082C9A
:1034E000F9DB174CA48923B2154C248922B2144C61
:1034F000A48821B2124C248820B200F00AFC104C9F
:10350000A48B23B20E4C248B22B20D4CA48A21B280
:103510000B4C248A20B200F023FC01210648FEF760
:1035200037FF10BD00640040B80B0020A40000204D
:103530000010014000440040000400405C000020F6
:10354000580C002070B505460E4600240CE0295D9D
:10355000B948FFF713F900BF8021B748FFF7BEF95C
:103560000028F9D0601CC4B2B442F0DB70BD2DE974
:10357000F04106460D4617460024A046EE2221469D
:10358000641CAE484254EF222146641C425421463A
:10359000641C4754042000EB4500C2B22146641C61
:1035A000A648425400200FE006EB40014B7821462C
:1035B000621CD4B2A14A535416F810302146621C42
:1035C000D4B29E4A5354401CA842EDDB002006E0D2
:1035D0009A49095C414401F0FF08411CC8B2A0426D
:1035E000F6DB2146601CC4B2944800F80180FE223C
:1035F0002046611CCCB291490A54FF222046611C2E
:10360000CCB28E490A5421468C48FFF79BFFBDE897
:10361000F08170B504460025EE2088490870EF203F
:10362000487044F0E00088700020C87000BF05E0DA
:103630008249095C2944CDB2411CC8B20328F7DB9A
:103640007E48C570FE207D490871FF204871062123
:103650007A48FFF777FF70BD10B502460B469078A9
:10366000A1281AD1002010E0042101EB4001491CDF
:10367000515C042404EB4004145D01EB042109B205
:103680006F4C24F81010411CC8B2D478211F01EBF4
:10369000D174B0EB640FE7DB00BF00BF10BD2DE9B4
:1036A000F04104460D46002600272078EE2802D17E
:1036B0006078EF2800D00126A81E205CFE2803D1E8
:1036C000681E205CFF2800D00226002004E0215C58
:1036D0003944CFB2411CC8B2E1788142F7DCF9B27B
:1036E000E81E205C814200D0032626B929465548B1
:1036F000FFF7B2FF02E03046FFF78BFFBDE8F08135
:1037000010B504465048007838B9EE2C05D1012098
:103710004D4908704B4804708CE04B4800780128F4
:1037200007D1EF2C05D10220474908704548447065
:1037300080E045480078022807D1FF2C05DA0320F5
:10374000414908703F48847074E03F48007803287E
:103750000DD1642C0BDA04203B4908703948C47041
:10376000201F3A49087000203949087062E0364845
:10377000007804281AD135480078002816DD33482F
:103780000078401E31490870314800783049097886
:10379000491C2F4A1170001D2A490C542B480078EF
:1037A000002847D105202849087043E026480078C2
:1037B00005280DD1062024490870254800782449A1
:1037C0000978491C224A1170001D1E490C5431E031
:1037D0001D48007806280FD1FE2C0DD107201A496C
:1037E00008701B4800781A490978491C184A11705A
:1037F000001D14490C541DE013480078072816D109
:10380000FF2C14D10020104908701148007810498D
:103810000978491C0E4A1170001D0A490C541046C3
:103820000078001DC1B20748FFF739FF02E0002011
:103830000549087010BD000000100140780100200B
:1038400040020020DC0100203A0000203800002067
:10385000390000202DE9F04106460F460024FE48BD
:1038600007600020FC49087248720820887200BF77
:1038700005E0315DF8480B300155601C84B2082C1E
:10388000F7DBF549F548FDF72FF80546002401E080
:10389000601C84B22946F148FDF7BEF818B940F61D
:1038A000FF708442F4DB40F6FF70844202DB0120AB
:1038B000BDE8F0810020FBE730B585B00446002567
:1038C0002546E0208DF80B0055218DF80C108DF861
:1038D0000D108DF80E108DF80F108DF810108DF85A
:1038E00011100E218DF8121029460DF10B00FFF773
:1038F000B1FF05B030BD30B585B004460025254682
:10390000E1208DF80B0055218DF80C108DF80D106D
:103910008DF80E108DF80F108DF810108DF8111015
:103920001E218DF8121029460DF10B00FFF792FFB2
:1039300005B030BD30B585B0044600252546E220EF
:103940008DF80B0055218DF80C108DF80D108DF8A9
:103950000E108DF80F108DF810108DF811102E210B
:103960008DF8121029460DF10B00FFF773FF05B01B
:1039700030BD30B585B0044600252546E3208DF8DE
:103980000B0055218DF80C108DF80D108DF80E10D0
:103990008DF80F108DF810108DF811103E218DF854
:1039A000121029460DF10B00FFF754FF05B030BD92
:1039B00030B585B0044600252546E4208DF80B007F
:1039C00055218DF80C108DF80D108DF80E108DF816
:1039D0000F108DF810108DF811104E218DF8121067
:1039E00029460DF10B00FFF735FF05B030BD70B56E
:1039F00086B005460C4600262E46E5208DF80F00C1
:103A000055218DF812108DF813108DF814108DF8C3
:103A100015105E218DF81610002C08DA644244F46B
:103A20000044210A8DF810108DF8114004E0210A9D
:103A30008DF810108DF8114031460DF10F00FFF791
:103A400009FF06B070BD70B586B005460C4600266D
:103A50002E46E6208DF80F0055218DF814108DF8B4
:103A600015106E218DF81610002C0EDA644244F009
:103A70000044210E8DF81010210C8DF81110210A30
:103A80008DF812108DF813400AE0210E8DF81010F9
:103A9000210C8DF81110210A8DF812108DF81340A9
:103AA00031460DF10F00FFF7D5FE06B070BD70B5C1
:103AB00086B005460C4600262E46E7208DF80F00FE
:103AC00055218DF814108DF815107E218DF81610E3
:103AD000002C0EDA644244F00044210E8DF81010E0
:103AE000210C8DF81110210A8DF812108DF8134059
:103AF0000AE0210E8DF81010210C8DF81110210A0A
:103B00008DF812108DF8134031460DF10F00FFF7BC
:103B1000A1FE06B070BD10B5F120FFF7CDFEC820A4
:103B2000FEF756FFF220FFF7C7FEC820FEF750FF52
:103B3000F320FFF7C1FEC820FEF74AFFF420FFF78D
:103B4000BBFEC820FEF744FF10BD10B5F120FFF703
:103B5000D2FEC820FEF73CFFF220FFF7CCFEC820C3
:103B6000FEF736FFF320FFF7C6FEC820FEF730FF52
:103B7000F420FFF7C0FEC820FEF72AFF10BD10B5E5
:103B8000F120FFF7D7FEC820FEF722FFF220FFF753
:103B9000D1FEC820FEF71CFFF320FFF7CBFEC820A4
:103BA000FEF716FFF420FFF7C5FEC820FEF710FF52
:103BB00010BD10B5F120FFF7DCFEC820FEF708FFAE
:103BC000F220FFF7D6FEC820FEF702FFF320FFF732
:103BD000D0FEC820FEF7FCFEF420FFF7CAFEC82086
:103BE000FEF7F6FE10BD10B5F120FFF7E1FEC8208C
:103BF000FEF7EEFEF220FFF7DBFEC820FEF7E8FE40
:103C0000F320FFF7D5FEC820FEF7E2FEF420FFF711
:103C1000CFFEC820FEF7DCFE10BD2DE9F0410446C2
:103C20000F4615461E462146F120FFF7E0FEC8204C
:103C3000FEF7CEFE3946F220FFF7D9FEC820FEF788
:103C4000C7FE2946F320FFF7D2FEC820FEF7C0FECC
:103C50003146F42004E00000A4020020006400408B
:103C6000FFF7C5FEC820FEF7B3FEBDE8F0810000F7
:103C7000F0B585B006460F460024009700208DF869
:103C800008008DF8090008208DF80A0000BF05E043
:103C9000315D0DF10B000155601C84B2082CF7DB7F
:103CA0006946FE48FCF720FE0546002401E0601C42
:103CB00084B22946F948FCF7AFFE18B940F6FF7008
:103CC0008442F4DB40F6FF70844202DB012005B041
:103CD000F0BD0020FBE730B585B005460021EF4878
:103CE000FCF77AFF10B9002005B030BD6A4600210C
:103CF000EA48FCF7EEFE002404E00DF10B00005D45
:103D00002855641C9DF80A00A042F6D89DF80A00C8
:103D1000EAE72DE9F04186B004460D4616461F46F7
:103D20004FF000084FF40078200A8DF80F008DF84E
:103D30001040290A8DF811108DF81250310A8DF8B3
:103D400013108DF81460390A8DF815108DF816705F
:103D500041460DF10F00FFF78BFF06B0BDE8F08183
:103D60002DE9F04186B004460D4616461F464FF039
:103D7000000840F2FF18200A8DF80F008DF810405F
:103D8000290A8DF811108DF81250310A8DF8131090
:103D90008DF81460390A8DF815108DF816704146AB
:103DA0000DF10F00FFF764FF06B0BDE8F08100EBF6
:103DB0004001BB4A32F82110BA4A02EBC0025180DE
:103DC000B94951F82010B1B9B64901EBC001498891
:103DD000B44A22F83010114601EBC0014988B34AB9
:103DE00022F810100121B04A42F820100021AD4AFB
:103DF00002EBC0025160AB4901EBC0014988A94AFE
:103E000032F83020891A40F6B832914209DDA549CE
:103E100001EBC0014968491EA24A02EBC002516091
:103E200014E0A04931F830109E4A02EBC0025288DB
:103E3000891A40F6B832914208DD9A4901EBC00177
:103E40004968491C974A02EBC0025160954901EB51
:103E5000C0014968C1EB4131924A02EBC00252886D
:103E60001144924A32F81020891A00EB40028C4B20
:103E700003EB820291608B4901EBC0014988894ABA
:103E800022F83010704710B52DED0A8B0446E26B16
:103E9000616B881A03F07FFBC4E9040194ED042BE5
:103EA000B0EE420AF0EE620A94ED062BB0EE421A32
:103EB000F0EE621A53EC102B51EC110B03F002F9E7
:103EC000C4E9060194ED040B84ED020B94ED002B84
:103ED000B0EE420AF0EE620A94ED022BB0EE421A06
:103EE000F0EE621A53EC102B51EC110B03F03EFD77
:103EF000C4E9080194ED020B84ED000B94ED041B62
:103F0000B0EE410AF0EE610A9FED691B53EC112BF4
:103F100051EC100B03F0BAFB1AD294ED041BB0EE77
:103F2000410AF0EE610A9FED641B53EC112B51EC3A
:103F3000100B03F0E5FC0BD29FED610B84ED040B3D
:103F40009FED5F0B84ED080B9FED5D0B84ED060B81
:103F500094ED0A2BB0EE420AF0EE620A94ED062BC5
:103F6000B0EE421AF0EE621A53EC102B51EC110B2A
:103F700003F0C6FC03D894ED0A0B84ED060B94ED18
:103F80000A1BB0EE410AF0EE610A51EC100B03F08F
:103F90005BF841EC180B94ED061BB0EE410AF0EE15
:103FA000610A53EC102B03F0ABFC0BD894ED0A1B09
:103FB000B0EE410AF0EE610A51EC100B03F044F848
:103FC000C4E9060194ED082BB0EE420AF0EE620A55
:103FD00094ED162BB0EE421AF0EE621A53EC102B51
:103FE00051EC110B03F08EFB41EC190B94ED062BF9
:103FF000B0EE420AF0EE620A94ED142BB0EE421AD3
:10400000F0EE621A53EC102B51EC110B03F07AFB1B
:1040100041EC1B0B94ED042BB0EE420AF0EE620A69
:1040200094ED122BB0EE421AF0EE621A53EC102B04
:1040300051EC110B03F066FB41EC1C0B53EC1B2BFA
:1040400003F040F841EC1A0B53EC192B03F03AF84B
:1040500041EC180B03F042FABDEC0A8B10BD10B511
:104060002DED0C8B0446E26B616B881A03F093FA1A
:10407000C4E9040194ED042BB0EE420AF0EE620AAA
:1040800094ED062BB0EE421AF0EE621A53EC102BB0
:1040900051EC110B03F016F816E00000006400402C
:1040A000B80B0020180C0020880C0020780C002091
:1040B000000000000000244000000000000024C0B8
:1040C0000000000000000000C4E9060194ED040BAC
:1040D00084ED020B94ED002BB0EE420AF0EE620A82
:1040E00094ED022BB0EE421AF0EE621A53EC102B54
:1040F00051EC110B03F03AFCC4E9080194ED020BFA
:1041000084ED000B94ED041BB0EE410AF0EE610A61
:104110001FED191B53EC112B51EC100B03F0B6FAE9
:104120001AD294ED041BB0EE410AF0EE610A1FEDC5
:104130001E1B53EC112B51EC100B03F0E1FB0BD2C7
:104140001FED210B84ED040B1FED230B84ED080BF9
:104150001FED250B84ED060B94ED0A2BB0EE420A01
:10416000F0EE620A94ED062BB0EE421AF0EE621AFF
:1041700053EC102B51EC110B03F0C2FB03D894ED60
:104180000A0B84ED060B94ED0A1BB0EE410AF0EE2B
:10419000610A51EC100B02F057FF41EC190B94ED42
:1041A000061BB0EE410AF0EE610A53EC102B03F04F
:1041B000A7FB0BD894ED0A1BB0EE410AF0EE610AA2
:1041C00051EC100B02F040FFC4E9060194ED082BFE
:1041D000B0EE420AF0EE620A94ED162BB0EE421AEF
:1041E000F0EE621A53EC102B51EC110B03F08AFA2B
:1041F00041EC1A0B94ED062BB0EE420AF0EE620A87
:1042000094ED142BB0EE421AF0EE621A53EC102B20
:1042100051EC110B03F076FA41EC1C0B94ED042BDE
:10422000B0EE420AF0EE620A94ED122BB0EE421AA2
:10423000F0EE621A53EC102B51EC110B03F062FA02
:1042400041EC1D0B53EC1C2B02F03CFF41EC1B0B13
:1042500053EC1A2B02F036FF41EC190B94ED101BB6
:10426000B0EE410AF0EE610A53EC102B02F02AFF87
:1042700041EC180B51EC180BC4E91001B0EE480AE0
:10428000F0EE680ABDEC0C8B10BD10B52DED048B63
:10429000B0EE408AF0EE608A0446204603F07BF9D7
:1042A00041EC190B53EC182B03F0F0F905D2204622
:1042B00003F071F941EC180B0EE0604203F06BF96A
:1042C00041EC190B53EC182B03F01AFB04D260429B
:1042D00003F061F941EC180B51EC180B03F0FEF8F8
:1042E000BDEC048B10BD10B52DED028B0446601E95
:1042F00000EB4000F34901EB80008168601E00EB99
:104300004000F14A02EB4010C163601E00EB400028
:10431000114601EB4010816B601E00EB400002EB88
:1043200040104163611E01EB410102EB4110FFF7B8
:10433000AAFD611E01EB4101E44A02EB4111486311
:10434000601E00EB4000DF4901EB8000B0F9021075
:10435000601E00EB400002EB4010C163611E01EBE8
:10436000410102EB4110FFF77AFEB0EE408AF0EE19
:10437000608A51EC180B03F0B1F8611ED44A42F880
:10438000210052F8210003F006F941EC180B611EE0
:10439000D04A52F82100B0EE480AF0EE680AFFF762
:1043A00074FF611ECA4A42F82100BDEC028B10BDA9
:1043B00010B52DED028B0446601E00EB4000C14994
:1043C00001EB8000B0F90210601E00EB4000BF4A14
:1043D00002EB4010C163601E00EB4000114601EB90
:1043E0004010816B601E00EB400002EB4010416307
:1043F000611E01EB410102EB4110FFF730FEB0EE10
:10440000408AF0EE608A51EC180B03F067F8611EE9
:10441000AF4A42F8210052F8210003F0BCF841EC09
:10442000180B611EAB4A52F82100B0EE480AF0EEBC
:10443000680AFFF72AFF611EA54A42F82100BDEC79
:10444000028B10BD10B52DED028B0446601E00EBF3
:1044500040009C4901EB80008168601E00EB400039
:10446000994A02EB4010C163601E00EB4000114608
:1044700001EB4010816B601E00EB400002EB40102E
:104480004163611E01EB410102EB4110FFF7FBFCB0
:10449000611E01EB41018D4A02EB41114863601E30
:1044A00000EB4000114601EB4010406B002806DD98
:1044B000601E00EB400001EB4010406B07E0601E07
:1044C00000EB4000814901EB4010406B4042611E0F
:1044D00001EB41017D4A02EB4111896B002906DDA8
:1044E000611E01EB410102EB4111896B07E0611E86
:1044F00001EB4101754A02EB4111896B4942884247
:104500000DDD601E00EB4000704901EB4010816B37
:10451000601E00EB40006D4A02EB40104163601EDC
:1045200000EB4000674901EB8000B0F90210601E0B
:1045300000EB4000654A02EB4010C163611E01EBD5
:10454000410102EB4110FFF78AFDB0EE408AF0EE28
:10455000608A51EC180B02F0C1FF611E5C4A42F800
:10456000210052F8210003F016F841EC180B611EEF
:10457000584A52F82100B0EE480AF0EE680AFFF7F8
:1045800084FE611E524A42F82100BDEC028B10BD30
:1045900010B52DED088B0446B0EE408AF0EE608A2F
:1045A00001204D4908809FED4D0B53EC102B51EC31
:1045B000180B03F0A7F841EC1B0B9FED4A0B53ECD3
:1045C000102B02F033FE41EC1A0B9FED480B53EC1D
:1045D000102B03F097F841EC190B02F07FFF611EDE
:1045E00001EB4101384A02EB41118863BDEC088BB5
:1045F00010BD70B52DED048B04460D4602203649E2
:104600000880284602F0C7FF41EC190B9FED330BE1
:1046100053EC102B03F076F841EC180B02F05EFF20
:10462000611E01EB4101294A02EB41118863BDEC97
:10463000048B70BD70B52DED088B04460D46B0EEB1
:10464000408AF0EE608A0320234908809FED230B07
:1046500053EC102B51EC180B03F054F841EC1B0BEE
:104660009FED200B53EC102B02F0E0FD41EC1A0BF8
:104670009FED1E0B53EC102B03F044F841EC190B8B
:1046800002F02CFF611E01EB41010F4A02EB4111C8
:104690008863284602F07FFF41EC1A0B9FED0F0B59
:1046A00053EC102B03F02EF841EC190B02F016FF1F
:1046B000611E01EB4101054A02EB41118863BDEC2B
:1046C000088B70BDB80B0020B8080020B80500208A
:1046D000580C00203C0000205C00002033333333B2
:1046E00033333340000000000080764000000000BB
:1046F00000FFBF4070B504460D4604E02178FE4837
:10470000FEF73AFD641C281EA5F10101CDB2F5D1DA
:1047100070BDF0B52DED0A8B81B00646B0EE408A33
:10472000F0EE608AB0EE419AF0EE619AB0EE42AAE5
:10473000F0EE62AAB0EE43BAF0EE63BAB0EE44CA4D
:10474000002700250024AA222146641CEB4842547D
:104750002146641C425406F10F00C2B22146641C7B
:10476000E648425400222146641C4254BDEEC80A69
:1047700010EE100A00B200909DF801202146641C42
:10478000DE4842549DF800202146641C4254BDEE90
:10479000E80A10EE100A00B200909DF801202146B0
:1047A000641CD64842549DF800202046611CCCB2BF
:1047B000D2490A54BDEEC90A10EE100A00B20090A8
:1047C0009DF801202046611CCCB2CC490A549DF8CA
:1047D00000202046611CCCB2C8490A54BDEEE90A4B
:1047E00010EE100A00B200909DF801202046611CD6
:1047F000CCB2C2490A549DF800202046611CCCB2BC
:10480000BE490A54BDEECA0A10EE100A00B200906A
:104810009DF801202046611CCCB2B8490A549DF88D
:1048200000202046611CCCB2B4490A54BDEEEA0A0D
:1048300010EE100A00B200909DF801202046611C85
:10484000CCB2AE490A549DF800202046611CCCB27F
:10485000AA490A54BDEECB0A10EE100A00B200902D
:104860009DF801202046611CCCB2A4490A549DF851
:1048700000202046611CCCB2A0490A54BDEEEB0AD0
:1048800010EE100A00B200909DF801202046611C35
:10489000CCB29A490A549DF800202046611CCCB243
:1048A00096490A54BDEECC0A10EE100A00B20090F0
:1048B0009DF801202046611CCCB290490A549DF815
:1048C00000202046611CCCB28C490A54201FC870BD
:1048D00000BF05E08948405D3844C7B2681CC5B2D6
:1048E000A542F7DB2046611CCCB284490F54214617
:1048F0008248FFF7FFFE01B0BDEC0A8BF0BD10B59A
:104900007F480078E8B300207D4908707D48008A20
:1049100004EE900AF8EE644AB0EE644A7948C08921
:1049200004EE900AF8EE644AF0EE643A7548808925
:1049300004EE900AF8EE644AB0EE643A7148408999
:1049400004EE900AF8EE644AF0EE642A6D4800899D
:1049500004EE900AF8EE644AB0EE642A6948C08812
:1049600004EE900AF8EE644AF0EE641A6548808816
:1049700004EE900AF8EE644AB0EE641A614840888A
:1049800000E010E004EE900AF8EE644AF0EE640AEB
:104990005C48008804EE900AF8EE644AB0EE640ABF
:1049A0000120FFF7B6FE56484078E8B3002054498E
:1049B00048705448408C04EE900AF8EE644AB0EE19
:1049C000644A5048008C04EE900AF8EE644AF0EE17
:1049D000643A4C48C08B04EE900AF8EE644AB0EE9C
:1049E000643A4848808B04EE900AF8EE644AF0EE90
:1049F000642A4448408B04EE900AF8EE644AB0EE14
:104A0000642A4048008B04EE900AF8EE644AF0EE07
:104A1000641A3C48C08A04EE900AF8EE644AB0EE8C
:104A2000641A3848808A00E010E004EE900AF8EE3C
:104A3000644AF0EE640A3348408A04EE900AF8EEC5
:104A4000644AB0EE640A0220FFF763FE2C488078C7
:104A5000E8B300202A4988702A48808E04EE900A24
:104A6000F8EE644AB0EE644A2648408E04EE900A9E
:104A7000F8EE644AF0EE643A2248008E04EE900AA2
:104A8000F8EE644AB0EE643A1E48C08D04EE900A17
:104A9000F8EE644AF0EE642A1A48808D04EE900A1B
:104AA000F8EE644AB0EE642A1648408D04EE900A8F
:104AB000F8EE644AF0EE641A1248008D04EE900A93
:104AC000F8EE644AB0EE641A0E48C08C00E010E0C4
:104AD00004EE900AF8EE644AF0EE640A0948808C0D
:104AE00004EE900AF8EE644AB0EE640A0320FFF781
:104AF00010FE0348C07807E0001001401E0D0020A2
:104B0000A80C0020B20C0020E8B30020FE49C870B9
:104B1000FE48B0F8460004EE900AF8EE644AB0EEA3
:104B2000644AFA48B0F8440004EE900AF8EE644A89
:104B3000F0EE643AF548B0F8420004EE900AF8EE60
:104B4000644AB0EE643AF148B0F8400004EE900ACE
:104B5000F8EE644AF0EE642AEC48C08F04EE900A46
:104B6000F8EE644AB0EE642AE848808F04EE900ABA
:104B7000F8EE644AF0EE641AE448408F04EE900ABE
:104B8000F8EE644A00E014E0B0EE641ADF48008FEB
:104B900004EE900AF8EE644AF0EE640ADB48C08E38
:104BA00004EE900AF8EE644AB0EE640A0420FFF7BF
:104BB000B0FDD5480079E0B30020D3490871D3484F
:104BC000B0F8580004EE900AF8EE644AB0EE644A79
:104BD000CE48B0F8560004EE900AF8EE644AF0EEC3
:104BE000643ACA48B0F8540004EE900AF8EE644AF9
:104BF000B0EE643AC548B0F8520004EE900AF8EE00
:104C0000644AF0EE642AC148B0F8500004EE900AFD
:104C1000F8EE644AB0EE642ABC48B0F84E0004EEE8
:104C2000900AF8EE644AF0EE641AB848B0F84C0006
:104C300000E01AE004EE900AF8EE644AB0EE641A5E
:104C4000B248B0F84A0004EE900AF8EE644AF0EE7A
:104C5000640AAE48B0F8480004EE900AF8EE644AE0
:104C6000B0EE640A0520FFF754FDA7484079E0B391
:104C70000020A5494871A548B0F86A0004EE900AE2
:104C8000F8EE644AB0EE644AA048B0F8680004EE5A
:104C9000900AF8EE644AF0EE643A9C48B0F8660078
:104CA00004EE900AF8EE644AB0EE643A9748B0F821
:104CB000640004EE900AF8EE644AF0EE642A934829
:104CC000B0F8620004EE900AF8EE644AB0EE642A8E
:104CD0008E48B0F8600004EE900AF8EE644AF0EEF8
:104CE000641A8A48B0F85E0000E01AE004EE900A08
:104CF000F8EE644AB0EE641A8448B0F85C0004EE42
:104D0000900AF8EE644AF0EE640A8048B0F85A005F
:104D100004EE900AF8EE644AB0EE640A0620FFF74B
:104D2000F8FC10BD2DE9F04105460E460027002491
:104D3000AA20774908704870EF2088700220C87058
:104D400008460571467100BF05E07148005D3844B2
:104D5000C7B2601CC4B2062CF7DB6D48877107210F
:104D6000FFF7C8FCBDE8F081704770477047704797
:104D7000704710B52DED068B6449088802F073FC6E
:104D800041EC1A0B9FED630B53EC102B02F0BAFCB5
:104D900041EC190B9FED5F0B53EC102B02F046FA20
:104DA00041EC180B02F09AFB5C49086057494888AF
:104DB00002F059FC41EC1A0B9FED560B53EC102BF3
:104DC00002F0A0FC41EC190B9FED520B53EC102BA1
:104DD00002F02CFA41EC180B02F080FB50490860FD
:104DE0004A49888802F03FFC41EC1A0B9FED490BC1
:104DF00053EC102B02F086FC41EC190B9FED450B98
:104E000053EC102B02F012FA41EC180B02F066FB87
:104E1000444908603D49C88802F025FC41EC1A0B62
:104E20009FED3C0B53EC102B02F06CFC41EC190B8A
:104E30009FED380B53EC102B02F0F8F941EC180BF6
:104E400002F07CFB384908603049088902F00BFC0D
:104E500041EC1A0B9FED2F0B53EC102B02F052FC80
:104E600041EC190B9FED2B0B53EC102B02F0DEF9EC
:104E700041EC180B02F062FB2C4908602349488979
:104E800002F0F1FB41EC1A0B9FED220B53EC102BBF
:104E900002F038FC41EC190B9FED1E0B53EC102B6C
:104EA00002F0C4F941EC180B02F048FB20490860FD
:104EB000BDEC068B10BD10B5B6B0D821684601F028
:104EC00014FE002438E004EB4400104931F81000CF
:104ED00004EB44014DF8210004EB44000B4901EBC5
:104EE0004000408804EB44016A4602EB81014860BF
:104EF00004EB4400054901EB4000808804EB4401C9
:104F000002EB8101886015E0A80C0020B20C0020A3
:104F10001E0D0020000000000000F03FAC0000204B
:104F2000B0000020B4000020000000200400002099
:104F300008000020601CC4B2122CC4DB36B010BDC7
:104F4000FE480088FE490880FE4800884880FE48E8
:104F500000888880FD480088C880FD48008881B2AC
:104F6000F7480181FB48008881B2F54841817047CC
:104F700010B56C21F24801F096FD10BD10B5FFF799
:104F8000F7FFFFF7DDFFFFF796FF10BD704710B585
:104F9000B6B0D821684601F0A8FD002420E004EB5B
:104FA00044003DF8200004EB4401E54A22F81100DA
:104FB00004EB4400694601EB8000808804EB440167
:104FC00002EB4101488004EB4400694601EB80009C
:104FD000008904EB440102EB41018880601CC4B2EB
:104FE000122CDCDB36B010BD10B5FFF7C1FFFFF7A8
:104FF000CEFFFFF7CBFFFFF7A3FF10BD2DE9F04178
:1050000004460D4600260027681DC5B200BF04E017
:10501000E05D3044C6B2781CC7B2681EB842F7DC07
:10502000601910F8010CB04201D0BDE8F081207881
:10503000AA2802D16078AF2800D0F6E7A07801282E
:1050400027D1207901280AD1C348006808B9012076
:1050500000E00020C04908600120C04908722079A2
:10506000022802D10120BD4948722079042806D1C6
:105070004FF47A70B14908600120B849C8712079AD
:10508000052805D10020AD4908600120B349887189
:1050900000BFA07802281DD1207901280BD1FFF78D
:1050A000A3FF0120AD49087048708870C87008716E
:1050B0004871FFF724FC2079A1280BD1FFF75EFF90
:1050C0000120A649087048708870C870087148713E
:1050D000FFF715FCA07810283BD16079217940EAD0
:1050E000012097490880E079A17940EA012094499C
:1050F0004880607A217A40EA012091498880E07AEC
:10510000A17A40EA01208E49C880607B217B40EA79
:1051100001218B480181E07BA17B40EA0121884885
:105120004181607C217C40EA012085498881E07CC6
:10513000A17C40EA01218248C181607D217D40EA55
:1051400001217F480182A0783146FFF7EBFDFFF790
:1051500010FEA07811283BD16079217940EA012026
:1051600077494882E079A17940EA01217448818237
:10517000607A217A40EA01217148C182E07AA17AFD
:1051800040EA01206E490883607B217B40EA0121CF
:105190006B484183E07BA17B40EA01216848818321
:1051A000607C217C40EA01206549C883E07CA17CC9
:1051B00040EA012162480184607D217D40EA0121AD
:1051C0005F484184A0783146FFF7ACFDFFF7D0FD82
:1051D000A07812283BD16079217940EA0120584912
:1051E0008884E079A17940EA01215548C184607A38
:1051F000217A40EA012152480185E07AA17A40EA09
:1052000001204F494885607B217B40EA01214C48C1
:105210008185E07BA17B40EA01214948C185607C12
:10522000217C40EA012046490886E07CA17C40EAD6
:10523000012143484186607D217D40EA01214048AB
:105240008186A0783146FFF76DFDFFF790FDA078CD
:1052500013283FD16079217940EA01203849C88676
:10526000E079A17940EA012135480187607A217A05
:1052700040EA012132484187E07AA17A40EA0120E0
:105280002F498887607B217B40EA01212C48C18718
:10529000E07BA17B40EA01212948A0F84010607C16
:1052A000217C40EA01202649A1F84200E07CA17C53
:1052B00040EA01212248A0F84410607D217D40EAA7
:1052C00001211F48A0F84610A0783146FFF72AFDBB
:1052D000FFF74CFDA078142858D16079217940EA75
:1052E00001201749A1F84800E079A17940EA01219D
:1052F0001348A0F84A10607A217A40EA0121104848
:10530000A0F84C10E07AA17A40EA01200C49A1F8FB
:105310004E00607B217B40EA01210948A0F8501033
:10532000E07BA17B40EA01210548A0F85210607C97
:10533000217C40EA0120024912E00000AC0000207C
:10534000B20C0020B0000020B400002000000020BB
:105350000400002008000020A4000020A80C002069
:10536000A1F85400E07CA17C40EA0121FE48A0F8AD
:105370005610607D217D40EA0121FB48A0F85810BD
:10538000A0783146FFF7CEFCFFF7EFFCA078152898
:1053900044D16079217940EA0120F349A1F85A000B
:1053A000E079A17940EA0121EF48A0F85C10607A29
:1053B000217A40EA0121EC48A0F85E10E07AA17A57
:1053C00040EA0120E849A1F86000607B217B40EAC7
:1053D0000121E548A0F86210E07BA17B40EA0121B1
:1053E000E148A0F86410607C217C40EA0120DE499D
:1053F000A1F86600E07CA17C40EA0121DA48A0F82F
:105400006810607D217D40EA0121D748A0F86A102C
:10541000A0783146FFF786FCFFF7A6FC00BF04E644
:1054200010B50446D148007838B9AA2C05D101201E
:10543000CE490870CE4804705CE0CC480078012862
:1054400007D1AF2C05D10220C8490870C848447064
:1054500050E0C6480078022807D1F12C05DA032075
:10546000C2490870C248847044E0C04800780328EC
:105470000CD1322C0ADA0420BC490870BC48C47034
:10548000BC4804700020BC49087033E0B74800787D
:10549000042819D1B7480078002815DDB5480078F0
:1054A000401EB4490870B4480078B3490978491CD3
:1054B000B14A1170001DAE490C54AE480078C8B90D
:1054C0000520AA49087015E0A848007805280ED1E3
:1054D0000020A6490870A8480078001DA4490C5473
:1054E000A5480178A248FFF789FD012010BD0020E2
:1054F0009E4908700020F9E77FB50024AA222146C2
:10550000641C9E4842542146641C42540322214696
:10551000641C425400222146641C42549DF8012020
:105520002146641C42549DF800202146641C4254CC
:105530009DF805202146641C42549DF80420204615
:10554000611CCCB28D490A549DF809202046611C8B
:10555000CCB28A490A549DF808202046611CCCB27E
:1055600086490A549DF80D202046611CCCB283491F
:105570000A549DF80C202046611CCCB27F490A5485
:105580009DF821202046611CCCB27C490A549DF82C
:1055900020202146601CC4B2784842549DF8252042
:1055A0002046611CCCB275490A549DF8242020463F
:1055B000611CCCB271490A549DF829202046611C17
:1055C000CCB26E490A549DF828202046611CCCB20A
:1055D0006A490A549DF82D202046611CCCB26749C7
:1055E0000A549DF82C202046611CCCB263490A5411
:1055F0009DF831202046611CCCB260490A549DF8C8
:1056000030202046611CCCB25C490A549DF83520FC
:105610002046611CCCB259490A549DF834202046DA
:10562000611CCCB255490A54201FC87000250020C7
:1056300005E05249095C2944CDB2411CC8B2A042E0
:10564000F7DB2046611CCCB24C490D5421464B4837
:10565000FFF750F87FBD2DE9F84F06460F469046FC
:105660009946DDF828B04FF0000A00250024AA2250
:105670002146641C414842542146641C4254022283
:105680002146641C425400222146641C4254009668
:105690009DF801202146641C42549DF800202146BB
:1056A000641C425400979DF801202146641C42541A
:1056B0009DF800202046611CCCB230490A54CDF838
:1056C00000809DF801202046611CCCB22B490A5471
:1056D0009DF800202046611CCCB228490A54CDF820
:1056E00000909DF801202046611CCCB223490A5449
:1056F0009DF800202046611CCCB220490A54CDF808
:1057000000B09DF801202046611CCCB21B490A5410
:105710009DF800202046611CCCB218490A540B9811
:1057200000909DF801202046611CCCB213490A5418
:105730009DF800202046611CCCB210490A540C98F8
:1057400000909DF801202046611CCCB20B490A5400
:105750009DF800202046611CCCB208490A540D98DF
:1057600000909DF801200BE0B20C0020700000209A
:10577000500D002071000020680000201E0D002048
:105780002046611CCCB271490A549DF80020204685
:10579000611CCCB26D490A540E9800909DF801200E
:1057A0002046611CCCB269490A549DF8002020466D
:1057B000611CCCB265490A54201FC87000BF06E0C6
:1057C0006248405D504400F0FF0A681CC5B2A54223
:1057D000F6DB2046611CCCB25C4901F800A02146F2
:1057E0005A48FEF787FFBDE8F88F2DE9F0432DED0D
:1057F000048B83B0B0EE408AF0EE608AB0EE419A3E
:1058000006460F4690464FF00009002500240196F9
:10581000AA222146641C4D4842542146641C42542D
:1058200001222146641C425400222146641C425439
:105830009FED470A28EE000ABDEEC00A10EE100ADE
:1058400000B202909DF809202146641C3F48425452
:105850009DF808202146641C42549FED3D0A28EE25
:10586000800ABDEEC00A10EE100A00B202909DF848
:1058700009202146641C354842549DF808202046E2
:10588000611CCCB231490A549FED310A29EE000A5D
:10589000BDEEC00A10EE100A00B202909DF8092079
:1058A0002046611CCCB229490A549DF808202146A3
:1058B000601CC4B2254842549DF807202046611C54
:1058C000CCB222490A549DF806202046611CCCB275
:1058D0001E490A549DF805202046611CCCB21B4984
:1058E0000A549DF804202046611CCCB217490A5482
:1058F0002046611CCCB215490F542046611CCCB225
:10590000124901F80080201FC87000BF06E00F4850
:10591000405D484400F0FF09681CC5B2A542F6DBB3
:105920002046611CCCB2094901F800902146074885
:10593000FEF7E0FE03B0BDEC048BBDE8F08310B5CC
:10594000FFF7FEFAFFF7B7FA10BD00001E0D0020AA
:105950000000C84210B52DED108B88B01021FA4818
:10596000FBF73AFA00287DD002AA0121F648FBF79E
:10597000B0F80298112806D0132874D0152873D0D7
:10598000162872D118E29DF81200042813D19DF850
:1059900013008DF81C009DF814008DF81D009DF873
:1059A00015008DF81E009DF816008DF81F00E748C1
:1059B000079901609FE19DF812000828FAD1E44898
:1059C000406AE449086008460068A0F5EA403038BB
:1059D000E14908604FF08040406AE04908600846AD
:1059E000006847F23051081ADD49086047F230502C
:1059F0004FF080414862D6494862D448D0ED000A51
:105A0000B0EE001A80EE810AD648D0ED000AB0EE62
:105A1000001AC0EE811A30EE210AD34880ED000A48
:105A200090ED000A10EE100A02F08AF841EC1B0B10
:105A30009FEDCE0B53EC102B01F064FE41EC1A0BE2
:105A40009FEDCC0B53EC102B01F0F0FB41EC190B4C
:105A500001F006FB08EE100AB0EE480A01F0C6F8A5
:105A6000C64803E0C2E147E15AE1B9E1D0ED008A5E
:105A7000BB48006800EE900AF8EEE00A40EE808A2B
:105A8000B94890ED000A10EE100A02F059F841EC06
:105A90001B0B9FEDB60B53EC102B01F033FE41ECCA
:105AA0001A0B9FEDB40B53EC102B01F0BFFB41EC34
:105AB000190B01F0D5FA08EE100AB0EE480A01F011
:105AC0003DF9A548006800EE900AF8EEE00A40EEC5
:105AD000C08AAA48C0ED008AA34890ED000A10EEE3
