:020000040800F2
:100000000033002001070008D9040008DB040008C1
:10001000DF040008E3040008E70400080000000013
:10002000000000000000000000000000EB040008D9
:10003000ED040008000000000BA20008891500086C
:100040001B0700081B0700081B0700081B07000808
:100050001B0700081B0700081B0700081B070008F8
:100060001B0700081B0700081B0700081B070008E8
:100070001B0700081B0700081B0700081B070008D8
:100080001B0700081B0700081B0700081B070008C8
:100090001B0700081B0700081B0700081B070008B8
:1000A0001B0700081B0700081B0700081B070008A8
:1000B0001B0700081B0700081B0700081B07000898
:1000C0001B0700081B0700081B0700081B07000888
:1000D0001B0700081B0700081B0700081B07000878
:1000E0001B0700081B0700081B0700081B07000868
:1000F0001B0700081B0700081B0700081B07000858
:100100001B0700081B0700081B0700081B07000847
:100110001B0700081B0700081B0700081B07000837
:100120001B0700081B0700081B0700081B07000827
:100130001B0700081B0700081B0700081B07000817
:100140001B0700081B0700081B0700081B07000807
:100150001B0700081B0700081B0700081B070008F7
:100160001B0700081B0700081B0700081B070008E7
:100170001B0700081B0700081B0700081B070008D7
:100180001B0700081B07000800F002F800F049F800
:100190000AA090E8000C82448344AAF10107DA45E2
:1001A00001D100F03EF8AFF2090EBAE80F0013F0EB
:1001B000010F18BFFB1A43F00103184754A60000B3
:1001C00074A60000103A24BF78C878C1FAD8520744
:1001D00024BF30C830C144BF04680C6070470000C1
:1001E0000023002400250026103A28BF78C1FBD840
:1001F000520728BF30C148BF0B60704766290AF01C
:10020000F180002070471FB50AF0E7F809F090FA76
:100210000400002000210AF053F8E0601FBD10B573
:1002200010BD09F0A1FB1146FFF7EDFF00F0D7F874
:1002300009F0BFFB03B4FFF7F2FF03BC01F036FA8D
:100240002DED028B002425E0844890ED000ADFEDBF
:10025000840A30EE200A80ED000A00BF00BF01F0E2
:1002600091FC044600BF00BF7C4800680AF044F8D7
:1002700041EC180B53EC182B7AA008F0A1FF00BF3B
:1002800000BF204601F082FC00BF00BF4FF4FA70AF
:1002900001F0DFF9D8E70EB500BF1AE0002077497A
:1002A000086002A800214FF4FA730A46CDE9001055
:1002B000084606F02BFC01207149C1F8840202A80F
:1002C00000214FF4FA730A46CDE90010084606F003
:1002D0001DFCE3E70EB500BF1AE000206749091FC7
:1002E000086002A80021C8230A46CDE9001008468C
:1002F00006F00CFC01206249C1F8800202A800212E
:100300004FF4FA730A46CDE90010084606F0FEFBEA
:10031000E3E730B58BB00446002500BF01F0FAFAE0
:100320000AA804F0D4FD00BF00BF01F02BFC054675
:1003300000BF00BF0AA8032100220592CDE90621D3
:100340000890104680210C224E4BCDE90132CDE9B8
:10035000031004200023AFF283024BA100904D480C
:1003600005F0F7F80AA8032100220592CDE906213D
:100370000890104680210C22474BCDE90132CDE98F
:10038000031005200023AFF2F10244A1009046487B
:1003900005F0DFF80AA8032100220592CDE9062125
:1003A0000890104680210C22404BCDE90132CDE966
:1003B000031006200023AFF277123DA100904048C1
:1003C00005F0C7F80AA93F4806F074F800BF00BF5F
:1003D000284601F0DBFB00BF00BF0BB030BD8AB088
:1003E0000024A82001F0DCF84FF4A06000F0A8F988
:1003F0004FF4E13001F067F901F00DFA09A801F0BE
:1004000028FC00BF00BF01F0BDFB044600BF00BFD9
:1004100009A8032100220592CDE906210890104683
:100420004FF400713322284BCDE90132CDE903109E
:1004300003200023AFF2251224A10090214805F0EB
:1004400088F800BF00BF204601F0A0FB00BF00BF3E
:1004500009A801F012FE00BFFEE700000000002026
:100460000AD7233C666C6F61745F6E756DB5C4D638
:10047000B5CEAA3A20252E34660D0A0084024142E8
:1004800000004142800A00206C6564302074617372
:100490006B000000C8090020380D00206C65643135
:1004A000207461736B000000800C0020F00F0020AE
:1004B000666C6F61742074657374207461736B0073
:1004C000380F002010010020C801002073746172F1
:1004D00074207461736B0000704700BFFEE700BFBB
:1004E000FEE700BFFEE700BFFEE770477047000071
:1004F0000CB50020019000907648006840F48030F0
:100500007449086000BF7348006800F40030009030
:100510000198401C0190009818B90198B0F5A04FBF
:10052000F1D16C48006800F4003010B10120009057
:1005300001E0002000900098012846D16548403035
:10054000006840F0805063494031086062480068AC
:1005500040F44040604908605E48083000685D49EA
:10056000083108600846006840F40040086008460A
:10057000006840F4A05008605848091F0860081F30
:10058000006840F08070091F086000BF5148006893
:1005900000F000700028F9D040F205705049086062
:1005A0004C480830006820F003004A4908310860D0
:1005B0000846006840F00200086000BF4548083067
:1005C000006800F00C000828F8D10CBD10B54548B3
:1005D000006840F47000434908603E48006840F0FD
:1005E00001003C49086000203A4908310860394858
:1005F00000683D490840374908603C48091D0860CB
:10060000081F006820F48020091F0860002031497D
:100610000C310860FFF76CFF4FF000603149803902
:10062000086010BD70B500200022022300240221C2
:10063000284D08352D6805F00C0020B1042806D09F
:10064000082834D107E02A4D2A4E356033E02A4D80
:10065000284E35602FE01F4D2D1D2D68C5F38054A9
:100660001C4D2D1D2D6805F03F0154B1224DB5FBE9
:10067000F1F5184E361D3668C6F3881605FB06F2EE
:1006800009E01B4DB5FBF1F5124E361D3668C6F379
:10069000881605FB06F20F4D2D1D2D68C5F301458B
:1006A0006D1C6B00B2FBF3F5124E356003E0104D8C
:1006B000104E356000BF00BF064D08352D68C5F3EC
:1006C00003150E4E705D0B4D2D68C540094E35600B
:1006D00070BD000000380240007000400854400720
:1006E000003C024088ED00E0FFFFF6FE10300024E1
:1006F0000024F4000400002000127A00080000200A
:100700000948804709480047FEE7FEE7FEE7FEE7A5
:10071000FEE7FEE7FEE7FEE7FEE7FEE704480549E1
:10072000054A064B70470000CD0500088901000806
:10073000002D002000330020002F0020002F00207B
:1007400032490143324A1160704770B500210023DD
:100750000F22C4781CB32E4C246804F4E064C4F562
:10076000E064C4F30721C1F10404E3B20A41447810
:100770009C40E1B28478144021430C07210E254CA3
:1007800005786155047804F01F050124AC40057814
:100790006D11AD0005F1E025C5F8004109E00478D0
:1007A00004F01F050124AC401B4D0678761145F876
:1007B000264070BD194A0A400243154B1B1F1A60A0
:1007C000704739B1124A121D12680243104B1B1DAB
:1007D0001A6006E00E4A121D126882430C4B1B1D64
:1007E0001A607047042808D14FF0E021096941F0F0
:1007F00004014FF0E022116107E04FF0E0210969A8
:1008000021F004014FF0E022116170470000FA0569
:100810000CED00E000E400E080E100E080FFFF1F5D
:1008200010B504469848844208D10121084600F0DA
:1008300086FB0021012000F082FB76E09348844291
:1008400008D10121022000F07AFB0021022000F0F3
:1008500076FB6AE08E48844208D10121042000F032
:100860006EFB0021042000F06AFB5EE089488442B0
:1008700008D10121082000F062FB0021082000F0CF
:100880005EFB52E08448844208D10121102000F030
:1008900056FB0021102000F052FB46E07F488442C6
:1008A00008D10121202000F04AFB0021202000F087
:1008B00046FB3AE07A48844208D10121402000F00A
:1008C0003EFB0021402000F03AFB2EE075488442B8
:1008D00008D10121802000F032FB0021802000F0AF
:1008E0002EFB22E07048844208D10121801500F0DF
:1008F00026FB0021A01500F022FB16E06B48844285
:1009000008D10121401500F01AFB0021601500F00C
:1009100016FB0AE06648844207D10121001500F069
:100920000EFB0021201500F00AFB10BDF0B50A46B1
:1009300000210023002400BF3DE0012505FA01F35A
:10094000156805EA03049C4234D105684F0003266C
:10095000BE40B543056015794E00B5400668354385
:1009600005601579012D02D01579022D16D1856803
:100970004F000326BE40B543856055794E00B54013
:10098000866835438560456801268E40B5434560DD
:10099000456896798E40B6B235434560C5684F00CC
:1009A0000326BE40B543C560D5794E00B540C66844
:1009B0003543C560491C1029BFD3F0BD4FF6FF7108
:1009C00001600021017141718171C171704708B5E9
:1009D0004FF480320092009A0A430092009AC2615A
:1009E000C161009AC261C2690092C269009208BDE9
:1009F0000246002013690B400BB1012000E00020EB
:100A000070470146086980B270470246002053696A
:100A10000B400BB1012000E00020704701464869FF
:100A200080B2704701837047418370470AB10183E8
:100A300000E0418370474161704742694A4042612A
:100A40007047F0B5002300244D07ED0E02FA05F3C0
:100A5000CE1000F1200555F826504E07F70E0F2650
:100A6000BE40B543CF1000F1200646F82750CE1007
:100A700000F1200555F8265045EA0304CE1000F198
:100A8000200545F82640F0BD000002400004024069
:100A900000080240000C0240001002400014024016
:100AA00000180240001C02400020024000240240C6
:100AB00000280240F948006840F00100F74908604A
:100AC0000020F64908310860F4480068F4490840FD
:100AD000F2490860F348091D0860F348EF49843182
:100AE0000860F0481038091D0860EC48006820F4E0
:100AF0008020EA4908600020E8490C310860E74995
:100B00008C31086070470021E44A921C1170114634
:100B10000870704710B501460022002300204A11DA
:100B2000012A02D1DD4C236808E0022A03D1DB4C04
:100B30007034236802E0D94C7434236801F01F023A
:100B4000012494401C400CB1012000E0002010BDA5
:100B500038B5002000900024002500BF3120FFF7A9
:100B6000D9FF05460098401C00900098B0F5A04FB2
:100B700001D0002DF2D03120FFF7CCFF08B10124C5
:100B800000E00024204638BD01460020C34A10681A
:100B900020F0F80040EAC10010607047C3490860C7
:100BA00070470021BD4A703211701170012802D0C7
:100BB00004280AD104E00121B84A7032117005E01E
:100BC0000521B64A7032117000E000BF00BF7047C7
:100BD000B7490860704770B5049C41EA8215012648
:100BE000C6EB530645EA0645054345EA0465AB4EA8
:100BF000361D356070BDAD4908667047820142EA16
:100C00000172A64B84331A607047A8498866704702
:100C100010B5830143EA016343EA02739F4C8834B1
:100C2000236010BDA14908677047A049C864704798
:100C300002460020994B0833186820F0EC6042EA25
:100C400001031843954B0833186070470246002093
:100C5000924B0833186820F0784042EA01031843A9
:100C60008E4B083318607047014600208B4A0832CB
:100C7000106820F003000843106070478748083070
:100C8000006800F00C00704701460020834A0832DB
:100C9000106820F0F0000843106070470146002003
:100CA0007E4A0832106820F4E05008431060704714
:100CB00001460020794A0832106820F4604040EA7A
:100CC000C10010607047F0B5002100220024022509
:100CD00000260223714F08373F6807F00C0121B14D
:100CE000042905D0082937D105E0724F076036E0A6
:100CF000714F076033E0694F3F1D3F68C7F380566F
:100D0000664F3F1D3F6807F03F036EB16A4FB7FB68
:100D1000F3F7DFF888C10CF1040CDCF800C0CCF369
:100D2000881C07FB0CF40CE0624FB7FBF3F7DFF80D
:100D30006CC10CF1040CDCF800C0CCF3881C07FB80
:100D40000CF4564F3F1D3F68C7F301477F1C7D00E1
:100D5000B4FBF5F7076002E0564F076000BF00BF25
:100D60004E4F08373F6807F0F0010909534F7A5C8E
:100D70000768D7404760494F08373F6807F4E0519C
:100D8000890A4E4F7A5C4768D7408760434F0837DF
:100D90003F6807F46041490B484F7A5C4768D74089
:100DA000C760F0BD002100F44072B2F5407F0AD167
:100DB0003A4A0832116821F4F811414A02401143BD
:100DC000364A08321160354A70321268C0F30B039C
:100DD0001A43324B70331A60704735494439086002
:100DE000704733494039086070473649086070479A
:100DF00001460020294A8C32106820F01F004A1E4C
:100E00001043264A8C321060704701460020234A66
:100E10008C32106820F4F8504A1E40EA02201F4A23
:100E20008C3210607047014600201C4A8C321068DA
:100E300020F4401008431060704701460020174A14
:100E40008C32106820F4400008431060704701465F
:100E50000020124A8C32106820F4403008431060A1
:100E6000704719490860704739B10C4A303212682E
:100E700002430A4B30331A6006E0084A30321268E7
:100E80008243064B30331A607047F9B1034A34325B
:100E900012680243014B34331A601CE000380240F0
:100EA000FFFFF6EA10300024003000200000474227
:100EB000800E47420024F40000127A00180000203F
:100EC000FFFCFF0F5C014742E01147428F4A126866
:100ED00082438E4B1A60704739B18C4A121D1268DA
:100EE00002438A4B1B1D1A6006E0884A121D1268D5
:100EF0008243864B1B1D1A60704739B1834A0C32FE
:100F000012680243814B0C331A6006E07F4A0C32B0
:100F1000126882437D4B0C331A60704739B17B4AAB
:100F2000103212680243794B10331A6006E0774A98
:100F3000103212688243754B10331A60704739B112
:100F4000724A243A12680243704B243B1A6006E04E
:100F50006E4A243A126882436C4B243B1A607047F5
:100F600039B16A4A203A12680243684B203B1A6042
:100F700006E0664A203A12688243644B203B1A60BE
:100F8000704739B1614A1C3A126802435F4B1C3BFF
:100F90001A6006E05D4A1C3A126882435B4B1C3BB8
:100FA0001A60704739B1594A143A12680243574BD4
:100FB000143B1A6006E0554A143A12688243534BB8
:100FC000143B1A60704739B1504A103A1268024314
:100FD0004E4B103B1A6006E04C4A103A12688243AE
:100FE0004A4B103B1A60704739B1484A1C321268AC
:100FF0000243464B1C331A6006E0444A1C32126816
:101000008243424B1C331A60704739B13F4A203249
:10101000126802433D4B20331A6006E03B4A2032FF
:1010200012688243394B20331A60704739B1374A0E
:10103000243212680243354B24331A6006E0334AE7
:10104000243212688243314B24331A60704739B11D
:101050002E4A2C32126802432C4B2C331A6006E0C5
:101060002A4A2C3212688243284B2C331A6070476C
:1010700039B1264A303212680243244B30331A60A9
:1010800006E0224A303212688243204B30331A6025
:101090007047012808D11D493C31096841F0080119
:1010A0001A4A3C32116007E018493C31096821F0C6
:1010B0000801164A3C321160704739B1134A273A89
:1010C00012780243114B273B1A7006E00F4A273A69
:1010D000127882430D4B273B1A7070470B48403003
:1010E000006840F08070094940310860704701464F
:1010F0000020064A283A12680A400AB1012000E09E
:101100000020704701492639087070473438024082
:1011100010B50446FA48844208D101211020FFF797
:1011200052FF00211020FFF74EFF57E0F5488442A0
:1011300009D101214804FFF735FF00214FF40030A9
:10114000FFF730FF4AE0F048844209D101218804CA
:10115000FFF728FF00214FF48020FFF723FF3DE039
:10116000EA48844209D10121C804FFF71BFF00218E
:101170004FF40020FFF716FF30E0E548844209D124
:1011800001210805FFF70EFF00214FF48010FFF743
:1011900009FF23E0DF48844208D101212020FFF726
:1011A00012FF00212020FFF70EFF17E0DA488442EB
:1011B00009D101218807FFF7F5FE00214FF080409B
:1011C000FFF7F0FE0AE0D548844207D1012140052F
:1011D000FFF7E8FE00216005FFF7E4FE10BD2DE9F2
:1011E000FF4705460E460024A14600BFA046B08931
:1011F00000B100BF2C8A24F44054F08804432C82B0
:10120000AC8941F20C608443B0883189084371890C
:1012100008430443AC81AC8A24F44074B08904438D
:10122000AC826846FFF74FFDB548854202D0B94809
:10123000854202D1DDF80C9001E0DDF80890A88924
:1012400000F4004040B109EBC90000EB091031681F
:101250004900B0FBF1F707E009EBC90000EB09100A
:1012600031688900B0FBF1F76420B7FBF0F00401AE
:101270002009642101FB1078A88900F4004040B1E6
:10128000322000EBC800B0FBF1F000F0070004438F
:1012900008E0322000EB08106421B0FBF1F000F010
:1012A0000F0004432C81BDE8FF874FF41651016005
:1012B00000218180C18001810C2141810021818137
:1012C000704710B502460020108A20F470600B8829
:1012D0004C8823438C882343CC88234318431082B3
:1012E00010BD0021018041808180C180704721B103
:1012F000828942F40052828104E082894DF6FF73B4
:101300001A4082817047028B02F47F420283028B73
:101310000A430283704721B1828942F400428281EC
:1013200003E08289C2F30E028281704721B1828A72
:1013300042F40062828204E0828A4FF2FF731A4014
:1013400082827047C1F30802828070470146888814
:10135000C0F308007047028A4FF6F0731A40028209
:10136000028A0A430282704721B1828942F0020256
:10137000828104E082894FF6FD731A4082817047B2
:1013800082894FF2FF731A40828182890A438281E7
:101390007047028A4FF6DF731A400282028A0A43BC
:1013A0000282704721B1028A42F48042028204E044
:1013B000028A4BF6FF731A4002827047818941F01E
:1013C00001018181704721B1828A42F00802828244
:1013D00004E0828A4FF6F7731A4082827047028BCC
:1013E000D2B20283028B42EA01220283704721B10A
:1013F000828A42F02002828204E0828A4FF6DF7302
:101400001A408282704721B1828A42F010028282A1
:1014100004E0828A4FF6EF731A4082827047828A14
:101420004FF6FB731A408282828A0A438282704797
:1014300021B1828A42F00202828204E0828A4FF65F
:10144000FD731A40828270471AB1838A0B438382EC
:1014500002E0838A8B4383827047F0B50346002401
:1014600000260025002040F66A17B94200D100BFCF
:101470001846C1F3421401F01F06012707FA06F5CA
:10148000012C01D10C3004E0022C01D1103000E01D
:1014900014301AB107682F43076002E00768AF43B2
:1014A0000760F0BD02460020B1F5007F00D100BF0B
:1014B00013880B400BB1012000E00020704701F4BD
:1014C0000072B2F5007F00D100BFCA4302807047AE
:1014D00070B50246002400230025002040F66A165D
:1014E000B14200D100BFC1F3421501F01F03012634
:1014F00006FA03F3012D13D19689334017E000005B
:10150000001001400044004000480040004C0040F2
:10151000005000400014014000780040007C004072
:10152000022D02D1168A334001E0968A33400C1214
:10153000012606FA04F41688344013B10CB10120D8
:1015400000E0002070BD10B50022002340F66A14B0
:10155000A14200D100BF0A1201249440A3B2DC438F
:10156000048010BD08B5684600F0B4FC08BD08B59D
:10157000684600F0F9FC08BD38B504466A46082103
:10158000204605F06DFA38BD10B5424800780128B4
:1015900005D100F0E5FB05F04EFC00F0F2FB10BDBC
:1015A00070B504466FF00400FFF71CF92046E11700
:1015B00004EB5171C1F3C701374A1170E11704EB15
:1015C0005171CD10354800683549B1FBF0F0454305
:1015D000324800684FF47A71B1FBF0F0314908806D
:1015E0004FF0E020006940F002004FF0E021086178
:1015F00008464561006940F00100086170BD2DE9B1
:10160000F047074600264FF0E020D0F8149022481B
:10161000007807FB00F8FFF7A5FF4FF0E020856991
:1016200011E04FF0E0208469AC420CD0AC4202D211
:10163000281B064403E0A9EB040028440644254681
:10164000464500D300E0ECE700BFFFF790FFBDE8A0
:10165000F08770B504460F480078A0B112480078B2
:1016600088B910480088844206DB0E48008894FB45
:10167000F0F52846FFF780FF0A48008894FBF0F158
:1016800000FB114084B24FF47A7104FB01F0FFF7C4
:10169000B6FF70BD61000020280000204CA50008A6
:1016A00040420F002A0000206000002000BF704769
:1016B00000BF2E4A128802F04002002AF9D0C2B2BE
:1016C0002A4B9A80704710B588B00446012108461D
:1016D000FFF7CAFB01211020FFF720FC0722092198
:1016E0002348FFF7AEF907220A212148FFF7A9F99D
:1016F0004FF4C060069002208DF81C008DF81D008C
:1017000000208DF81E0001208DF81F0006A9184842
:10171000FFF70CF902940020ADF80C00ADF80E00B4
:10172000ADF81000ADF814000C20ADF8120002A9BD
:101730000E48FFF754FD01210C48FFF7D8FD0122A8
:1017400040F225510948FFF788FE25208DF8040056
:1017500003208DF805008DF8060001208DF80700A4
:1017600001A8FEF7F2FF08B010BD00000010014014
:101770000000024010B5044610213348FFF752F92B
:101780002046FFF766FF10212F48FFF74DF910BDE7
:1017900010B5A820FFF704FF4FF4A060FEF7D0FFBC
:1017A0004FF4E130FFF78FFF10BD1CB5012104207D
:1017B000FFF75AFB0F20009001208DF80400002055
:1017C0008DF8060003208DF8050000208DF8070035
:1017D00069461E48FFF7AAF80F211C48FFF722F9B7
:1017E00001210846FFF740FB1020009001208DF8F2
:1017F000040000208DF8060003208DF8050000206D
:101800008DF8070069461048FFF790F810210E4840
:10181000FFF70AF91CBD10B5FFF7C7FFFFF7B8FFC8
:101820006420FFF7A7FF10BD70B504460D4629469A
:101830002046FFF787FD00BF80212046FFF732FEDC
:101840000028F9D070BD00000000024000080240EE
:101850001FB56846FFF737FA019804B010BD10B500
:10186000FFF7F6FF04461848006840F080701649FC
:1018700008600020154948600846006840F00100F3
:101880000860204600F0B7F810BD1049486870475E
:101890002DE9F0478246FFF7DBFF4FF00009804655
:1018A0000B4A00234046494607F013FC06463246E1
:1018B0000B465046002107F00CFC04460D4620461E
:1018C0002946BDE8F0870000FCED00E0001000E0D4
:1018D00040420F0010B5002400BF00BF00F052F9D5
:1018E000044600BF00BF1021A14805F0B0FF00BFB3
:1018F00000BF204600F04AF900BF00BF10BD10B580
:10190000FFF7E8FF10BD10B500209A490860FFF707
:10191000A6FF10BD10B5FFF7F6FFFFF7F0FF10BDF3
:1019200000BFFEE770B505460C46002614B900BF9F
:10193000FFF7F6FF15B90A20208070BD00BF00BF79
:1019400000F020F9064600BF00BF10228849284653
:1019500006F034FC00BF00BF304600F017F900BFAE
:1019600000BF0020208000BFE7E72DE9F0410546D9
:101970000C46002714B900BFFFF7D2FF1DB90A209B
:101980002080BDE8F0811021284606F0FFFB0646C6
:10199000102E15D200BF00BF00F0F4F8074600BFBC
:1019A00000BF10222946724806F008FC00BF00BFA5
:1019B000384600F0EBF800BF00BF0020208002E0B6
:1019C0004FF47A70208000BFDBE710B5FFF75DFFB2
:1019D0000446204610BD704700B5014611B900BF4E
:1019E000FFF79EFF634A106808B1002201E04FF440
:1019F000FA620A8000BD5F490860704770B505460D
:101A0000284600F0CAF80446183C204670BD70B560
:101A10000546284600F0C1F80446103C204670BD3B
:101A200070B50546284600F0B8F8044600BF2046C9
:101A300070BD30B502460B460024D2F1FF359C4103
:101A400026D24FF6FF74D2F1FF359C410FD26FF0D2
:101A50007F44D2F1FF359C4103D2190E464C605CA5
:101A600044E0190C444C645C04F108003EE0FF249F
:101A7000D2F1FF359C4105D2190A3F4C645C04F158
:101A8000100033E019463C4C645C04F118002DE072
:101A90004FF6FF750024AD1A9C4115D26FF07F45BB
:101AA0000024AD1A9C4107D2140E44EA0321324CA3
:101AB000645C04F1200019E0140C44EA03412E4C4C
:101AC000645C04F1280011E00024D2F1FF059C4180
:101AD00007D2140A44EA0361274C645C04F1300025
:101AE00004E01146244C645C04F1380030BD70B54C
:101AF00004460CB9082070BD204600F051F8054698
:101B00002846F8E770B504460CB9102070BD204691
:101B100000F046F805462846F8E770B504460CB9CB
:101B2000202070BD204600F03BF805462846F8E727
:101B30002DE9F04304460D46002184EA0100694086
:101B4000084302D14020BDE8F083E243E843521C41
:101B500040F1000102EA040601EA05073046394671
:101B6000FFF767FF8046C8F13F094846EBE70000F2
:101B7000F011002034000020E8A3000872B670477E
:101B800062B67047EFF3108072B6704780F310882A
:101B9000704730BF704720BF7047B0FA80F0704781
:101BA00090FAA0F0B0FA80F0704790FAA0F0704779
:101BB00070470000002419E000BF00BFFFF7E2FFFC
:101BC000044600BF00BFFE480068401CFC49086096
:101BD000FC480068401CFB49086000BF00BF20466D
:101BE000FFF7D4FF00BF00BF07F076F8E4E710B5B9
:101BF0008AB004460020F24908600B2000210591BC
:101C0000CDE9070406910846EF490968EF4A1268D2
:101C1000EF4B1B68CDE90132CDE903103F200023D3
:101C2000AFF26F02EBA10090EF4803F092FC0AB014
:101C300010BD00210AE001EB4102EC4B03EB8200F6
:101C400000220281026042604A1CD1B24029F2D3D4
:101C5000704770B5044607F047F80020E449087063
:101C6000E4490870E4490870E4490860E449086000
:101C7000E4490870E4490870E4490870E4490860E0
:101C8000E4490860E4490860E448006858B1E44861
:101C9000056845B1E148066803E0761E002028602B
:101CA0002D1D002EF9D10020DE490860DE490860B4
:101CB000DE490860DE490860DE490860DE490860E8
:101CC000DE490860DE49087002F060F9FFF7B1FFF5
:101CD000204601F073FB208800B170BD204601F062
:101CE0006CFC208800B1F8E7204601F075FC2088E4
:101CF00000B1F2E7204602F035F9208800B1ECE7A8
:101D0000204602F0DCFC208800B1E6E7204603F024
:101D10004CF8208800B1E0E7204604F06BFC2088F6
:101D200000B1DAE72046FFF762FF208800B1D4E770
:101D3000204604F063FD208800B1CEE7204603F082
:101D4000AFFA208800B1C8E7204605F070FB208874
:101D500000B1C2E700F0F8FCFFF72AFF00BFBCE7C4
:101D6000A4480078012800D07047A1480078FA28DC
:101D700000DBF9E79E480078401C9D49087000BFD1
:101D8000F2E710B500249B480078012800D010BD70
:101D900000BFFFF7F7FE044600BF9548007828B95A
:101DA00000BF2046FFF7F2FE00BFF0E79048007842
:101DB000401E8F49087008460078002805DD00BFE6
:101DC0002046FFF7E3FE00BFE1E78B4800780028DC
:101DD00005DD00BF2046FFF7D9FE00BFD7E702F0C0
:101DE000DFF8894908700846007800EB40007F4919
:101DF00051F8200082490860084600687F49096858
:101E0000884205D100BF2046FFF7C0FE00BFBEE7F5
:101E10007B480068D0F88400401C79490968C1F803
:101E2000840088480068401C8649086008F0E8F98A
:101E300000BF2046FFF7AAFE00BF00BFA7E710B50E
:101E400000246B480078002800DD10BD6A48007847
:101E5000002800DDF9E700BFFFF794FE044600BF4D
:101E600002F09EF8684908700846007800EB4000D0
:101E70005E4951F8200062490860084600685F49E1
:101E80000968884205D100BF2046FFF77FFE00BFEA
:101E9000DBE75B480068D0F88400401C58490968BB
:101EA000C1F8840067480068401C6649086008F073
:101EB000A2F900BF2046FFF769FE00BF00BFC4E7DC
:101EC00010B54D480078012803D1FFF7DEFC5049DA
:101ED000086010BD70B5044600254548007800280C
:101EE00003DD46F66250208070BD4248007801282C
:101EF00003D045F689602080F6E73F480078FA284D
:101F000003DB45F209202080EEE700BF00BFFFF7AA
:101F100039FE054600BF00BF37480078401C3649EF
:101F20000870FFF7CDFF00BF00BF2846FFF72EFE69
:101F300000BF00BF0020208000BFD5E710B52E48AD
:101F4000007880B9FFF7A1FC31490968441A31488B
:101F50000068A04201D22F4804602F480068A042C8
:101F600001D22D48046010BD70B5044600252048FC
:101F70000078002803DD46F66550208070BD1D48BE
:101F80000078012803D045F689602080F6E71A48DA
:101F9000007818B946F664502080EFE700BF00BF14
:101FA000FFF7F0FD054600BF00BF13480078401E54
:101FB000114908700846007800284FDD00BF43E053
:101FC0005C000020A4000020F4A40008F0A4000895
:101FD000ECA4000875432F4F532D4949492049640B
:101FE0006C65205461736B004022002004230020A4
:101FF000600000206100002094000020FC00002010
:10200000000100207A0000207B0000207C000020DE
:10201000880000208C000020900000201CA50008F3
:1020200018A50008400000204400002048000020BF
:102030004C000020500000205400002058000020D8
:10204000C2000020B800002000BF2846FFF79EFD18
:1020500000BF00BF46F6635020808FE7FFF76EFF9A
:1020600000BF00BF2846FFF791FD00BF00BFFFF78C
:10207000E6FE0020208000BF80E710B50446F84847
:102080000078E8B901F08CFFF6490870084600783E
:10209000F5490870F348007800EB4000F34951F827
:1020A0002000F349086008460068F24908600120F2
:1020B000EB49087008F08EF843F69920208002E082
:1020C00045F68A60208010BD01460020088047F256
:1020D000C160704730B548B14568C1F8B45000F1EF
:1020E0000804226893681D6AC56113E091F83450B2
:1020F000022D02D0072D08D103E0DFA5C1F8B450AE
:1021000007E0DFA5C1F8B45003E0E0A5C1F8B45082
:1021100000BF00BF30BDF0B58E6896F83750078914
:102120003FB90127078100274F600F6001604160C0
:1021300023E007897F1C0781026806E0946894F811
:102140003770AF4200DD02E05268002AF6D100BFCE
:1021500032B900274F6043680B60596041600CE062
:1021600017682FB9116000270F604A60016004E012
:1021700013680B604A6059601160F0BD10B5C287EA
:10218000016300230AE000244C600C600C614C6188
:102190000C83CC61886020315C1CA3B29342F2DBDB
:1021A00010BD2DE9F041054695F8370000EB4000E1
:1021B000AE4901EB80042F69EE6887B946B900206B
:1021C00020812060606095F8370001F00BFF0EE081
:1021D0002089401E208100203061266007E0208990
:1021E000401E2081FE600EB9676000E0376100206C
:1021F0002861E860BDE8F08170B504460D4645B140
:102200002A462146A24804F040FB032084F8360009
:1022100002E0022084F836002046FFF7C2FF70BDBE
:102220002DE9F04105460C4616461F4691480068C8
:1022300080F8346000208F49096881F835003946FC
:102240008C480068FFF7D8FF6CB104F10808EC6017
:102250000122294687480068FFF790FF294640463B
:10226000FFF759FF06E0002082490968C8878149C5
:10227000096808637F4801682046FFF72BFFBDE827
:10228000F08110B50489012C03D10024046044605E
:1022900011E00C6824B94A680024146002600AE066
:1022A0004C6824B90B6800245C60436003E00B6851
:1022B0004A685A6013600489641E048100244C60DB
:1022C0000C6010BD2DE9F0410446256BE68F0AE055
:1022D000D5F80C8008F1080729463846FFF7D1FFEA
:1022E0002035701E86B2002EF2DC0020E0872063CD
:1022F000BDE8F08130B50346086BCC8F08E0C568B7
:102300009D4202D10361C26104E02030651EACB27F
:10231000002CF4DC00BF30BD10B590F8373003EB73
:102320004303524C04EB83010B893BB901230B811E
:102330000023C36003610860486009E00B895B1CEF
:102340000B810B68C360002303610A681061086099
:1023500010BD10B590F8373003EB4303434C04EB4A
:1023600083010B893BB901230B810023C360036107
:102370000860486008E00B895B1C0B810023C36088
:102380004A680261D060486010BD10B5044694F8F8
:10239000370001F017FE94F8370033490978884276
:1023A00003D12046FFF7D5FF02E02046FFF7B4FF38
:1023B00010BD70B505460C46164694F83600082840
:1023C00069D2DFE800F00405080906072E2F00BFD8
:1023D00000BF00BF60E000BF94F83400032804D1C0
:1023E000324621462846FFF785FF00202065A4F8E5
:1023F0005400266415B12046FFF764FF94F83600B8
:10240000032802D1204604F0DDFA2046FFF7BDFF85
:1024100000203434A07001206070002004F83409DA
:102420003AE000BF94F83400032804D13246214634
:102430002846FFF75FFF00202065A4F854002664BB
:1024400015B12046FFF73EFF204604F0BBFA0420FA
:102450003434A07001206070002004F834091BE0BF
:10246000610000207B0000207A000020042300206F
:1024700000010020FC0000205461736B205100001B
:102480005461736B2053656D000000002000000054
:10249000D4000020FFE700BF00BF70BD30B5AFF231
:1024A0001405C1F8B45000F1080422681AB1936809
:1024B0001D6AC56102E0AFF22C05C56130BD2DE992
:1024C000F04304460F4684F83770256BB4F83E801D
:1024D00013E0D5F80C9009F108063089012807D9D6
:1024E00029463046FFF7CDFE29463046FFF713FE5A
:1024F0002035A8F101001FFA80F8B8F1000FE8D1EB
:10250000BDE8F083002101604160018170470389CB
:102510005B1C038103684B6000230B60026802B1FF
:10252000116001600389012B00D14160704730B513
:102530000346086BCC8F08E0C5689D4202D1036159
:10254000C26104E02030651EACB2002CF4DC00BF98
:1025500030BD70B506460C46154694F8360008287E
:102560004CD2DFE800F00405080906072D2E00BF55
:1025700000BF00BF43E000BF94F83400032804D13B
:102580002A4621463046FFF7D2FF00202065A4F8F6
:10259000540025642046FFF795FE94F83600032882
:1025A00002D1204604F00EFA2046FFF7EEFE00208E
:1025B0003434A07002206070002004F834091EE05A
:1025C00000BF94F83400032804D12A46214630463F
:1025D000FFF7ADFF00202065A4F8540025642046D5
:1025E000FFF770FE204604F0EDF904203434A070AB
:1025F00002206070002004F8340900E000BF00BF32
:1026000070BDF0B50446059E086BCD8F0AE0C76823
:10261000A74204D1046142610383C66104E0203013
:102620006F1EBDB2002DF2DC00BFF0BD2DE9F843F6
:1026300006460C4617469846089D94F8360008282A
:102640005BD2DFE800F0040508090607323300BF5B
:1026500000BF00BF52E000BF94F83400032807D148
:1026600043463A46214630460095FFF7CAFF03E04D
:102670002765A4F85480256436B12046FFF722FE72
:1026800021463046FFF70AFF94F83600032802D1AE
:10269000204604F097F92046FFF777FE00203434F7
:1026A000A070607004F8340928E000BF94F834008A
:1026B000032807D143463A46214630460095FFF7A6
:1026C000A0FF03E02765A4F85480256436B12046B6
:1026D000FFF7F8FD21463046FFF7E0FE94F836009C
:1026E000072802D1204604F06DF904203434A0708C
:1026F0000020607004F8340900E000BF00BFBDE8AE
:10270000F88310B501460C8924B1012C03D0022CAA
:102710000CD101E000BF14E008684A68026100249F
:10272000C4601461D0600A6048600AE008684A68C2
:10273000C36800241C61C4600261D0600B60486003
:1027400000BF00BF10BD0000244A2549254A264A83
:102750002649274A2748284A284A294A294A2A48EE
:102760002A482B4A2B482C4A2C482D4A2D482E48C3
:102770002E482F482F4A304A304A3148314A324A8F
:102780003248334833483448344835483548364A67
:10279000364A374A374A384838483948394A3A4A2F
:1027A0003A4A3B483B483C483C493D483D4A3E4A02
:1027B0003E4A3F4A3F4A404A404A4148414A424ACB
:1027C00042484348434A444A4448454A454A4648A1
:1027D000464800BF00BF00BF7047000080A500084A
:1027E000E4A6000881A5000882A5000884A50008C9
:1027F00088A500088CA5000889A50008B4A50008D4
:10280000B5A50008B6A50008B8A50008BAA5000837
:10281000BEA50008C0A50008E0A50008E2A50008C4
:10282000E4A50008E6A50008E8A50008EAA5000858
:10283000ECA5000818A6000819A600081AA60008AA
:102840001CA600081EA600081FA6000820A6000857
:1028500022A6000824A6000826A6000828A600082C
:102860002AA600082CA600085CA600085DA60008A1
:102870005EA600085FA6000860A6000862A6000821
:1028800064A600088CA600088DA600088EA6000885
:102890008FA6000890A6000892A6000894A600083B
:1028A00098A6000899A600089AA600089BA600080A
:1028B0009CA600089DA600089EA600089FA60008EA
:1028C000A0A60008A2A60008A3A60008A4A60008C7
:1028D000A6A60008A8A60008A9A60008ACA600089D
:1028E000DCA60008DDA60008DEA60008E0A60008B9
:1028F000F7A1C16100214161F649096811B90021C0
:10290000816105E0F34909688161F249096848611C
:10291000F049086070472DE9F04104460F4616461D
:102920001D464FF00008EC480078002804DD42F610
:10293000E1602880BDE8F0811CB945F6C3502880CD
:10294000F8E700BF00BFFFF71DF9804600BF00BFDA
:10295000E2482060676026620020606204F108009F
:10296000FFF7D0FD2046FFF7C3FFDD480088401C7D
:10297000DB49088000BF00BF4046FFF707F900BFF2
:1029800000BF0020288000BFD4E770B50446D548BA
:102990002060D5A060600020206204F10805284670
:1029A000FFF7B0FD70BD426981693AB9C94B196042
:1029B00009B100234B610023836109E019B90023A9
:1029C0009361436104E091614A6100238361436143
:1029D00070472DE9FC5F05468846144600200090AC
:1029E000BD480078002805DD43F2C9202080002082
:1029F000BDE8FC9F25B945F6C35020800020F7E7CD
:102A0000B8F1000F03D0B8F1010F02D100E000BF10
:102A100004E045F6256020800020E9E700BFAF49CB
:102A20002868884204D045F6C45020800020DFE7A3
:102A300000BF00BFFFF7A6F8009000BF00BF05F180
:102A40000809B9F808603746B8F1000F03D0B8F1AB
:102A5000010F49D120E0A7B92846FFF7A4FFA048FD
:102A60000088401E9E4908802846FFF78EFF00BF61
:102A700000BF0098FFF78AF800BF00BF0020208049
:102A800009E000BF00BF0098FFF780F800BF00BF5B
:102A900047F25F10208032E0FEF7F7FE01900AE077
:102AA000D9F800A0DAF808B059462846019AFFF78D
:102AB00050FD701E86B2002EF2D12846FFF773FF3C
:102AC00087480088401E864908802846FFF75DFF3A
:102AD00000BF00BF0098FFF759F800BF00BFFFF725
:102AE000AEF9002020800AE000BF00BF0098FFF789
:102AF0004DF800BF00BF45F62560208000BF00BF35
:102B0000384675E72DE9F04106460F4614461D4646
:102B1000DDF8188076480068446775480068A0F8BA
:102B20007C50002072490968886743460122394673
:102B30003046FFF775FBBDE8F0812DE9F04F8BB013
:102B40000546884693469946DDE9147400200190B5
:102B500061480078002806DD46F2AE102080002093
:102B60000BB0BDE8F08F25B945F6C350208000209A
:102B7000F6E748F20101A9EB0100894536D01ADCDD
:102B800040F20111A9EB010089452BD00CDCB9F111
:102B9000010F23D0B9F1020F21D0B9F1040F1FD0DA
:102BA000B9F1080F2AD11CE001281CD003281BD042
:102BB000072823D119E0B0F5807F1BD006DC01285F
:102BC00015D0032814D0072818D112E0A0F2011064
:102BD00088B1022810D0062810D10EE000BF00BF37
:102BE00000BF00BF00BF00BF00BF00BF00BF00BFED
:102BF00000BF00BF00BF00BF00BF04E045F6256076
:102C000020800020ACE700BF34492868884204D007
:102C100045F6C45020800020A2E709F4807010B16E
:102C20004FF0010A01E04FF0000A0FB100203860B8
:102C300009F00F000A9000BF00BFFEF7A3FF01904C
:102C400000BF00BF0A9801287ED002287DD004284A
:102C500002D008287AD15FE0286A00EA08064645D3
:102C600016D1BAF1010F02D1286AB0432862204878
:102C7000006886670FB1686A386000BF00BF0198BE
:102C8000FEF784FF00BF00BF00202080304667E7CA
:102C900009F4004058B100BF00BF0198FEF776FF6D
:102CA00000BF00BF46F2B0102080002058E7114856
:102CB0000078002820DD00BF00BF0198FEF766FF06
:102CC00000BF00BF46F663502080002048E70000A8
:102CD000200000006400002060000020464C4147B6
:102CE000680000204E4F4E453F464C4147000000D3
:102CF000FC000020940000204B464246294602A8D2
:102D0000CDF800B0FFF7FEFE00BF00BF0198FEF750
:102D10003DFF00BF00BFEEE0286A00EA0806D6B11A
:102D2000BAF1010F02D1286AB0432862FA4800685C
:102D300086670FB1686A386000BF00BF0198FEF770
:102D400025FF00BF00BF02E034E07EE0C7E00020C6
:102D50002080304604E709F4004058B100BF00BFAE
:102D60000198FEF713FF00BF00BF46F2B0102080AD
:102D70000020F5E6E948007800280BDD00BF00BF21
:102D80000198FEF703FF00BF00BF46F663502080A6
:102D90000020E5E64B464246294602A8CDF800B0A1
:102DA000FFF7B0FE00BF00BF0198FEF7EFFE00BFC7
:102DB00000BFA0E0286A28EA0006464516D1BAF10D
:102DC000010F02D1286A30432862D3480068866721
:102DD0000FB1686A386000BF00BF0198FEF7D6FEE9
:102DE00000BF00BF002020803046B9E609F4004053
:102DF00058B100BF00BF0198FEF7C8FE00BF00BF7A
:102E000046F2B01020800020AAE6C44800780028CE
:102E10000BDD00BF00BF0198FEF7B8FE00BF00BF8A
:102E200046F66350208000209AE64B4642462946EB
:102E300002A8CDF800B0FFF765FE00BF00BF019803
:102E4000FEF7A4FE00BF00BF55E0286A28EA00068E
:102E5000B6B1BAF1010F02D1286A30432862AE48F8
:102E6000006886670FB1686A386000BF00BF0198CC
:102E7000FEF78CFE00BF00BF0020208030466FE6CA
:102E800009F4004058B100BF00BF0198FEF77EFE74
:102E900000BF00BF46F2B0102080002060E69F48CF
:102EA000007800280BDD00BF00BF0198FEF76EFE22
:102EB00000BF00BF46F663502080002050E64B461E
:102EC0004246294602A8CDF800B0FFF71BFE00BF1E
:102ED00000BF0198FEF75AFE00BF00BF0BE000BF25
:102EE00000BF0198FEF752FE00BF00BF45F6256007
:102EF0002080002034E600BFFEF7A1FF00BF00BF26
:102F0000FEF740FE019000BF00BF8348006890F8C4
:102F1000350030B101280CD0022828D0032836D142
:102F200017E01FB17C480068006C386000202080EA
:102F300038E01FB178480068006C386000BF00BFFF
:102F40000198FEF723FE00BF00BF46F2A9102080C3
:102F500028E00FB10020386000BF00BF0198FEF7E5
:102F600015FE00BF00BF47F2D92020801AE01FB134
:102F700069480068006C386000BF00BF0198FEF728
:102F800005FE00BF00BF45F6C25020800AE000BF2A
:102F900000BF0198FEF7FAFD00BF00BF46F62E60A5
:102FA000208000BF00BF208808B10020D8E55A4823
:102FB0000068866FBAF1010F20D10A9801280BD062
:102FC00002280AD0042802D008280AD100E000BF55
:102FD000286AB043286210E000BF286A30432862A4
:102FE0000BE000BF00BF0198FEF7D0FD00BF00BF9F
:102FF00045F6256020800020B2E500BF00BF00BF7D
:103000000198FEF7C3FD00BF00BF002020803046BE
:10301000A6E52DE9F05F05460E4614464FF0000A7E
:103020003F480078002805DD46F2AA1020800020E5
:10303000BDE8F09F25B945F6C35020800020F7E792
:103040004EB1B6F5807F07D0B6F5004F05D0B6F586
:10305000014F04D102E000BF00BF00BF04E045F60D
:10306000256020800020E3E700BF2E4928688842C1
:1030700004D045F6C45020800020D9E700BF00BF2F
:10308000FEF780FD824600BF00BF05F108073889C2
:1030900058B900BF00BF5046FEF778FD00BF00BF23
:1030A00046F2AB1020800020C2E74FF00008FEF788
:1030B000ECFB83460FE03868D0F808905A46494642
:1030C0002846FFF776F908F101001FFA80F8B6F5F7
:1030D000807F00D002E038890028ECDC00BF00BF10
:1030E00000BF5046FEF752FD00BF00BF06F400408F
:1030F00008B9FEF7A4FE00202080404698E770B58E
:10310000044600260648007800280DDD46F2AE1081
:103110002080002070BD0000FC00002094000020F2
:1031200060000020464C414700BF00BFFEF72AFD6B
:10313000064600BF00BFA5480068856F00BF00BFFE
:103140003046FEF723FD00BF00BF00202080284648
:10315000E0E770B504460E46154634346664002038
:1031600060702070E560A078343C08281DD2DFE84C
:1031700000F0040508090706171800BF00BF00BFCC
:1031800014E000BF94F83600032802D1204603F073
:1031900019FC2046FFF7F9F8002084F8360005E016
:1031A00000BF042084F8360000E000BF00BF2046C6
:1031B000FFF788F870BD2DE9F04F85B004468946C9
:1031C00092469B46DDF838800020009000BF00BF8B
:1031D000FEF7D8FC009000BF00BFBAF1000F0AD084
:1031E000BAF1010F0DD0BAF5004F05D06FF40040D1
:1031F000504460B906E000BF206A40EA090020623E
:1032000014E000BF206A20EA090020620EE000BF3F
:1032100000BF0098FEF7BAFC00BF00BF45F625606E
:10322000A8F80000002005B0BDE8F08F00BFC4F88A
:1032300024B004F1080001900198008958B900BF3A
:1032400000BF0098FEF7A2FC00BF00BF0020A8F856
:103250000000206AE7E701980768BD6853E07868D6
:10326000029095F87C0000F00F000390039801286D
:103270001ED0022829D0042802D0082830D10CE022
:10328000206A696F00EA0106686FB04204D15A46AD
:1032900031462846FFF75DFF2FE0206A696F00EA9C
:1032A000010626B15A4631462846FFF752FF24E070
:1032B000686F216A20EA0106686FB04204D15A465D
:1032C00031462846FFF745FF17E0686F216A20EA7C
:1032D000010626B15A4631462846FFF73AFF0CE070
:1032E00000BF00BF0098FEF751FC00BF00BF43F6CF
:1032F000FF20A8F80000002095E700BF029F0FB153
:10330000BD6800E00025002DA9D100BF00BF0098D6
:10331000FEF73CFC00BF00BF0AF4004008B9FEF70E
:103320008EFD00BF00BFFEF72DFC009000BF00BF68
:10333000206A049000BF00BF0098FEF727FC00BF82
:1033400000BF0020A8F8000004986CE72DE9F843BE
:103350000546884616461C462DB945F6C3502080C2
:103360000020BDE8F8834EB1012E08D0B6F5004F1D
:1033700006D06FF40040304420B902E000BF00BF27
:1033800000BF04E045F6256020800020E9E700BF8B
:103390000F492868884204D045F6C4502080002098
:1033A000DFE7FEF772FA81464B4632464146284631
:1033B0000094FFF700FF07463846D2E70021054A90
:1033C0001160054A1180018070470000FC00002058
:1033D000464C4147640000206800002000218161C4
:1033E0007949096811B90021C16105E07649096888
:1033F000C1617549096888617349086070472DE9A2
:10340000FF4F83B0044615461F46DDE910960020A5
:1034100000906E480078002805DD45F2B9603080E4
:1034200007B0BDE8F08F1DB945F2BB603080F7E70B
:10343000022F03DA45F2BC603080F1E7B9F1040FE6
:1034400003D245F2C1603080EAE74FF0030ABAF1D7
:10345000000F0DD005EA0A0018B145F2BB603080BC
:10346000DEE709EA0A0018B145F2C1603080D7E70B
:10347000AB46A846781E80B201900020029007E07B
:10348000C844CBF80080C3460298401C80B202902A
:10349000DDE901108842F3DB0020CBF8000000BF1B
:1034A00000BFFEF76FFB009000BF00BF48482060E0
:1034B0000498A0606560E560A7826782A4F8109018
:1034C0002046FFF78BFF43480088401C4149088095
:1034D00000BF00BF0098FEF759FB00BF00BF0020EF
:1034E000308000BF9CE72DE9F04104460D460027DF
:1034F0002CB945F2BF6028800020BDE8F08100BFF4
:1035000000BFFEF73FFB074600BF00BFA08A58B9C7
:1035100000BF00BF3846FEF739FB00BF00BF45F2D1
:10352000C26028800020E8E7E6683068E060A08A92
:10353000401EA08200BF00BF3846FEF727FB00BF39
:1035400000BF002028803046D7E72DE9F04104462F
:103550000E461546002724B945F2BF602880BDE815
:10356000F0811EB945F2BE602880F8E700BF00BFB9
:10357000FEF708FB074600BF00BFA08A618A8842A9
:103580000ADB00BF00BF3846FEF700FB00BF00BFEC
:1035900045F2BA602880E2E7E0683060E660A08A21
:1035A000401CA08200BF00BF3846FEF7EFFA00BF04
:1035B00000BF0020288000BFD1E70021024A11602F
:1035C000044A1180018070476C00002060000020D8
:1035D0004D454D207000002070B50146854D2D6889
:1035E0001DB945F21E750D8070BD834D2D881DB926
:1035F00045F21D750D80F7E77E4D28682A68103268
:103600007D4D2D886D1EACB2002308E002600025C0
:1036100045600581C560103010325D1CABB2A3421D
:10362000F4DB0025056045600581C560714D2D689E
:10363000724E3560704D2D88B5800025F58035813E
:103640000D8000BFD0E710B5014648894B89002B9B
:1036500017DD0A68694B1B681360684C4B68236070
:103660002346DB884C891B1B644CE38023469B88E4
:103670004C892344614CA38000234B818B810B60D8
:103680004B6010BD01810022428182810260426054
:103690007047F0B504460D46608940B90020288087
:1036A00002B1106046F2925018800020F0BD6168AF
:1036B0004E68088928800AB1C86810600868606090
:1036C000606818B900202060608102E06089401EB7
:1036D00060814A4800680860484801608088401C52
:1036E000464FB8803846C088401EF88000201880B9
:1036F0003046DBE72DE9F0410D46DDE90674B0F810
:103700000AC0B0F80880C44505DB46F2935CA4F813
:1037100000C0BDE8F081DFF8E4C0BCF804C0BCF133
:10372000000F04D145F21D7CA4F800C0F1E7DFF8DA
:10373000CCC0DCF80010DFF8C480D1F800C0C8F8B5
:1037400000C0C446BCF804C0ACF1010CA8F804C029
:10375000C446BCF806C00CF1010CA8F806C0C4466B
:10376000BCF808C0B8F80680C44507DADFF88CC09A
:10377000BCF806C0DFF88480A8F808C0B0F80AC01A
:10378000BCF1000F0AD1016041604FF0010CA0F8BC
:103790000AC04FF0000CC1F800C017E003F0100C95
:1037A000BCF1000F07D10668316001604FF0000CDA
:1037B000C1F800C004E0D0F804C0C1F800C0416006
:1037C000B0F80AC00CF1010CA0F80AC0B0F80CC0A7
:1037D000B0F80A80C44503DAB0F80AC0A0F80CC0FB
:1037E0004D600A81CF604FF0000CA4F800C000BF0C
:1037F0008FE700002CA5000824A50008F82200206F
:10380000FEA1C16100214161FD49096811B9002192
:10381000816105E0FA4909688161F94909684861EF
:10382000F749086070472DE9F04104460E461546F9
:103830000027F4480078002804DD42F6E160288083
:10384000BDE8F0811CB945F6C3502880F8E700BFF9
:1038500000BFFEF797F9074600BF00BFEA482060A7
:1038600066600020206284F82500A062402084F871
:10387000240004F10800FEF745FE2046FFF7C0FFD4
:10388000E2480088401CE149088000BF00BF38467C
:10389000FEF77CF900BF00BF0020288000BFCFE703
:1038A00010B50446DA482060DAA06060002020628B
:1038B00084F82500A062402084F8240004F1080068
:1038C000FEF720FE10BD426981693AB9CC4B196000
:1038D00009B100234B610023836109E019B900237A
:1038E0009361436104E091614A6100238361436114
:1038F00070472DE9FE4F054689461446002000908A
:10390000C0480078002805DD43F2C920208000204F
:10391000BDE8FE8F25B945F6C35020800020F7E7AB
:10392000B9F1000F03D0B9F1010F02D100E000BFDF
:1039300004E045F6256020800020E9E700BFB24999
:103940002868884204D045F6C45020800020DFE774
:1039500000BF00BFFEF716F9009000BF00BF05F1E1
:10396000080ABAF80870B846B9F1000F03D0B9F1E7
:10397000010F7DD122E0B8F1000F14D12846FFF7E6
:10398000A2FFA2480088401EA04908802846FFF7F1
:1039900087FF00BF00BF0098FEF7F8F800BF00BF28
:1039A0000020208009E000BF00BF0098FEF7EEF87D
:1039B00000BF00BF47F25F10208074E02E6A76B32C
:1039C00096F8370095F82410884236D096F83600DD
:1039D000082825D2DFE800F004131A1B14151C1D5B
:1039E0003046FEF7DEFB95F8240086F8370096F89F
:1039F000370000F0E7FA3046FEF7ABFC1CE000BFF2
:103A000000BF95F8240086F8370015E000BF00BF1E
:103A100000BF95F824103046FEF751FD0CE00CE095
:103A200000BF00BF0098FEF7B1F800BF00BF46F628
:103A30002D60208000206BE700BFFDF726FF01907E
:103A40000BE0DAF800B0DBF8080002902846DDE968
:103A50000121FEF77EFD781E87B2002FF1D12846A6
:103A6000FFF731FF69480088401E6849088000E080
:103A70000EE02846FFF714FF00BF00BF0098FEF7D6
:103A800085F800BF00BFFEF7DAF9002020800AE0C9
:103A900000BF00BF0098FEF779F800BF00BF45F6F1
:103AA0002560208000BF00BF404631E72DE9F04788
:103AB00088B00546894690461C46109E4FF0000A85
:103AC00050480078002805DD46F2AE10308008B07E
:103AD000BDE8F0871DB945F6C3503080F7E7B8F16F
:103AE000000F03D0B8F5004F02D100E000BF03E0A3
:103AF00045F625603080EAE700BF434928688842E0
:103B000003D045F6C4503080E1E70CB100202060BE
:103B100000BF00BFFEF736F8824600BF00BF95F831
:103B20002500C0B93D48006828623C48006890F80C
:103B3000370085F82400012085F825000CB1A86A1B
:103B4000206000BF00BF5046FEF720F800BF00BF56
:103B500000203080BBE73149286A0968884212D1C9
:103B600095F82500401C85F825000CB1A86A206056
:103B700000BF00BF5046FEF709F800BF00BF45F286
:103B800082703080A3E708F4004050B100BF00BF4E
:103B90005046FDF7FBFF00BF00BF46F2B01030807B
:103BA00095E71F48007800280ADD00BF00BF504697
:103BB000FDF7ECFF00BF00BF46F66350308086E79C
:103BC0002F6A97F837001549096891F8371088422D
:103BD00050DD97F83600082840D2DFE800F0042BCB
:103BE00034352D2C36373846FEF7DBFA0B480068A3
:103BF00090F8370087F8370014E00000200000003C
:103C000074000020600000204D55545878000020BA
:103C10004E4F4E453F4D555445580000FC00002086
:103C20009400002097F8370000F0CCF93846FEF7F2
:103C300073FB1EE000BF00BFCE48006890F837005D
:103C400087F8370015E000BF00BF00BFC948006813
:103C500090F837103846FEF732FC0AE000BF00BF8C
:103C60005046FDF793FF00BF00BF46F62D60308041
:103C70002DE700BF4B46042229466846FEF7D0FADE
:103C800000BF00BF5046FDF781FF00BF00BFFEF739
:103C9000D6F800BF00BFFDF775FF824600BF00BF2A
:103CA000B448006890F8350030B101280CD00228E3
:103CB0001AD0032821D110E01CB1AE480068006C76
:103CC0002060002030801CE01CB1AA480068006C15
:103CD000206046F2A910308013E00CB10020206073
:103CE00047F2D92030800CE01CB1A2480068006C7B
:103CF000206045F6C250308003E046F62E603080EA
:103D000000BF00BF00BF00BF5046FDF73FFF00BF30
:103D100000BF00BFDBE62DE9F05F05460E46144606
:103D20004FF0000A94480078002805DD46F2AA10FA
:103D300020800020BDE8F09F25B945F6C3502080C3
:103D40000020F7E74EB1B6F5807F07D0B6F5004FFB
:103D500005D0B6F5014F04D102E000BF00BF00BF9F
:103D600004E045F6256020800020E3E700BF83499A
:103D70002868884204D045F6C45020800020D9E746
:103D800000BF00BFFDF7FEFE824600BF00BF05F189
:103D90000807388958B900BF00BF5046FDF7F6FE46
:103DA00000BF00BF46F2AB1020800020C2E74FF0FA
:103DB0000008FDF76AFD83460FE03868D0F80890E8
:103DC0005A4649462846FEF7F4FA08F101001FFA60
:103DD00080F8B6F5807F00D002E038890028ECDC5E
:103DE00000BF00BF00BF5046FDF7D0FE00BF00BFC0
:103DF00006F4004008B9FEF722F800202080404673
:103E000098E72DE9F84F0446884615464FF0000A1A
:103E100059480078002804DD46F20E202880BDE8CD
:103E2000F88F1CB945F6C3502880F8E7B8F1000FA9
:103E300003D0B8F5004F02D100E000BF03E045F623
:103E400025602880EBE700BF4C492068884203D0FA
:103E500045F6C4502880E2E700BF00BFFDF792FEA0
:103E6000824600BF00BF4349206A096888420AD0E1
:103E700000BF00BF5046FDF789FE00BF00BF45F2FE
:103E800081702880CBE7FDF700FD0746A76294F814
:103E90002500401E84F8250094F8250000280ADD3E
:103EA00000BF00BF5046FDF771FE00BF00BF45F2E6
:103EB00083702880B3E704F10809B9F8080068B9ED
:103EC0000020206284F8250000BF00BF5046FDF7A7
:103ED0005DFE00BF00BF00202880A0E725480068E5
:103EE00090F8370094F82410884219D021480068CF
:103EF000FEF757F994F824001E49096881F8370045
:103F00001C49096891F8370000F05CF8194800680E
:103F1000FEF71FFA1748006890F837001849087034
:103F2000D9F800008668266296F8370084F82400E5
:103F3000012084F8250000231A46314620460097C8
:103F4000FEF774FB00BF00BF5046FDF71FFE00BF29
:103F500000BF08F4004008B9FDF771FF0020288079
:103F600000BF5CE70021074A1160074A1180018009
:103F700070470000FC000020600000204D555458A0
:103F80007A0000207400002078000020002004E067
:103F900000211C4A42F82010401C0228F8D3704728
:103FA00070B50025174C03E005F12000C5B2241DB3
:103FB00020680028F8D02068FDF7EFFD2844C5B23E
:103FC000284670BD30B5420900F01F030121C3F13E
:103FD0001F04A1400B4C54F822400C43094D45F8F6
:103FE000224030BD30B5420900F01F030121C3F16A
:103FF0001F04A140034C54F822408C43014D45F866
:10400000224030BD38000020FAA1C1610021416189
:10401000F949096811B90021816105E0F64909688B
:104020008161F54909684861F349086070472DE9E5
:10403000F04104460F4616461D464FF00008EF4873
:104040000078002804DD42F6E1602880BDE8F081B8
:104050001CB945F6C3502880F8E71EB946F29450C3
:104060002880F3E700BF00BFFDF78CFD804600BF4E
:1040700000BFE34820606760314604F12000FFF78D
:1040800001FB04F10800FEF73DFA2046FFF7BCFFF4
:10409000DC480088401CDB49088000BF00BF404668
:1040A000FDF774FD00BF00BF0020288000BFCDE7F2
:1040B00010B5044604F12000FFF7C5FAD24820608D
:1040C000D2A06060002104F12000FFF7DBFA04F1C8
:1040D0000800FEF717FA10BD426981693AB9C64B6C
:1040E000196009B100234B610023836109E019B90C
:1040F00000239361436104E091614A61002383617D
:10410000436170472DE9FC5F054688461446002050
:104110000090BA480078002805DD43F2C9202080CD
:104120000020BDE8FC9F25B945F6C3502080002043
:10413000F7E7B8F1000F03D0B8F1010F02D100E0AA
:1041400000BF04E045F6256020800020E9E700BFBD
:10415000AB492868884204D045F6C450208000202E
:10416000DFE700BF00BFFDF70DFD009000BF00BFFF
:1041700005F10809B9F808603746B8F1000F03D017
:10418000B8F1010F49D120E0A7B92846FFF7A4FFF5
:104190009C480088401E9B4908802846FFF788FFFE
:1041A00000BF00BF0098FDF7F1FC00BF00BF00207A
:1041B000208009E000BF00BF0098FDF7E7FC00BFCA
:1041C00000BF47F25F10208032E0FDF75EFB0190F8
:1041D0000AE0D9F800A0DAF808B059462846019A52
:1041E000FEF7B7F9701E86B2002EF2D12846FFF70F
:1041F00073FF84480088401E824908802846FFF7E4
:1042000057FF00BF00BF0098FDF7C0FC00BF00BF14
:10421000FDF715FE002020800AE000BF00BF0098D7
:10422000FDF7B4FC00BF00BF45F62560208000BF4D
:1042300000BF384675E72DE9F04105460C460026DB
:104240006E480078002805DD4FF46C502080002077
:10425000BDE8F08125B945F6C35020800020F7E77E
:1042600067492868884204D045F6C4502080002061
:10427000EEE700BF00BFFDF785FC064600BF00BFAC
:1042800005F12000FFF7DFF9074600BF00BF304609
:10429000FDF77CFC00BF00BF002020803846D7E738
:1042A0002DE9F04F89B00746894690461E46DDE964
:1042B00012544FF0000B51480078002806DD46F2FA
:1042C000AE102080002009B0BDE8F08F27B945F678
:1042D000C35020800020F6E726B946F2D520208082
:1042E0000020F0E7B8F1000F03D0B8F5004F02D17D
:1042F00000E000BF04E045F6256020800020E2E7F2
:1043000000BF3F493868884204D045F6C450208039
:104310000020D8E70DB10020286000BF00BFFDF7E6
:1043200031FC834600BF00BF23462A46314607F1D1
:104330002000FFF7AEF98246208840B900BF00BFD9
:104340005846FDF723FC00BF00BF5046BBE708F40A
:10435000004058B100BF00BF5846FDF717FC00BF32
:1043600000BF46F2B01020800020ACE7284800785B
:1043700000280BDD00BF00BF5846FDF707FC00BF5B
:1043800000BF46F66350208000209CE74B46052284
:10439000394601A8FDF744FF00BF00BF5846FDF7AE
:1043A000F5FB00BF00BFFDF74AFD00BF00BFFDF7F2
:1043B000E9FB834600BF00BF1648006890F835004F
:1043C00030B1012828D002283DD0032848D130E060
:1043D00010480068D0F850A00E480068B0F85400AB
:1043E00030801DB10B480068006C286000202080E0
:1043F0003EE000002000000080000020600000205F
:1044000051554555840000204E4F4E453F51000008
:1044100094000020FC0000204FF0000A00203080B3
:104420001DB1AA480068006C286046F2A9102080DF
:104430001EE04FF0000A0020308005B1286047F2EE
:10444000D920208014E04FF0000A002030801DB1F8
:104450009E480068006C286045F6C250208007E046
:104460004FF0000A0020308046F62E60208000BF0A
:1044700000BF00BF00BF5846FDF788FB00BF00BF6C
:10448000504620E72DE9F05F05460E4614464FF0F2
:10449000000A8F480078002805DD46F2AA10208027
:1044A0000020BDE8F09F25B945F6C35020800020CC
:1044B000F7E74EB1B6F5807F07D0B6F5004F05D0CF
:1044C000B6F5014F04D102E000BF00BF00BF04E019
:1044D00045F6256020800020E3E700BF7D4928687D
:1044E000884204D045F6C45020800020D9E700BFA0
:1044F00000BFFDF747FB824600BF00BF05F108077C
:10450000388958B900BF00BF5046FDF73FFB00BFD8
:1045100000BF46F2AB1020800020C2E74FF0000839
:10452000FDF7B3F983460FE03868D0F808905A4693
:1045300049462846FDF73DFF08F101001FFA80F8C3
:10454000B6F5807F00D002E038890028ECDC00BF9F
:1045500000BF00BF5046FDF719FB00BF00BF06F4C7
:10456000004008B9FDF76BFC00202080404698E72A
:104570002DE9F04F85B007468A4693461C46002039
:10458000029000BF00BFFDF7FDFA029000BF00BF20
:1045900007F108063089E0B904F0100010B94FF0B7
:1045A000000801E04FF01008DDE90E0143465A46CD
:1045B000CDE90001514607F12000FFF79BF800BF4D
:1045C00000BF0298FDF7E2FA00BF00BF05B0BDE8EA
:1045D000F08F04F4007008B1358900E00125D6F8A9
:1045E000009011E0D9F808000390D9F80400049075
:1045F0000E985B465246009038460399FEF716F82F
:10460000DDF81090681E85B2002DEBD100BF00BF11
:104610000298FDF7BBFA00BF00BF04F4004008B9E0
:10462000FDF70DFC00210F98018000BFCEE72DE9BA
:10463000FC470546884691461E460A9C25B945F624
:10464000C3502080BDE8FC87B6F5004F19D009DCC7
:104650009EB1102E12D0B6F5007F10D0B6F5047FB3
:1046600013D10DE0A6F50040103858B1B0F5F87F31
:1046700009D0B0F5007F08D106E000BF00BF00BF41
:1046800000BF00BF00BF00BF03E045F625602080EB
:10469000D8E700BF0F492868884203D045F6C450C8
:1046A0002080CFE7FDF7F1F8074633464A464146FA
:1046B0002846CDE90074FFF75BFF00BFC2E7002189
:1046C000054A1160054A118001807047FC000020F6
:1046D00060000020515545558000002084000020D6
:1046E000FBA1C16100214161FA49096811B90021AA
:1046F000816105E0F74909688161F6490968486107
:10470000F449086070472DE9F04104460E4617460B
:104710001D464FF00008F0480078002804DD42F6FE
:10472000E1602880BDE8F0811CB945F6C3502880BF
:10473000F8E700BF00BFFDF725FA804600BF00BFC5
:10474000E6482060276200206062666004F108008D
:10475000FDF7D8FE2046FFF7C3FFE1480088401C64
:10476000DF49088000BF00BF4046FDF70FFA00BFD9
:1047700000BF0020288000BFD4E710B50446D94808
:104780002060002020626062D7A0606004F1080011
:10479000FDF7B8FE10BD426981693AB9CD4B196089
:1047A00009B100234B610023836109E019B900239B
:1047B0009361436104E091614A6100238361436135
:1047C00070472DE9FC5F054688461446002000909E
:1047D000C1480078002805DD43F2C9202080002070
:1047E000BDE8FC9F25B945F6C35020800020F7E7BF
:1047F000B8F1000F03D0B8F1010F02D100E000BF03
:1048000004E045F6256020800020E9E700BFB349B9
:104810002868884204D045F6C45020800020DFE795
:1048200000BF00BFFDF7AEF9009000BF00BF05F16B
:104830000809B9F808603746B8F1000F03D0B8F19D
:10484000010F49D120E0A7B92846FFF7A4FFA448EB
:104850000088401EA24908802846FFF78EFF00BF4F
:1048600000BF0098FDF792F900BF00BF0020208034
:1048700009E000BF00BF0098FDF788F900BF00BF46
:1048800047F25F10208032E0FCF7FFFF01900AE062
:10489000D9F800A0DAF808B059462846019AFDF781
:1048A00058FE701E86B2002EF2D12846FFF773FF25
:1048B0008B480088401E8A4908802846FFF75DFF24
:1048C00000BF00BF0098FDF761F900BF00BFFDF712
:1048D000B6FA002020800AE000BF00BF0098FDF774
:1048E00055F900BF00BF45F62560208000BF00BF1E
:1048F000384675E72DE9F04788B006468946904668
:104900001C46109D4FF0000A73480078002806DD11
:1049100046F2AE102880002008B0BDE8F08726B926
:1049200045F6C35028800020F6E7B8F1000F03D009
:10493000B8F5004F02D100E000BF04E045F6256065
:1049400028800020E8E700BF64493068884204D02E
:1049500045F6C45028800020DEE70CB1002020601E
:1049600000BF00BFFDF70EF9824600BF00BF306AEE
:1049700088B1306A401E30620CB1706A2060376ABC
:1049800000BF00BF5046FDF701F900BF00BF002087
:1049900028803846C0E708F4004060B1376A00BF9D
:1049A00000BF5046FDF7F2F800BF00BF46F2B0105E
:1049B00028803846B0E74E48007800280BDD00BF5D
:1049C00000BF5046FDF7E2F800BF00BF46F6635057
:1049D00028800020A0E74B46062231466846FDF7B6
:1049E0001FFC00BF00BF5046FDF7D0F800BF00BF5E
:1049F000FDF725FA00BF00BFFDF7C4F8824600BFEF
:104A000000BF3C48006890F8350030B101280CD058
:104A100002281AD0032821D110E01CB135480068C3
:104A2000006C20600020288024E01CB13148006820
:104A3000006C206046F2A91028801BE00CB1002019
:104A4000206047F2D920288014E01CB12948006872
:104A5000006C206045F6C25028800BE046F62E60C0
:104A6000288000BF00BF5046FDF790F800BF00BF90
:104A7000002051E700BF376A00BF00BF5046FDF776
:104A800085F800BF00BF384646E72DE9F05F0546D0
:104A90000E4614464FF0000A0F480078002805DD46
:104AA00046F2AA1020800020BDE8F09F25B945F607
:104AB000C35020800020F7E7F6B1B6F5807F1CD008
:104AC000B6F5004F1AD0B6F5014F19D117E0000026
:104AD00020000000980000206000002053454D4158
:104AE0009C0000204E4F4E453F53454D00000000B6
:104AF00094000020FC00002000BF00BF00BF04E0C5
:104B000045F6256020800020CEE700BFAA4928682E
:104B1000884204D045F6C45020800020C4E700BF7E
:104B200000BFFDF72FF8824600BF00BF05F1080760
:104B3000388958B900BF00BF5046FDF727F800BFBD
:104B400000BF46F2AB1020800020ADE74FF0000818
:104B5000FCF79BFE83460FE03868D0F808905A4671
:104B600049462846FDF725FC08F101001FFA80F8A8
:104B7000B6F5807F00D002E038890028ECDC00BF69
:104B800000BF00BF5046FDF701F800BF00BF06F4AC
:104B9000004008B9FDF753F900202080404683E724
:104BA0002DE9FF5F0446884691461D46002001908E
:104BB00000BF00BFFCF7E6FF019000BF00BF04F19B
:104BC0000807388900284FD10420012804D0022882
:104BD00014D0042834D123E0206AFF280DD100BF6F
:104BE00000BF0198FCF7D2FF00BF00BF46F6C550DA
:104BF0002880002004B0BDE8F09F22E04FF6FF714E
:104C0000206A88420BD100BF00BF0198FCF7BEFFAD
:104C100000BF00BF46F6C55028800020EAE710E03C
:104C2000206A401C58B900BF00BF0198FCF7AEFFD6
:104C300000BF00BF46F6C55028800020DAE700E03C
:104C400000BF00BF206A401C2062D4F820A0C4F836
:104C5000249000BF00BF0198FCF798FF00BF00BF81
:104C6000002028805046C5E708F4007008B13E894E
:104C700000E00126D7F800B011E0DBF80800029050
:104C8000DBF80400039000231A46CDF8009020467C
:104C90000299FDF7CBFCDDF80CB0701E86B2002E39
:104CA000EBD1D4F820A000BF00BF0198FCF76EFF45
:104CB00000BF00BF08F4004008B9FDF7C0F80020AD
:104CC0002880504696E72DE9F04105460E461446E9
:104CD0002DB945F6C35020800020BDE8F0814EB1CB
:104CE000B6F5007F07D0B6F5004F05D0B6F5024FF8
:104CF00004D102E000BF00BF00BF04E045F625601C
:104D000020800020E9E700BF2B492868884204D0B2
:104D100045F6C45020800020DFE7FCF7B6FD804652
:104D20002346424631462846FFF73AFF07463846B3
:104D3000D3E72DE9F04104460E4615464FF0000832
:104D40001E480078002804DD46F6C6502880BDE8DD
:104D5000F0811CB945F6C3502880F8E71649206851
:104D6000884203D045F6C4502880F0E70020288010
:104D700000BF00BFFCF706FF804600BF00BF206AEF
:104D800008B1266208E004F10807388908B92662EC
:104D900002E047F25F10288000BF00BF4046FCF7EA
:104DA000F5FE00BF00BF00BFD1E70021044A11603B
:104DB000044A11800180704753454D416000002036
:104DC000980000209C0000202DE9F04107464FF09C
:104DD000000800BF00BFFCF7D5FE804600BF00BF43
:104DE0000020FE490880FE490860FE490860FE492F
:104DF0000860FE490860FE49088100BF00BF4046C8
:104E0000FCF7C4FE00BF00BF00BF00BFFCF7BAFE46
:104E1000804600BF00BFF748046800BF00BF40469F
:104E2000FCF7B4FE00BF00BF21E000BF00BFFCF7ED
:104E3000A9FE804600BF00BF00206C34E063206004
:104E40002063A061A082E0826062A062FCF71DFD89
:104E500020626C3C04F158060020B081D4F8B040C8
:104E600000BF00BF4046FCF791FE00BF00BF002C12
:104E7000DBD100BF00BFFCF785FE804600BF00BF4E
:104E8000DD48056800BF00BF4046FCF77FFE00BF5D
:104E900000BF12E000BF00BFFCF774FE804600BFF9
:104EA00000BF05F120060020B081AD6900BF00BF42
:104EB0004046FCF76BFE00BF00BF002DEAD101F0B9
:104EC000ADFD02F019FB00203880BDE8F081F8B597
:104ED000044600266946C94801F074FBBDF800008D
:104EE00018B1BDF800002080F8BD6A4600210220FC
:104EF00001F0B6FDBDF8000018B1BDF8000020803B
:104F0000F2E700BF00BFFCF73DFE064600BF00BF52
:104F10000020BB49086000BF00BF3046FCF736FEEA
:104F200000BF00BF0025B7480068B749096888423C
:104F300005D9B4480068B4490968B0FBF1F525B952
:104F4000B04800680A21B0FBF1F56A460021284606
:104F500001F086FD6946A94800F08FFFBDF800000A
:104F600018B1BDF800002080BEE700BF00BFFCF70D
:104F700009FE064600BF00BF002099490860A0480E
:104F80000068A24908600120A149087000BF00BF65
:104F90003046FCF7FBFD00BF00BF0020208000BFB3
:104FA000A2E786B00020009006E097490968480013
:104FB00001AA002101F054FD954800780128F4D1A0
:104FC00001A8FFF701FF00278E4800688E49096895
:104FD000884205D98B4800688B490968B0FBF1F716
:104FE00027B9884800680A21B0FBF1F757E1FCF7C0
:104FF0004CFC804600BF00BFFCF7C4FD009000BF22
:1050000000BF7F4800688349086000207C49086031
:1050100000BF00BF0098FCF7B9FD00BF00BF7B4890
:1050200000687C490968884248D9784800687A490C
:10503000884205D242F2107003900120029023E0D2
:10504000724800687549884205D24FF47A7003901F
:105050000A20029018E06D4800687149884203D226
:105060006420039002900FE0684800686D49884210
:1050700005D20A2003904FF47A70029004E00120D8
:10508000039042F210700290604801680298B1FBF0
:10509000F0FA6049039809684843B0FBFAF042F21D
:1050A0001071081A604908804C48008809888842B5
:1050B00008DA5D4800884949088003E042F2107030
:1050C0005949088003F01EFE002500BF00BFFCF711
:1050D00059FD009000BF00BF4648046800BF00BFF4
:1050E0000098FCF753FD00BF00BF26E000BF00BFE3
:1050F000FCF748FD009000BF00BF54F8900F6060BF
:10510000002044F8900900BF00BF0098FCF73EFD66
:1051100000BF00BFD4F89400054400BF00BFFCF7F7
:1051200031FD009000BF00BFD4F8B04000BF00BF09
:105130000098FCF72BFD00BF00BF002CD6D145B373
:105140003548854205D242F2107005904FF0010BB0
:105150001BE03248854205D24FF47A7005904FF03B
:105160000A0B12E02E48854203D264200590834644
:105170000BE02C48854204D20A2005904FF47A7B3C
:1051800003E00120059042F2107BB5FBFBF0049098
:1051900003E0002005900120049000BF00BFFCF751
:1051A000F1FC009000BF00BF1248046800BF00BFC0
:1051B0000098FCF7EBFC00BF00BF54E0D4F894006B
:1051C000059948430499B0FBF1F086B242F21070A1
:1051D000864200D90646A4F8806027E0A20000209D
:1051E000B4000020C8000020EC0000208C0000204B
:1051F000F8220020BC00002080000020A027002012
:10520000A40000204CA5000834A50008A800002038
:10521000B0000020AC000020801A060000093D000C
:10522000005A62020084D717A0000020B4F8820060
:10523000B04201DAA4F8826001AB04F1A002111DB2
:10524000204601F0CDF800BF00BFFCF79BFC0090AA
:1052500000BF00BFD4F8B04000BF00BF0098FCF70B
:1052600095FC00BF00BF002CA8D130480078012871
:1052700005D100202D49087001A8FFF7A5FDFCF716
:1052800004FBA0EB08092A480068484502D22848D8
:10529000C0F8009001AA0021384601F0E1FBA6E623
:1052A00010B58AB0044600202249086022490860EF
:1052B00022490860224908701C490870214800688A
:1052C00020B946F62B6020800AB010BD1E48006849
:1052D0001E490968884203D246F62C602080F3E715
:1052E0001B4800783F2803D346F62A602080EBE76E
:1052F000032000210591CDE90704069108461249D3
:105300000968144A12680F4B1B68CDE90132CDE9D8
:1053100003100F4800780023AFF279320EA10090FD
:10532000124800F016F900BFCEE700009E000020F2
:10533000B4000020A4000020AC000020A800002041
:10534000B000002038A5000840A5000848A50008C6
:1053500030A500083CA5000875432F4F532D49493F
:10536000492053746174205461736B00042600203B
:105370002DE9F04104460D4616464FF00008FE4860
:105380000078002804DD47F249103080BDE8F08144
:105390003F2D03D346F273203080F7E78CB900BF6E
:1053A00000BFFCF7EFFB804600BF00BFF348046876
:1053B00000BF00BF4046FCF7E9FB00BF00BF01276C
:1053C00000E0002700BF00BFFCF7DCFB804600BF09
:1053D00000BF94F8360008283AD2DFE800F004173E
:1053E0001C1D18191E1F2046FCF7DBFE84F83750E1
:1053F00094F83700FEF7E6FD012F03D12046FCF7B5
:105400008BFF02E02046FCF7A4FF2CE000BF00BFAA
:1054100084F8375027E000BF00BF00BF94F8340085
:10542000082812D2DFE800F01106040A090B0C0567
:1054300000BF00BF84F8375008E000BF00BF00BFC6
:1054400029462046FDF73BF800E000BF00BF0AE018
:1054500000BF00BF4046FCF799FB00BF00BF46F607
:105460002D60308092E700BF00BF00BF4046FCF7D0
:105470008DFB00BF00BFFCF7E2FC0020308000BFC6
:1054800084E70021C0F8AC10BD49096819B90021B2
:10549000C0F8B01007E0BA490968C0F8B010B849C0
:1054A0000968C1F8AC00B6490860704770B5044699
:1054B00000202060A0606060E06020616061A06109
:1054C000E061B0A0206200206062A062E06220641F
:1054D0002065A4F85400002104F15800FEF7D2F82A
:1054E0000020A066E0666067A4F87C00A067002545
:1054F00006E0002104F1700040F82510681CC5B2D8
:10550000002DF6D00020343420616066A066606013
:1055100084F84A002067E06620816061A061A4F8F9
:105520004C00A4F84E0020656065FCF7AEF9064615
:10553000A6650020E065606720706070A070402064
:10554000E0700020A067E06790A0C4F88000343CC1
:1055500070BD2DE9FF4F85B004469046DDE91995F1
:10556000159F139E0020029083480078002805DDD7
:1055700047F24A10288009B0BDE8F08F1CB947F205
:10558000AD102880F7E7B8F1000F03D147F24F10B4
:105590002880F0E71EB946F62F602880EBE77C48AC
:1055A0000068874203D246F630602880E3E714980B
:1055B000B84203D346F631602880DCE712984028D1
:1055C00003D346F273202880D5E712983F2806D1EE
:1055D0007048844203D046F273202880CBE72046EF
:1055E000FFF764FF0020288009F0010088B109F06E
:1055F000020070B1B3460020049007E00020CBF811
:1056000000000BF1040B0498401C04900498B8426D
:10561000F4D3149806EB80000390CDE9007932466C
:105620004046039B089903F093FB8346C4F8288007
:105630000898E06206982062129884F83700C4F84F
:1056400000B00398A060189860606662A763A4F831
:105650003C904FF0000A08E0002104F1700040F88F
:105660002A100AF1010000F0FF0ABAF1000FF3D08E
:1056700004F158001699FEF705F8204603F04AFB9E
:1056800000BF00BFFCF77EFA029000BF00BF94F895
:105690003700FEF797FC2046FCF75BFE2046FFF73D
:1056A000F0FE3D480088401C3B4908803B4800789C
:1056B000012807D000BF00BF0298FCF767FA00BFBF
:1056C00000BF58E700BF00BF0298FCF75FFA00BFB9
:1056D00000BFFCF7B4FB00BF4DE7D0F8AC20D0F81A
:1056E000B0104AB9264B196011B10023C1F8AC3093
:1056F0000023C0F8B0300FE029B90023C2F8B03061
:10570000C0F8AC3008E0C2F8B010C1F8AC200023FB
:10571000C0F8B030C0F8AC30704770B504460D46E4
:10572000002615480078002803DD47F24E10288037
:1057300070BD1848844203D147F24C102880F7E727
:105740007CB900BF00BFFCF71DFA064600BF00BFD2
:105750000A48046800BF00BF3046FCF717FA00BFD4
:1057600000BF00BF00BFFCF70DFA064600BF00BF38
:1057700094F83600082813E060000020FC000020A8
:10578000BC0000203F5461736B000000200000004B
:1057900048A5000840220020C00000206100002031
:1057A0002DD2DFE800F004090E10080A0F11204680
:1057B000FCF7F7FC2EE02DE000BF204601F002F9D7
:1057C00028E000BF00BF00BF94F83400082810D2C2
:1057D000DFE800F004070508090A0B0600BF00BF58
:1057E00008E000BF00BF00BF00BF2046FCF76AFD15
:1057F00000E000BF00BF204601F0E4F80AE000BF6F
:1058000000BF3046FCF7C2F900BF00BF46F62D606E
:1058100028808DE700BF04F15800FDF714FF2046F3
:1058200003F082FA2046FFF758FFF8480088401E30
:10583000F64908802046FFF739FEFF2084F836003D
:1058400000BF00BF3046FCF7A1F900BF00BF002039
:105850002880FCF7F4FA00BF6AE72DE9F04104461E
:105860000D460026EA480078002805DD4FF46C500C
:1058700028800020BDE8F0817CB900BF00BFFCF7A4
:1058800081F9064600BF00BFE248046800BF00BFC0
:105890003046FCF77BF900BF00BF00BF00BFFCF73C
:1058A00071F9064600BF00BF04F15800FDF7CBFEBA
:1058B000074600BF00BF3046FCF768F900BF00BFD5
:1058C000002028803846D5E72DE9F05F80460F4656
:1058D00016461C460A9D4FF0000BCD480078002864
:1058E00005DD46F2AE1028800020BDE8F09F26B905
:1058F00046F2D52028800020F7E71FB1B7F5004F0A
:1059000002D100E000BF04E045F6256028800020B9
:10591000EBE700BF0CB10020206000BF00BFFCF728
:1059200031F9834600BF00BFBA48006800F158094A
:105930002B46224631464846FDF7ABFE8246288874
:10594000F0B9A4B1FBF7A1FF2168401AB149096879
:105950008866B0480068C06EAE490968896E8842A2
:1059600005D2AC480068806EAA490968C86600BFC5
:1059700000BF5846FCF70AF900BF00BF5046B4E725
:1059800007F4004058B146F2B010288000BF00BFB5
:105990005846FCF7FBF800BF00BF0020A5E79E4873
:1059A000007800280BDD00BF00BF5846FCF7EEF87A
:1059B00000BF00BF46F663502880002095E74346AD
:1059C000022200210846FCF72BFC00BF00BF58460E
:1059D000FCF7DCF800BF00BFFCF731FA00BF00BFE6
:1059E000FCF7D0F8834600BF00BF8A48006890F8F3
:1059F000350020B101282AD0032832D132E0854871
:105A00000068D0F850A083480068B0F85400308097
:105A1000D4B180480068006C2060FBF736FF7D49F8
:105A20000968096C401A7B490968886679480068EA
:105A3000C06E78490968896E884205D27548006849
:105A4000806E74490968C8660020288017E04FF00E
:105A5000000A0020308004B1206046F2A91028809E
:105A60000DE000BF4FF0000A002030801CB16948F3
:105A70000068006C206047F2D920288000BF00BF7A
:105A800000BF00BF5846FCF781F800BF00BF50467A
:105A90002BE72DE9F04105460E46144600275C48E9
:105AA0000078002805DD46F2AA1020800020BDE81D
:105AB000F0811EB1B6F5004F02D100E000BF04E056
:105AC00045F6256020800020F1E700BF00BF00BF41
:105AD000FCF758F8074600BF00BF1DB14D480068ED
